{
	"TrustGigEscrow.sol": {
		"TrustGigEscrow": {
			"abi": [
				{
					"anonymous": false,
					"inputs": [
						{
							"indexed": true,
							"internalType": "uint256",
							"name": "jobId",
							"type": "uint256"
						}
					],
					"name": "DisputeRaised",
					"type": "event"
				},
				{
					"anonymous": false,
					"inputs": [
						{
							"indexed": true,
							"internalType": "uint256",
							"name": "jobId",
							"type": "uint256"
						},
						{
							"indexed": false,
							"internalType": "address",
							"name": "winner",
							"type": "address"
						}
					],
					"name": "DisputeResolved",
					"type": "event"
				},
				{
					"anonymous": false,
					"inputs": [
						{
							"indexed": true,
							"internalType": "uint256",
							"name": "jobId",
							"type": "uint256"
						}
					],
					"name": "JobApproved",
					"type": "event"
				},
				{
					"anonymous": false,
					"inputs": [
						{
							"indexed": true,
							"internalType": "uint256",
							"name": "jobId",
							"type": "uint256"
						},
						{
							"indexed": true,
							"internalType": "address",
							"name": "client",
							"type": "address"
						},
						{
							"indexed": true,
							"internalType": "address",
							"name": "freelancer",
							"type": "address"
						},
						{
							"indexed": false,
							"internalType": "address",
							"name": "arbitrator",
							"type": "address"
						},
						{
							"indexed": false,
							"internalType": "uint256",
							"name": "amount",
							"type": "uint256"
						}
					],
					"name": "JobCreated",
					"type": "event"
				},
				{
					"anonymous": false,
					"inputs": [
						{
							"indexed": true,
							"internalType": "uint256",
							"name": "jobId",
							"type": "uint256"
						},
						{
							"indexed": false,
							"internalType": "uint256",
							"name": "amount",
							"type": "uint256"
						}
					],
					"name": "JobFunded",
					"type": "event"
				},
				{
					"anonymous": false,
					"inputs": [
						{
							"indexed": true,
							"internalType": "uint256",
							"name": "jobId",
							"type": "uint256"
						},
						{
							"indexed": false,
							"internalType": "string",
							"name": "workSubmission",
							"type": "string"
						}
					],
					"name": "WorkSubmitted",
					"type": "event"
				},
				{
					"inputs": [
						{
							"internalType": "uint256",
							"name": "_jobId",
							"type": "uint256"
						}
					],
					"name": "approveWork",
					"outputs": [],
					"stateMutability": "nonpayable",
					"type": "function"
				},
				{
					"inputs": [
						{
							"internalType": "address",
							"name": "_freelancer",
							"type": "address"
						},
						{
							"internalType": "address",
							"name": "_arbitrator",
							"type": "address"
						},
						{
							"internalType": "uint256",
							"name": "_amount",
							"type": "uint256"
						}
					],
					"name": "createJob",
					"outputs": [
						{
							"internalType": "uint256",
							"name": "jobId",
							"type": "uint256"
						}
					],
					"stateMutability": "nonpayable",
					"type": "function"
				},
				{
					"inputs": [
						{
							"internalType": "uint256",
							"name": "_jobId",
							"type": "uint256"
						}
					],
					"name": "fundJob",
					"outputs": [],
					"stateMutability": "payable",
					"type": "function"
				},
				{
					"inputs": [
						{
							"internalType": "uint256",
							"name": "_jobId",
							"type": "uint256"
						}
					],
					"name": "getJob",
					"outputs": [
						{
							"internalType": "address",
							"name": "client",
							"type": "address"
						},
						{
							"internalType": "address",
							"name": "freelancer",
							"type": "address"
						},
						{
							"internalType": "address",
							"name": "arbitrator",
							"type": "address"
						},
						{
							"internalType": "uint256",
							"name": "amount",
							"type": "uint256"
						},
						{
							"internalType": "enum TrustGigEscrow.JobState",
							"name": "state",
							"type": "uint8"
						},
						{
							"internalType": "string",
							"name": "workSubmission",
							"type": "string"
						}
					],
					"stateMutability": "view",
					"type": "function"
				},
				{
					"inputs": [
						{
							"internalType": "uint256",
							"name": "",
							"type": "uint256"
						}
					],
					"name": "jobs",
					"outputs": [
						{
							"internalType": "address",
							"name": "client",
							"type": "address"
						},
						{
							"internalType": "address",
							"name": "freelancer",
							"type": "address"
						},
						{
							"internalType": "address",
							"name": "arbitrator",
							"type": "address"
						},
						{
							"internalType": "uint256",
							"name": "amount",
							"type": "uint256"
						},
						{
							"internalType": "enum TrustGigEscrow.JobState",
							"name": "state",
							"type": "uint8"
						},
						{
							"internalType": "string",
							"name": "workSubmission",
							"type": "string"
						}
					],
					"stateMutability": "view",
					"type": "function"
				},
				{
					"inputs": [],
					"name": "nextJobId",
					"outputs": [
						{
							"internalType": "uint256",
							"name": "",
							"type": "uint256"
						}
					],
					"stateMutability": "view",
					"type": "function"
				},
				{
					"inputs": [
						{
							"internalType": "uint256",
							"name": "_jobId",
							"type": "uint256"
						}
					],
					"name": "raiseDispute",
					"outputs": [],
					"stateMutability": "nonpayable",
					"type": "function"
				},
				{
					"inputs": [
						{
							"internalType": "uint256",
							"name": "_jobId",
							"type": "uint256"
						},
						{
							"internalType": "address",
							"name": "_winner",
							"type": "address"
						}
					],
					"name": "resolveDispute",
					"outputs": [],
					"stateMutability": "nonpayable",
					"type": "function"
				},
				{
					"inputs": [
						{
							"internalType": "uint256",
							"name": "_jobId",
							"type": "uint256"
						},
						{
							"internalType": "string",
							"name": "_workSubmission",
							"type": "string"
						}
					],
					"name": "submitWork",
					"outputs": [],
					"stateMutability": "nonpayable",
					"type": "function"
				}
			],
			"devdoc": {
				"kind": "dev",
				"methods": {},
				"title": "TrustGig - Simple Freelance Escrow with Dispute Resolution",
				"version": 1
			},
			"evm": {
				"assembly": "    /* \"TrustGigEscrow.sol\":227:5109  contract TrustGigEscrow {... */\n  mstore(0x40, 0x80)\n  callvalue\n  dup1\n  iszero\n  tag_1\n  jumpi\n  0x00\n  dup1\n  revert\ntag_1:\n  pop\n  dataSize(sub_0)\n  dup1\n  dataOffset(sub_0)\n  0x00\n  codecopy\n  0x00\n  return\nstop\n\nsub_0: assembly {\n        /* \"TrustGigEscrow.sol\":227:5109  contract TrustGigEscrow {... */\n      mstore(0x40, 0x80)\n      jumpi(tag_1, lt(calldatasize, 0x04))\n      shr(0xe0, calldataload(0x00))\n      dup1\n      0xa5c1674e\n      gt\n      tag_11\n      jumpi\n      dup1\n      0xa5c1674e\n      eq\n      tag_6\n      jumpi\n      dup1\n      0xb0c2aa5e\n      eq\n      tag_7\n      jumpi\n      dup1\n      0xbf0077ef\n      eq\n      tag_8\n      jumpi\n      dup1\n      0xbf22c457\n      eq\n      tag_9\n      jumpi\n      dup1\n      0xda8accf9\n      eq\n      tag_10\n      jumpi\n      jump(tag_1)\n    tag_11:\n      dup1\n      0x0e33599d\n      eq\n      tag_2\n      jumpi\n      dup1\n      0x180aedf3\n      eq\n      tag_3\n      jumpi\n      dup1\n      0x3d01e0fa\n      eq\n      tag_4\n      jumpi\n      dup1\n      0x8d22b863\n      eq\n      tag_5\n      jumpi\n    tag_1:\n      0x00\n      dup1\n      revert\n        /* \"TrustGigEscrow.sol\":4012:4561  function resolveDispute(uint256 _jobId, address _winner)... */\n    tag_2:\n      callvalue\n      dup1\n      iszero\n      tag_12\n      jumpi\n      0x00\n      dup1\n      revert\n    tag_12:\n      pop\n      tag_13\n      0x04\n      dup1\n      calldatasize\n      sub\n      dup2\n      add\n      swap1\n      tag_14\n      swap2\n      swap1\n      tag_15\n      jump\t// in\n    tag_14:\n      tag_16\n      jump\t// in\n    tag_13:\n      stop\n        /* \"TrustGigEscrow.sol\":665:700  mapping(uint256 => Job) public jobs */\n    tag_3:\n      callvalue\n      dup1\n      iszero\n      tag_17\n      jumpi\n      0x00\n      dup1\n      revert\n    tag_17:\n      pop\n      tag_18\n      0x04\n      dup1\n      calldatasize\n      sub\n      dup2\n      add\n      swap1\n      tag_19\n      swap2\n      swap1\n      tag_20\n      jump\t// in\n    tag_19:\n      tag_21\n      jump\t// in\n    tag_18:\n      mload(0x40)\n      tag_22\n      swap7\n      swap6\n      swap5\n      swap4\n      swap3\n      swap2\n      swap1\n      tag_23\n      jump\t// in\n    tag_22:\n      mload(0x40)\n      dup1\n      swap2\n      sub\n      swap1\n      return\n        /* \"TrustGigEscrow.sol\":3237:3614  function approveWork(uint256 _jobId)... */\n    tag_4:\n      callvalue\n      dup1\n      iszero\n      tag_24\n      jumpi\n      0x00\n      dup1\n      revert\n    tag_24:\n      pop\n      tag_25\n      0x04\n      dup1\n      calldatasize\n      sub\n      dup2\n      add\n      swap1\n      tag_26\n      swap2\n      swap1\n      tag_20\n      jump\t// in\n    tag_26:\n      tag_27\n      jump\t// in\n    tag_25:\n      stop\n        /* \"TrustGigEscrow.sol\":2508:2858  function fundJob(uint256 _jobId)... */\n    tag_5:\n      tag_28\n      0x04\n      dup1\n      calldatasize\n      sub\n      dup2\n      add\n      swap1\n      tag_29\n      swap2\n      swap1\n      tag_20\n      jump\t// in\n    tag_29:\n      tag_30\n      jump\t// in\n    tag_28:\n      stop\n        /* \"TrustGigEscrow.sol\":3622:4004  function raiseDispute(uint256 _jobId)... */\n    tag_6:\n      callvalue\n      dup1\n      iszero\n      tag_31\n      jumpi\n      0x00\n      dup1\n      revert\n    tag_31:\n      pop\n      tag_32\n      0x04\n      dup1\n      calldatasize\n      sub\n      dup2\n      add\n      swap1\n      tag_33\n      swap2\n      swap1\n      tag_20\n      jump\t// in\n    tag_33:\n      tag_34\n      jump\t// in\n    tag_32:\n      stop\n        /* \"TrustGigEscrow.sol\":634:658  uint256 public nextJobId */\n    tag_7:\n      callvalue\n      dup1\n      iszero\n      tag_35\n      jumpi\n      0x00\n      dup1\n      revert\n    tag_35:\n      pop\n      tag_36\n      tag_37\n      jump\t// in\n    tag_36:\n      mload(0x40)\n      tag_38\n      swap2\n      swap1\n      tag_39\n      jump\t// in\n    tag_38:\n      mload(0x40)\n      dup1\n      swap2\n      sub\n      swap1\n      return\n        /* \"TrustGigEscrow.sol\":1771:2500  function createJob(... */\n    tag_8:\n      callvalue\n      dup1\n      iszero\n      tag_40\n      jumpi\n      0x00\n      dup1\n      revert\n    tag_40:\n      pop\n      tag_41\n      0x04\n      dup1\n      calldatasize\n      sub\n      dup2\n      add\n      swap1\n      tag_42\n      swap2\n      swap1\n      tag_43\n      jump\t// in\n    tag_42:\n      tag_44\n      jump\t// in\n    tag_41:\n      mload(0x40)\n      tag_45\n      swap2\n      swap1\n      tag_39\n      jump\t// in\n    tag_45:\n      mload(0x40)\n      dup1\n      swap2\n      sub\n      swap1\n      return\n        /* \"TrustGigEscrow.sol\":4569:5106  function getJob(uint256 _jobId)... */\n    tag_9:\n      callvalue\n      dup1\n      iszero\n      tag_46\n      jumpi\n      0x00\n      dup1\n      revert\n    tag_46:\n      pop\n      tag_47\n      0x04\n      dup1\n      calldatasize\n      sub\n      dup2\n      add\n      swap1\n      tag_48\n      swap2\n      swap1\n      tag_20\n      jump\t// in\n    tag_48:\n      tag_49\n      jump\t// in\n    tag_47:\n      mload(0x40)\n      tag_50\n      swap7\n      swap6\n      swap5\n      swap4\n      swap3\n      swap2\n      swap1\n      tag_23\n      jump\t// in\n    tag_50:\n      mload(0x40)\n      dup1\n      swap2\n      sub\n      swap1\n      return\n        /* \"TrustGigEscrow.sol\":2866:3229  function submitWork(uint256 _jobId, string calldata _workSubmission)... */\n    tag_10:\n      callvalue\n      dup1\n      iszero\n      tag_51\n      jumpi\n      0x00\n      dup1\n      revert\n    tag_51:\n      pop\n      tag_52\n      0x04\n      dup1\n      calldatasize\n      sub\n      dup2\n      add\n      swap1\n      tag_53\n      swap2\n      swap1\n      tag_54\n      jump\t// in\n    tag_53:\n      tag_55\n      jump\t// in\n    tag_52:\n      stop\n        /* \"TrustGigEscrow.sol\":4012:4561  function resolveDispute(uint256 _jobId, address _winner)... */\n    tag_16:\n        /* \"TrustGigEscrow.sol\":4111:4117  _jobId */\n      dup2\n        /* \"TrustGigEscrow.sol\":1550:1554  jobs */\n      0x01\n        /* \"TrustGigEscrow.sol\":1550:1562  jobs[_jobId] */\n      0x00\n        /* \"TrustGigEscrow.sol\":1555:1561  _jobId */\n      dup3\n        /* \"TrustGigEscrow.sol\":1550:1562  jobs[_jobId] */\n      dup2\n      mstore\n      0x20\n      add\n      swap1\n      dup2\n      mstore\n      0x20\n      add\n      0x00\n      keccak256\n        /* \"TrustGigEscrow.sol\":1550:1573  jobs[_jobId].arbitrator */\n      0x02\n      add\n      0x00\n      swap1\n      sload\n      swap1\n      0x0100\n      exp\n      swap1\n      div\n      0xffffffffffffffffffffffffffffffffffffffff\n      and\n        /* \"TrustGigEscrow.sol\":1536:1573  msg.sender == jobs[_jobId].arbitrator */\n      0xffffffffffffffffffffffffffffffffffffffff\n      and\n        /* \"TrustGigEscrow.sol\":1536:1546  msg.sender */\n      caller\n        /* \"TrustGigEscrow.sol\":1536:1573  msg.sender == jobs[_jobId].arbitrator */\n      0xffffffffffffffffffffffffffffffffffffffff\n      and\n      eq\n        /* \"TrustGigEscrow.sol\":1528:1596  require(msg.sender == jobs[_jobId].arbitrator, \"Not job arbitrator\") */\n      tag_57\n      jumpi\n      mload(0x40)\n      0x08c379a000000000000000000000000000000000000000000000000000000000\n      dup2\n      mstore\n      0x04\n      add\n      tag_58\n      swap1\n      tag_59\n      jump\t// in\n    tag_58:\n      mload(0x40)\n      dup1\n      swap2\n      sub\n      swap1\n      revert\n    tag_57:\n        /* \"TrustGigEscrow.sol\":4136:4142  _jobId */\n      dup3\n        /* \"TrustGigEscrow.sol\":4144:4161  JobState.Disputed */\n      0x04\n        /* \"TrustGigEscrow.sol\":1715:1721  _state */\n      dup1\n        /* \"TrustGigEscrow.sol\":1693:1721  jobs[_jobId].state == _state */\n      0x05\n      dup2\n      gt\n      iszero\n      tag_61\n      jumpi\n      tag_62\n      tag_63\n      jump\t// in\n    tag_62:\n    tag_61:\n        /* \"TrustGigEscrow.sol\":1693:1697  jobs */\n      0x01\n        /* \"TrustGigEscrow.sol\":1693:1705  jobs[_jobId] */\n      0x00\n        /* \"TrustGigEscrow.sol\":1698:1704  _jobId */\n      dup5\n        /* \"TrustGigEscrow.sol\":1693:1705  jobs[_jobId] */\n      dup2\n      mstore\n      0x20\n      add\n      swap1\n      dup2\n      mstore\n      0x20\n      add\n      0x00\n      keccak256\n        /* \"TrustGigEscrow.sol\":1693:1711  jobs[_jobId].state */\n      0x04\n      add\n      0x00\n      swap1\n      sload\n      swap1\n      0x0100\n      exp\n      swap1\n      div\n      0xff\n      and\n        /* \"TrustGigEscrow.sol\":1693:1721  jobs[_jobId].state == _state */\n      0x05\n      dup2\n      gt\n      iszero\n      tag_64\n      jumpi\n      tag_65\n      tag_63\n      jump\t// in\n    tag_65:\n    tag_64:\n      eq\n        /* \"TrustGigEscrow.sol\":1685:1743  require(jobs[_jobId].state == _state, \"Invalid job state\") */\n      tag_66\n      jumpi\n      mload(0x40)\n      0x08c379a000000000000000000000000000000000000000000000000000000000\n      dup2\n      mstore\n      0x04\n      add\n      tag_67\n      swap1\n      tag_68\n      jump\t// in\n    tag_67:\n      mload(0x40)\n      dup1\n      swap2\n      sub\n      swap1\n      revert\n    tag_66:\n        /* \"TrustGigEscrow.sol\":4179:4194  Job storage job */\n      0x00\n        /* \"TrustGigEscrow.sol\":4197:4201  jobs */\n      0x01\n        /* \"TrustGigEscrow.sol\":4197:4209  jobs[_jobId] */\n      0x00\n        /* \"TrustGigEscrow.sol\":4202:4208  _jobId */\n      dup8\n        /* \"TrustGigEscrow.sol\":4197:4209  jobs[_jobId] */\n      dup2\n      mstore\n      0x20\n      add\n      swap1\n      dup2\n      mstore\n      0x20\n      add\n      0x00\n      keccak256\n        /* \"TrustGigEscrow.sol\":4179:4209  Job storage job = jobs[_jobId] */\n      swap1\n      pop\n        /* \"TrustGigEscrow.sol\":4253:4256  job */\n      dup1\n        /* \"TrustGigEscrow.sol\":4253:4263  job.client */\n      0x00\n      add\n      0x00\n      swap1\n      sload\n      swap1\n      0x0100\n      exp\n      swap1\n      div\n      0xffffffffffffffffffffffffffffffffffffffff\n      and\n        /* \"TrustGigEscrow.sol\":4242:4263  _winner == job.client */\n      0xffffffffffffffffffffffffffffffffffffffff\n      and\n        /* \"TrustGigEscrow.sol\":4242:4249  _winner */\n      dup6\n        /* \"TrustGigEscrow.sol\":4242:4263  _winner == job.client */\n      0xffffffffffffffffffffffffffffffffffffffff\n      and\n      eq\n        /* \"TrustGigEscrow.sol\":4242:4292  _winner == job.client || _winner == job.freelancer */\n      dup1\n      tag_70\n      jumpi\n      pop\n        /* \"TrustGigEscrow.sol\":4278:4281  job */\n      dup1\n        /* \"TrustGigEscrow.sol\":4278:4292  job.freelancer */\n      0x01\n      add\n      0x00\n      swap1\n      sload\n      swap1\n      0x0100\n      exp\n      swap1\n      div\n      0xffffffffffffffffffffffffffffffffffffffff\n      and\n        /* \"TrustGigEscrow.sol\":4267:4292  _winner == job.freelancer */\n      0xffffffffffffffffffffffffffffffffffffffff\n      and\n        /* \"TrustGigEscrow.sol\":4267:4274  _winner */\n      dup6\n        /* \"TrustGigEscrow.sol\":4267:4292  _winner == job.freelancer */\n      0xffffffffffffffffffffffffffffffffffffffff\n      and\n      eq\n        /* \"TrustGigEscrow.sol\":4242:4292  _winner == job.client || _winner == job.freelancer */\n    tag_70:\n        /* \"TrustGigEscrow.sol\":4220:4355  require(... */\n      tag_71\n      jumpi\n      mload(0x40)\n      0x08c379a000000000000000000000000000000000000000000000000000000000\n      dup2\n      mstore\n      0x04\n      add\n      tag_72\n      swap1\n      tag_73\n      jump\t// in\n    tag_72:\n      mload(0x40)\n      dup1\n      swap2\n      sub\n      swap1\n      revert\n    tag_71:\n        /* \"TrustGigEscrow.sol\":4380:4397  JobState.Resolved */\n      0x05\n        /* \"TrustGigEscrow.sol\":4368:4371  job */\n      dup2\n        /* \"TrustGigEscrow.sol\":4368:4377  job.state */\n      0x04\n      add\n      0x00\n        /* \"TrustGigEscrow.sol\":4368:4397  job.state = JobState.Resolved */\n      0x0100\n      exp\n      dup2\n      sload\n      dup2\n      0xff\n      mul\n      not\n      and\n      swap1\n      dup4\n      0x05\n      dup2\n      gt\n      iszero\n      tag_74\n      jumpi\n      tag_75\n      tag_63\n      jump\t// in\n    tag_75:\n    tag_74:\n      mul\n      or\n      swap1\n      sstore\n      pop\n        /* \"TrustGigEscrow.sol\":4411:4420  bool sent */\n      0x00\n        /* \"TrustGigEscrow.sol\":4426:4433  _winner */\n      dup6\n        /* \"TrustGigEscrow.sol\":4426:4438  _winner.call */\n      0xffffffffffffffffffffffffffffffffffffffff\n      and\n        /* \"TrustGigEscrow.sol\":4446:4449  job */\n      dup3\n        /* \"TrustGigEscrow.sol\":4446:4456  job.amount */\n      0x03\n      add\n      sload\n        /* \"TrustGigEscrow.sol\":4426:4461  _winner.call{value: job.amount}(\"\") */\n      mload(0x40)\n      tag_76\n      swap1\n      tag_77\n      jump\t// in\n    tag_76:\n      0x00\n      mload(0x40)\n      dup1\n      dup4\n      sub\n      dup2\n      dup6\n      dup8\n      gas\n      call\n      swap3\n      pop\n      pop\n      pop\n      returndatasize\n      dup1\n      0x00\n      dup2\n      eq\n      tag_80\n      jumpi\n      mload(0x40)\n      swap2\n      pop\n      and(add(returndatasize, 0x3f), not(0x1f))\n      dup3\n      add\n      0x40\n      mstore\n      returndatasize\n      dup3\n      mstore\n      returndatasize\n      0x00\n      0x20\n      dup5\n      add\n      returndatacopy\n      jump(tag_79)\n    tag_80:\n      0x60\n      swap2\n      pop\n    tag_79:\n      pop\n        /* \"TrustGigEscrow.sol\":4410:4461  (bool sent, ) = _winner.call{value: job.amount}(\"\") */\n      pop\n      swap1\n      pop\n        /* \"TrustGigEscrow.sol\":4480:4484  sent */\n      dup1\n        /* \"TrustGigEscrow.sol\":4472:4503  require(sent, \"Payment failed\") */\n      tag_81\n      jumpi\n      mload(0x40)\n      0x08c379a000000000000000000000000000000000000000000000000000000000\n      dup2\n      mstore\n      0x04\n      add\n      tag_82\n      swap1\n      tag_83\n      jump\t// in\n    tag_82:\n      mload(0x40)\n      dup1\n      swap2\n      sub\n      swap1\n      revert\n    tag_81:\n        /* \"TrustGigEscrow.sol\":4537:4543  _jobId */\n      dup7\n        /* \"TrustGigEscrow.sol\":4521:4553  DisputeResolved(_jobId, _winner) */\n      0xf77ceb5e091d2da041bc760667f9d5fe7a756949eaf29250ad0e60ca6f4c27d9\n        /* \"TrustGigEscrow.sol\":4545:4552  _winner */\n      dup8\n        /* \"TrustGigEscrow.sol\":4521:4553  DisputeResolved(_jobId, _winner) */\n      mload(0x40)\n      tag_84\n      swap2\n      swap1\n      tag_85\n      jump\t// in\n    tag_84:\n      mload(0x40)\n      dup1\n      swap2\n      sub\n      swap1\n      log2\n        /* \"TrustGigEscrow.sol\":4168:4561  {... */\n      pop\n      pop\n        /* \"TrustGigEscrow.sol\":1607:1608  _ */\n      pop\n      pop\n        /* \"TrustGigEscrow.sol\":4012:4561  function resolveDispute(uint256 _jobId, address _winner)... */\n      pop\n      pop\n      pop\n      jump\t// out\n        /* \"TrustGigEscrow.sol\":665:700  mapping(uint256 => Job) public jobs */\n    tag_21:\n      mstore(0x20, 0x01)\n      dup1\n      0x00\n      mstore\n      keccak256(0x00, 0x40)\n      0x00\n      swap2\n      pop\n      swap1\n      pop\n      dup1\n      0x00\n      add\n      0x00\n      swap1\n      sload\n      swap1\n      0x0100\n      exp\n      swap1\n      div\n      0xffffffffffffffffffffffffffffffffffffffff\n      and\n      swap1\n      dup1\n      0x01\n      add\n      0x00\n      swap1\n      sload\n      swap1\n      0x0100\n      exp\n      swap1\n      div\n      0xffffffffffffffffffffffffffffffffffffffff\n      and\n      swap1\n      dup1\n      0x02\n      add\n      0x00\n      swap1\n      sload\n      swap1\n      0x0100\n      exp\n      swap1\n      div\n      0xffffffffffffffffffffffffffffffffffffffff\n      and\n      swap1\n      dup1\n      0x03\n      add\n      sload\n      swap1\n      dup1\n      0x04\n      add\n      0x00\n      swap1\n      sload\n      swap1\n      0x0100\n      exp\n      swap1\n      div\n      0xff\n      and\n      swap1\n      dup1\n      0x05\n      add\n      dup1\n      sload\n      tag_86\n      swap1\n      tag_87\n      jump\t// in\n    tag_86:\n      dup1\n      0x1f\n      add\n      0x20\n      dup1\n      swap2\n      div\n      mul\n      0x20\n      add\n      mload(0x40)\n      swap1\n      dup2\n      add\n      0x40\n      mstore\n      dup1\n      swap3\n      swap2\n      swap1\n      dup2\n      dup2\n      mstore\n      0x20\n      add\n      dup3\n      dup1\n      sload\n      tag_88\n      swap1\n      tag_87\n      jump\t// in\n    tag_88:\n      dup1\n      iszero\n      tag_89\n      jumpi\n      dup1\n      0x1f\n      lt\n      tag_90\n      jumpi\n      0x0100\n      dup1\n      dup4\n      sload\n      div\n      mul\n      dup4\n      mstore\n      swap2\n      0x20\n      add\n      swap2\n      jump(tag_89)\n    tag_90:\n      dup3\n      add\n      swap2\n      swap1\n      0x00\n      mstore\n      keccak256(0x00, 0x20)\n      swap1\n    tag_91:\n      dup2\n      sload\n      dup2\n      mstore\n      swap1\n      0x01\n      add\n      swap1\n      0x20\n      add\n      dup1\n      dup4\n      gt\n      tag_91\n      jumpi\n      dup3\n      swap1\n      sub\n      0x1f\n      and\n      dup3\n      add\n      swap2\n    tag_89:\n      pop\n      pop\n      pop\n      pop\n      pop\n      swap1\n      pop\n      dup7\n      jump\t// out\n        /* \"TrustGigEscrow.sol\":3237:3614  function approveWork(uint256 _jobId)... */\n    tag_27:\n        /* \"TrustGigEscrow.sol\":3312:3318  _jobId */\n      dup1\n        /* \"TrustGigEscrow.sol\":1264:1268  jobs */\n      0x01\n        /* \"TrustGigEscrow.sol\":1264:1276  jobs[_jobId] */\n      0x00\n        /* \"TrustGigEscrow.sol\":1269:1275  _jobId */\n      dup3\n        /* \"TrustGigEscrow.sol\":1264:1276  jobs[_jobId] */\n      dup2\n      mstore\n      0x20\n      add\n      swap1\n      dup2\n      mstore\n      0x20\n      add\n      0x00\n      keccak256\n        /* \"TrustGigEscrow.sol\":1264:1283  jobs[_jobId].client */\n      0x00\n      add\n      0x00\n      swap1\n      sload\n      swap1\n      0x0100\n      exp\n      swap1\n      div\n      0xffffffffffffffffffffffffffffffffffffffff\n      and\n        /* \"TrustGigEscrow.sol\":1250:1283  msg.sender == jobs[_jobId].client */\n      0xffffffffffffffffffffffffffffffffffffffff\n      and\n        /* \"TrustGigEscrow.sol\":1250:1260  msg.sender */\n      caller\n        /* \"TrustGigEscrow.sol\":1250:1283  msg.sender == jobs[_jobId].client */\n      0xffffffffffffffffffffffffffffffffffffffff\n      and\n      eq\n        /* \"TrustGigEscrow.sol\":1242:1302  require(msg.sender == jobs[_jobId].client, \"Not job client\") */\n      tag_93\n      jumpi\n      mload(0x40)\n      0x08c379a000000000000000000000000000000000000000000000000000000000\n      dup2\n      mstore\n      0x04\n      add\n      tag_94\n      swap1\n      tag_95\n      jump\t// in\n    tag_94:\n      mload(0x40)\n      dup1\n      swap2\n      sub\n      swap1\n      revert\n    tag_93:\n        /* \"TrustGigEscrow.sol\":3337:3343  _jobId */\n      dup2\n        /* \"TrustGigEscrow.sol\":3345:3367  JobState.WorkSubmitted */\n      0x02\n        /* \"TrustGigEscrow.sol\":1715:1721  _state */\n      dup1\n        /* \"TrustGigEscrow.sol\":1693:1721  jobs[_jobId].state == _state */\n      0x05\n      dup2\n      gt\n      iszero\n      tag_97\n      jumpi\n      tag_98\n      tag_63\n      jump\t// in\n    tag_98:\n    tag_97:\n        /* \"TrustGigEscrow.sol\":1693:1697  jobs */\n      0x01\n        /* \"TrustGigEscrow.sol\":1693:1705  jobs[_jobId] */\n      0x00\n        /* \"TrustGigEscrow.sol\":1698:1704  _jobId */\n      dup5\n        /* \"TrustGigEscrow.sol\":1693:1705  jobs[_jobId] */\n      dup2\n      mstore\n      0x20\n      add\n      swap1\n      dup2\n      mstore\n      0x20\n      add\n      0x00\n      keccak256\n        /* \"TrustGigEscrow.sol\":1693:1711  jobs[_jobId].state */\n      0x04\n      add\n      0x00\n      swap1\n      sload\n      swap1\n      0x0100\n      exp\n      swap1\n      div\n      0xff\n      and\n        /* \"TrustGigEscrow.sol\":1693:1721  jobs[_jobId].state == _state */\n      0x05\n      dup2\n      gt\n      iszero\n      tag_99\n      jumpi\n      tag_100\n      tag_63\n      jump\t// in\n    tag_100:\n    tag_99:\n      eq\n        /* \"TrustGigEscrow.sol\":1685:1743  require(jobs[_jobId].state == _state, \"Invalid job state\") */\n      tag_101\n      jumpi\n      mload(0x40)\n      0x08c379a000000000000000000000000000000000000000000000000000000000\n      dup2\n      mstore\n      0x04\n      add\n      tag_102\n      swap1\n      tag_68\n      jump\t// in\n    tag_102:\n      mload(0x40)\n      dup1\n      swap2\n      sub\n      swap1\n      revert\n    tag_101:\n        /* \"TrustGigEscrow.sol\":3385:3400  Job storage job */\n      0x00\n        /* \"TrustGigEscrow.sol\":3403:3407  jobs */\n      0x01\n        /* \"TrustGigEscrow.sol\":3403:3415  jobs[_jobId] */\n      0x00\n        /* \"TrustGigEscrow.sol\":3408:3414  _jobId */\n      dup7\n        /* \"TrustGigEscrow.sol\":3403:3415  jobs[_jobId] */\n      dup2\n      mstore\n      0x20\n      add\n      swap1\n      dup2\n      mstore\n      0x20\n      add\n      0x00\n      keccak256\n        /* \"TrustGigEscrow.sol\":3385:3415  Job storage job = jobs[_jobId] */\n      swap1\n      pop\n        /* \"TrustGigEscrow.sol\":3438:3456  JobState.Completed */\n      0x03\n        /* \"TrustGigEscrow.sol\":3426:3429  job */\n      dup2\n        /* \"TrustGigEscrow.sol\":3426:3435  job.state */\n      0x04\n      add\n      0x00\n        /* \"TrustGigEscrow.sol\":3426:3456  job.state = JobState.Completed */\n      0x0100\n      exp\n      dup2\n      sload\n      dup2\n      0xff\n      mul\n      not\n      and\n      swap1\n      dup4\n      0x05\n      dup2\n      gt\n      iszero\n      tag_104\n      jumpi\n      tag_105\n      tag_63\n      jump\t// in\n    tag_105:\n    tag_104:\n      mul\n      or\n      swap1\n      sstore\n      pop\n        /* \"TrustGigEscrow.sol\":3470:3479  bool sent */\n      0x00\n        /* \"TrustGigEscrow.sol\":3485:3488  job */\n      dup2\n        /* \"TrustGigEscrow.sol\":3485:3499  job.freelancer */\n      0x01\n      add\n      0x00\n      swap1\n      sload\n      swap1\n      0x0100\n      exp\n      swap1\n      div\n      0xffffffffffffffffffffffffffffffffffffffff\n      and\n        /* \"TrustGigEscrow.sol\":3485:3504  job.freelancer.call */\n      0xffffffffffffffffffffffffffffffffffffffff\n      and\n        /* \"TrustGigEscrow.sol\":3512:3515  job */\n      dup3\n        /* \"TrustGigEscrow.sol\":3512:3522  job.amount */\n      0x03\n      add\n      sload\n        /* \"TrustGigEscrow.sol\":3485:3527  job.freelancer.call{value: job.amount}(\"\") */\n      mload(0x40)\n      tag_106\n      swap1\n      tag_77\n      jump\t// in\n    tag_106:\n      0x00\n      mload(0x40)\n      dup1\n      dup4\n      sub\n      dup2\n      dup6\n      dup8\n      gas\n      call\n      swap3\n      pop\n      pop\n      pop\n      returndatasize\n      dup1\n      0x00\n      dup2\n      eq\n      tag_109\n      jumpi\n      mload(0x40)\n      swap2\n      pop\n      and(add(returndatasize, 0x3f), not(0x1f))\n      dup3\n      add\n      0x40\n      mstore\n      returndatasize\n      dup3\n      mstore\n      returndatasize\n      0x00\n      0x20\n      dup5\n      add\n      returndatacopy\n      jump(tag_108)\n    tag_109:\n      0x60\n      swap2\n      pop\n    tag_108:\n      pop\n        /* \"TrustGigEscrow.sol\":3469:3527  (bool sent, ) = job.freelancer.call{value: job.amount}(\"\") */\n      pop\n      swap1\n      pop\n        /* \"TrustGigEscrow.sol\":3546:3550  sent */\n      dup1\n        /* \"TrustGigEscrow.sol\":3538:3569  require(sent, \"Payment failed\") */\n      tag_110\n      jumpi\n      mload(0x40)\n      0x08c379a000000000000000000000000000000000000000000000000000000000\n      dup2\n      mstore\n      0x04\n      add\n      tag_111\n      swap1\n      tag_83\n      jump\t// in\n    tag_111:\n      mload(0x40)\n      dup1\n      swap2\n      sub\n      swap1\n      revert\n    tag_110:\n        /* \"TrustGigEscrow.sol\":3599:3605  _jobId */\n      dup6\n        /* \"TrustGigEscrow.sol\":3587:3606  JobApproved(_jobId) */\n      0x2b88058042496b0bb1ee5166ce824d56981c8ac5f99ce696568be4ceed8dafde\n      mload(0x40)\n      mload(0x40)\n      dup1\n      swap2\n      sub\n      swap1\n      log2\n        /* \"TrustGigEscrow.sol\":3374:3614  {... */\n      pop\n      pop\n        /* \"TrustGigEscrow.sol\":1313:1314  _ */\n      pop\n      pop\n        /* \"TrustGigEscrow.sol\":3237:3614  function approveWork(uint256 _jobId)... */\n      pop\n      pop\n      jump\t// out\n        /* \"TrustGigEscrow.sol\":2508:2858  function fundJob(uint256 _jobId)... */\n    tag_30:\n        /* \"TrustGigEscrow.sol\":2596:2602  _jobId */\n      dup1\n        /* \"TrustGigEscrow.sol\":1264:1268  jobs */\n      0x01\n        /* \"TrustGigEscrow.sol\":1264:1276  jobs[_jobId] */\n      0x00\n        /* \"TrustGigEscrow.sol\":1269:1275  _jobId */\n      dup3\n        /* \"TrustGigEscrow.sol\":1264:1276  jobs[_jobId] */\n      dup2\n      mstore\n      0x20\n      add\n      swap1\n      dup2\n      mstore\n      0x20\n      add\n      0x00\n      keccak256\n        /* \"TrustGigEscrow.sol\":1264:1283  jobs[_jobId].client */\n      0x00\n      add\n      0x00\n      swap1\n      sload\n      swap1\n      0x0100\n      exp\n      swap1\n      div\n      0xffffffffffffffffffffffffffffffffffffffff\n      and\n        /* \"TrustGigEscrow.sol\":1250:1283  msg.sender == jobs[_jobId].client */\n      0xffffffffffffffffffffffffffffffffffffffff\n      and\n        /* \"TrustGigEscrow.sol\":1250:1260  msg.sender */\n      caller\n        /* \"TrustGigEscrow.sol\":1250:1283  msg.sender == jobs[_jobId].client */\n      0xffffffffffffffffffffffffffffffffffffffff\n      and\n      eq\n        /* \"TrustGigEscrow.sol\":1242:1302  require(msg.sender == jobs[_jobId].client, \"Not job client\") */\n      tag_113\n      jumpi\n      mload(0x40)\n      0x08c379a000000000000000000000000000000000000000000000000000000000\n      dup2\n      mstore\n      0x04\n      add\n      tag_114\n      swap1\n      tag_95\n      jump\t// in\n    tag_114:\n      mload(0x40)\n      dup1\n      swap2\n      sub\n      swap1\n      revert\n    tag_113:\n        /* \"TrustGigEscrow.sol\":2621:2627  _jobId */\n      dup2\n        /* \"TrustGigEscrow.sol\":2629:2645  JobState.Created */\n      0x00\n        /* \"TrustGigEscrow.sol\":1715:1721  _state */\n      dup1\n        /* \"TrustGigEscrow.sol\":1693:1721  jobs[_jobId].state == _state */\n      0x05\n      dup2\n      gt\n      iszero\n      tag_116\n      jumpi\n      tag_117\n      tag_63\n      jump\t// in\n    tag_117:\n    tag_116:\n        /* \"TrustGigEscrow.sol\":1693:1697  jobs */\n      0x01\n        /* \"TrustGigEscrow.sol\":1693:1705  jobs[_jobId] */\n      0x00\n        /* \"TrustGigEscrow.sol\":1698:1704  _jobId */\n      dup5\n        /* \"TrustGigEscrow.sol\":1693:1705  jobs[_jobId] */\n      dup2\n      mstore\n      0x20\n      add\n      swap1\n      dup2\n      mstore\n      0x20\n      add\n      0x00\n      keccak256\n        /* \"TrustGigEscrow.sol\":1693:1711  jobs[_jobId].state */\n      0x04\n      add\n      0x00\n      swap1\n      sload\n      swap1\n      0x0100\n      exp\n      swap1\n      div\n      0xff\n      and\n        /* \"TrustGigEscrow.sol\":1693:1721  jobs[_jobId].state == _state */\n      0x05\n      dup2\n      gt\n      iszero\n      tag_118\n      jumpi\n      tag_119\n      tag_63\n      jump\t// in\n    tag_119:\n    tag_118:\n      eq\n        /* \"TrustGigEscrow.sol\":1685:1743  require(jobs[_jobId].state == _state, \"Invalid job state\") */\n      tag_120\n      jumpi\n      mload(0x40)\n      0x08c379a000000000000000000000000000000000000000000000000000000000\n      dup2\n      mstore\n      0x04\n      add\n      tag_121\n      swap1\n      tag_68\n      jump\t// in\n    tag_121:\n      mload(0x40)\n      dup1\n      swap2\n      sub\n      swap1\n      revert\n    tag_120:\n        /* \"TrustGigEscrow.sol\":2663:2678  Job storage job */\n      0x00\n        /* \"TrustGigEscrow.sol\":2681:2685  jobs */\n      0x01\n        /* \"TrustGigEscrow.sol\":2681:2693  jobs[_jobId] */\n      0x00\n        /* \"TrustGigEscrow.sol\":2686:2692  _jobId */\n      dup7\n        /* \"TrustGigEscrow.sol\":2681:2693  jobs[_jobId] */\n      dup2\n      mstore\n      0x20\n      add\n      swap1\n      dup2\n      mstore\n      0x20\n      add\n      0x00\n      keccak256\n        /* \"TrustGigEscrow.sol\":2663:2693  Job storage job = jobs[_jobId] */\n      swap1\n      pop\n        /* \"TrustGigEscrow.sol\":2725:2728  job */\n      dup1\n        /* \"TrustGigEscrow.sol\":2725:2735  job.amount */\n      0x03\n      add\n      sload\n        /* \"TrustGigEscrow.sol\":2712:2721  msg.value */\n      callvalue\n        /* \"TrustGigEscrow.sol\":2712:2735  msg.value == job.amount */\n      eq\n        /* \"TrustGigEscrow.sol\":2704:2764  require(msg.value == job.amount, \"Incorrect funding amount\") */\n      tag_123\n      jumpi\n      mload(0x40)\n      0x08c379a000000000000000000000000000000000000000000000000000000000\n      dup2\n      mstore\n      0x04\n      add\n      tag_124\n      swap1\n      tag_125\n      jump\t// in\n    tag_124:\n      mload(0x40)\n      dup1\n      swap2\n      sub\n      swap1\n      revert\n    tag_123:\n        /* \"TrustGigEscrow.sol\":2789:2804  JobState.Funded */\n      0x01\n        /* \"TrustGigEscrow.sol\":2777:2780  job */\n      dup2\n        /* \"TrustGigEscrow.sol\":2777:2786  job.state */\n      0x04\n      add\n      0x00\n        /* \"TrustGigEscrow.sol\":2777:2804  job.state = JobState.Funded */\n      0x0100\n      exp\n      dup2\n      sload\n      dup2\n      0xff\n      mul\n      not\n      and\n      swap1\n      dup4\n      0x05\n      dup2\n      gt\n      iszero\n      tag_126\n      jumpi\n      tag_127\n      tag_63\n      jump\t// in\n    tag_127:\n    tag_126:\n      mul\n      or\n      swap1\n      sstore\n      pop\n        /* \"TrustGigEscrow.sol\":2832:2838  _jobId */\n      dup5\n        /* \"TrustGigEscrow.sol\":2822:2850  JobFunded(_jobId, msg.value) */\n      0x9d25c5cf940eed311c45e5a0b4c7c8790a356d3c356453b76bb7e232db3f384a\n        /* \"TrustGigEscrow.sol\":2840:2849  msg.value */\n      callvalue\n        /* \"TrustGigEscrow.sol\":2822:2850  JobFunded(_jobId, msg.value) */\n      mload(0x40)\n      tag_128\n      swap2\n      swap1\n      tag_39\n      jump\t// in\n    tag_128:\n      mload(0x40)\n      dup1\n      swap2\n      sub\n      swap1\n      log2\n        /* \"TrustGigEscrow.sol\":2652:2858  {... */\n      pop\n        /* \"TrustGigEscrow.sol\":1313:1314  _ */\n      pop\n      pop\n        /* \"TrustGigEscrow.sol\":2508:2858  function fundJob(uint256 _jobId)... */\n      pop\n      pop\n      jump\t// out\n        /* \"TrustGigEscrow.sol\":3622:4004  function raiseDispute(uint256 _jobId)... */\n    tag_34:\n        /* \"TrustGigEscrow.sol\":3695:3701  _jobId */\n      dup1\n        /* \"TrustGigEscrow.sol\":3703:3725  JobState.WorkSubmitted */\n      0x02\n        /* \"TrustGigEscrow.sol\":1715:1721  _state */\n      dup1\n        /* \"TrustGigEscrow.sol\":1693:1721  jobs[_jobId].state == _state */\n      0x05\n      dup2\n      gt\n      iszero\n      tag_130\n      jumpi\n      tag_131\n      tag_63\n      jump\t// in\n    tag_131:\n    tag_130:\n        /* \"TrustGigEscrow.sol\":1693:1697  jobs */\n      0x01\n        /* \"TrustGigEscrow.sol\":1693:1705  jobs[_jobId] */\n      0x00\n        /* \"TrustGigEscrow.sol\":1698:1704  _jobId */\n      dup5\n        /* \"TrustGigEscrow.sol\":1693:1705  jobs[_jobId] */\n      dup2\n      mstore\n      0x20\n      add\n      swap1\n      dup2\n      mstore\n      0x20\n      add\n      0x00\n      keccak256\n        /* \"TrustGigEscrow.sol\":1693:1711  jobs[_jobId].state */\n      0x04\n      add\n      0x00\n      swap1\n      sload\n      swap1\n      0x0100\n      exp\n      swap1\n      div\n      0xff\n      and\n        /* \"TrustGigEscrow.sol\":1693:1721  jobs[_jobId].state == _state */\n      0x05\n      dup2\n      gt\n      iszero\n      tag_132\n      jumpi\n      tag_133\n      tag_63\n      jump\t// in\n    tag_133:\n    tag_132:\n      eq\n        /* \"TrustGigEscrow.sol\":1685:1743  require(jobs[_jobId].state == _state, \"Invalid job state\") */\n      tag_134\n      jumpi\n      mload(0x40)\n      0x08c379a000000000000000000000000000000000000000000000000000000000\n      dup2\n      mstore\n      0x04\n      add\n      tag_135\n      swap1\n      tag_68\n      jump\t// in\n    tag_135:\n      mload(0x40)\n      dup1\n      swap2\n      sub\n      swap1\n      revert\n    tag_134:\n        /* \"TrustGigEscrow.sol\":3743:3758  Job storage job */\n      0x00\n        /* \"TrustGigEscrow.sol\":3761:3765  jobs */\n      0x01\n        /* \"TrustGigEscrow.sol\":3761:3773  jobs[_jobId] */\n      0x00\n        /* \"TrustGigEscrow.sol\":3766:3772  _jobId */\n      dup6\n        /* \"TrustGigEscrow.sol\":3761:3773  jobs[_jobId] */\n      dup2\n      mstore\n      0x20\n      add\n      swap1\n      dup2\n      mstore\n      0x20\n      add\n      0x00\n      keccak256\n        /* \"TrustGigEscrow.sol\":3743:3773  Job storage job = jobs[_jobId] */\n      swap1\n      pop\n        /* \"TrustGigEscrow.sol\":3820:3823  job */\n      dup1\n        /* \"TrustGigEscrow.sol\":3820:3830  job.client */\n      0x00\n      add\n      0x00\n      swap1\n      sload\n      swap1\n      0x0100\n      exp\n      swap1\n      div\n      0xffffffffffffffffffffffffffffffffffffffff\n      and\n        /* \"TrustGigEscrow.sol\":3806:3830  msg.sender == job.client */\n      0xffffffffffffffffffffffffffffffffffffffff\n      and\n        /* \"TrustGigEscrow.sol\":3806:3816  msg.sender */\n      caller\n        /* \"TrustGigEscrow.sol\":3806:3830  msg.sender == job.client */\n      0xffffffffffffffffffffffffffffffffffffffff\n      and\n      eq\n        /* \"TrustGigEscrow.sol\":3806:3862  msg.sender == job.client || msg.sender == job.freelancer */\n      dup1\n      tag_137\n      jumpi\n      pop\n        /* \"TrustGigEscrow.sol\":3848:3851  job */\n      dup1\n        /* \"TrustGigEscrow.sol\":3848:3862  job.freelancer */\n      0x01\n      add\n      0x00\n      swap1\n      sload\n      swap1\n      0x0100\n      exp\n      swap1\n      div\n      0xffffffffffffffffffffffffffffffffffffffff\n      and\n        /* \"TrustGigEscrow.sol\":3834:3862  msg.sender == job.freelancer */\n      0xffffffffffffffffffffffffffffffffffffffff\n      and\n        /* \"TrustGigEscrow.sol\":3834:3844  msg.sender */\n      caller\n        /* \"TrustGigEscrow.sol\":3834:3862  msg.sender == job.freelancer */\n      0xffffffffffffffffffffffffffffffffffffffff\n      and\n      eq\n        /* \"TrustGigEscrow.sol\":3806:3862  msg.sender == job.client || msg.sender == job.freelancer */\n    tag_137:\n        /* \"TrustGigEscrow.sol\":3784:3915  require(... */\n      tag_138\n      jumpi\n      mload(0x40)\n      0x08c379a000000000000000000000000000000000000000000000000000000000\n      dup2\n      mstore\n      0x04\n      add\n      tag_139\n      swap1\n      tag_140\n      jump\t// in\n    tag_139:\n      mload(0x40)\n      dup1\n      swap2\n      sub\n      swap1\n      revert\n    tag_138:\n        /* \"TrustGigEscrow.sol\":3940:3957  JobState.Disputed */\n      0x04\n        /* \"TrustGigEscrow.sol\":3928:3931  job */\n      dup2\n        /* \"TrustGigEscrow.sol\":3928:3937  job.state */\n      0x04\n      add\n      0x00\n        /* \"TrustGigEscrow.sol\":3928:3957  job.state = JobState.Disputed */\n      0x0100\n      exp\n      dup2\n      sload\n      dup2\n      0xff\n      mul\n      not\n      and\n      swap1\n      dup4\n      0x05\n      dup2\n      gt\n      iszero\n      tag_141\n      jumpi\n      tag_142\n      tag_63\n      jump\t// in\n    tag_142:\n    tag_141:\n      mul\n      or\n      swap1\n      sstore\n      pop\n        /* \"TrustGigEscrow.sol\":3989:3995  _jobId */\n      dup4\n        /* \"TrustGigEscrow.sol\":3975:3996  DisputeRaised(_jobId) */\n      0x04901f83201c8724eadf084436db8aa391820bae6d11f9f78a17edb6f2eef3cf\n      mload(0x40)\n      mload(0x40)\n      dup1\n      swap2\n      sub\n      swap1\n      log2\n        /* \"TrustGigEscrow.sol\":3732:4004  {... */\n      pop\n        /* \"TrustGigEscrow.sol\":3622:4004  function raiseDispute(uint256 _jobId)... */\n      pop\n      pop\n      pop\n      jump\t// out\n        /* \"TrustGigEscrow.sol\":634:658  uint256 public nextJobId */\n    tag_37:\n      sload(0x00)\n      dup2\n      jump\t// out\n        /* \"TrustGigEscrow.sol\":1771:2500  function createJob(... */\n    tag_44:\n        /* \"TrustGigEscrow.sol\":1901:1914  uint256 jobId */\n      0x00\n        /* \"TrustGigEscrow.sol\":1958:1959  0 */\n      dup1\n        /* \"TrustGigEscrow.sol\":1935:1960  _freelancer != address(0) */\n      0xffffffffffffffffffffffffffffffffffffffff\n      and\n        /* \"TrustGigEscrow.sol\":1935:1946  _freelancer */\n      dup5\n        /* \"TrustGigEscrow.sol\":1935:1960  _freelancer != address(0) */\n      0xffffffffffffffffffffffffffffffffffffffff\n      and\n      sub\n        /* \"TrustGigEscrow.sol\":1927:1984  require(_freelancer != address(0), \"Freelancer required\") */\n      tag_144\n      jumpi\n      mload(0x40)\n      0x08c379a000000000000000000000000000000000000000000000000000000000\n      dup2\n      mstore\n      0x04\n      add\n      tag_145\n      swap1\n      tag_146\n      jump\t// in\n    tag_145:\n      mload(0x40)\n      dup1\n      swap2\n      sub\n      swap1\n      revert\n    tag_144:\n        /* \"TrustGigEscrow.sol\":2026:2027  0 */\n      0x00\n        /* \"TrustGigEscrow.sol\":2003:2028  _arbitrator != address(0) */\n      0xffffffffffffffffffffffffffffffffffffffff\n      and\n        /* \"TrustGigEscrow.sol\":2003:2014  _arbitrator */\n      dup4\n        /* \"TrustGigEscrow.sol\":2003:2028  _arbitrator != address(0) */\n      0xffffffffffffffffffffffffffffffffffffffff\n      and\n      sub\n        /* \"TrustGigEscrow.sol\":1995:2052  require(_arbitrator != address(0), \"Arbitrator required\") */\n      tag_147\n      jumpi\n      mload(0x40)\n      0x08c379a000000000000000000000000000000000000000000000000000000000\n      dup2\n      mstore\n      0x04\n      add\n      tag_148\n      swap1\n      tag_149\n      jump\t// in\n    tag_148:\n      mload(0x40)\n      dup1\n      swap2\n      sub\n      swap1\n      revert\n    tag_147:\n        /* \"TrustGigEscrow.sol\":2081:2082  0 */\n      0x00\n        /* \"TrustGigEscrow.sol\":2071:2078  _amount */\n      dup3\n        /* \"TrustGigEscrow.sol\":2071:2082  _amount > 0 */\n      gt\n        /* \"TrustGigEscrow.sol\":2063:2105  require(_amount > 0, \"Amount must be > 0\") */\n      tag_150\n      jumpi\n      mload(0x40)\n      0x08c379a000000000000000000000000000000000000000000000000000000000\n      dup2\n      mstore\n      0x04\n      add\n      tag_151\n      swap1\n      tag_152\n      jump\t// in\n    tag_151:\n      mload(0x40)\n      dup1\n      swap2\n      sub\n      swap1\n      revert\n    tag_150:\n        /* \"TrustGigEscrow.sol\":2126:2135  nextJobId */\n      sload(0x00)\n        /* \"TrustGigEscrow.sol\":2118:2135  jobId = nextJobId */\n      swap1\n      pop\n        /* \"TrustGigEscrow.sol\":2146:2155  nextJobId */\n      0x00\n      dup1\n        /* \"TrustGigEscrow.sol\":2146:2157  nextJobId++ */\n      dup2\n      sload\n      dup1\n      swap3\n      swap2\n      swap1\n      tag_153\n      swap1\n      tag_154\n      jump\t// in\n    tag_153:\n      swap2\n      swap1\n      pop\n      sstore\n      pop\n        /* \"TrustGigEscrow.sol\":2184:2410  Job({... */\n      mload(0x40)\n      dup1\n      0xc0\n      add\n      0x40\n      mstore\n      dup1\n        /* \"TrustGigEscrow.sol\":2211:2221  msg.sender */\n      caller\n        /* \"TrustGigEscrow.sol\":2184:2410  Job({... */\n      0xffffffffffffffffffffffffffffffffffffffff\n      and\n      dup2\n      mstore\n      0x20\n      add\n        /* \"TrustGigEscrow.sol\":2248:2259  _freelancer */\n      dup6\n        /* \"TrustGigEscrow.sol\":2184:2410  Job({... */\n      0xffffffffffffffffffffffffffffffffffffffff\n      and\n      dup2\n      mstore\n      0x20\n      add\n        /* \"TrustGigEscrow.sol\":2286:2297  _arbitrator */\n      dup5\n        /* \"TrustGigEscrow.sol\":2184:2410  Job({... */\n      0xffffffffffffffffffffffffffffffffffffffff\n      and\n      dup2\n      mstore\n      0x20\n      add\n        /* \"TrustGigEscrow.sol\":2320:2327  _amount */\n      dup4\n        /* \"TrustGigEscrow.sol\":2184:2410  Job({... */\n      dup2\n      mstore\n      0x20\n      add\n        /* \"TrustGigEscrow.sol\":2349:2365  JobState.Created */\n      0x00\n        /* \"TrustGigEscrow.sol\":2184:2410  Job({... */\n      0x05\n      dup2\n      gt\n      iszero\n      tag_155\n      jumpi\n      tag_156\n      tag_63\n      jump\t// in\n    tag_156:\n    tag_155:\n      dup2\n      mstore\n      0x20\n      add\n      mload(0x40)\n      dup1\n      0x20\n      add\n      0x40\n      mstore\n      dup1\n      0x00\n      dup2\n      mstore\n      pop\n      dup2\n      mstore\n      pop\n        /* \"TrustGigEscrow.sol\":2170:2174  jobs */\n      0x01\n        /* \"TrustGigEscrow.sol\":2170:2181  jobs[jobId] */\n      0x00\n        /* \"TrustGigEscrow.sol\":2175:2180  jobId */\n      dup4\n        /* \"TrustGigEscrow.sol\":2170:2181  jobs[jobId] */\n      dup2\n      mstore\n      0x20\n      add\n      swap1\n      dup2\n      mstore\n      0x20\n      add\n      0x00\n      keccak256\n        /* \"TrustGigEscrow.sol\":2170:2410  jobs[jobId] = Job({... */\n      0x00\n      dup3\n      add\n      mload\n      dup2\n      0x00\n      add\n      exp(0x0100, 0x00)\n      dup2\n      sload\n      dup2\n      0xffffffffffffffffffffffffffffffffffffffff\n      mul\n      not\n      and\n      swap1\n      dup4\n      0xffffffffffffffffffffffffffffffffffffffff\n      and\n      mul\n      or\n      swap1\n      sstore\n      pop\n      0x20\n      dup3\n      add\n      mload\n      dup2\n      0x01\n      add\n      exp(0x0100, 0x00)\n      dup2\n      sload\n      dup2\n      0xffffffffffffffffffffffffffffffffffffffff\n      mul\n      not\n      and\n      swap1\n      dup4\n      0xffffffffffffffffffffffffffffffffffffffff\n      and\n      mul\n      or\n      swap1\n      sstore\n      pop\n      0x40\n      dup3\n      add\n      mload\n      dup2\n      0x02\n      add\n      exp(0x0100, 0x00)\n      dup2\n      sload\n      dup2\n      0xffffffffffffffffffffffffffffffffffffffff\n      mul\n      not\n      and\n      swap1\n      dup4\n      0xffffffffffffffffffffffffffffffffffffffff\n      and\n      mul\n      or\n      swap1\n      sstore\n      pop\n      0x60\n      dup3\n      add\n      mload\n      dup2\n      0x03\n      add\n      sstore\n      0x80\n      dup3\n      add\n      mload\n      dup2\n      0x04\n      add\n      exp(0x0100, 0x00)\n      dup2\n      sload\n      dup2\n      0xff\n      mul\n      not\n      and\n      swap1\n      dup4\n      0x05\n      dup2\n      gt\n      iszero\n      tag_157\n      jumpi\n      tag_158\n      tag_63\n      jump\t// in\n    tag_158:\n    tag_157:\n      mul\n      or\n      swap1\n      sstore\n      pop\n      0xa0\n      dup3\n      add\n      mload\n      dup2\n      0x05\n      add\n      swap1\n      dup2\n      tag_159\n      swap2\n      swap1\n      tag_160\n      jump\t// in\n    tag_159:\n      pop\n      swap1\n      pop\n      pop\n        /* \"TrustGigEscrow.sol\":2458:2469  _freelancer */\n      dup4\n        /* \"TrustGigEscrow.sol\":2428:2492  JobCreated(jobId, msg.sender, _freelancer, _arbitrator, _amount) */\n      0xffffffffffffffffffffffffffffffffffffffff\n      and\n        /* \"TrustGigEscrow.sol\":2446:2456  msg.sender */\n      caller\n        /* \"TrustGigEscrow.sol\":2428:2492  JobCreated(jobId, msg.sender, _freelancer, _arbitrator, _amount) */\n      0xffffffffffffffffffffffffffffffffffffffff\n      and\n        /* \"TrustGigEscrow.sol\":2439:2444  jobId */\n      dup3\n        /* \"TrustGigEscrow.sol\":2428:2492  JobCreated(jobId, msg.sender, _freelancer, _arbitrator, _amount) */\n      0xef137df1d007645178f3f70e5c306d8d0b84bb5c70cabda9bb0f8f3c71932a0f\n        /* \"TrustGigEscrow.sol\":2471:2482  _arbitrator */\n      dup7\n        /* \"TrustGigEscrow.sol\":2484:2491  _amount */\n      dup7\n        /* \"TrustGigEscrow.sol\":2428:2492  JobCreated(jobId, msg.sender, _freelancer, _arbitrator, _amount) */\n      mload(0x40)\n      tag_161\n      swap3\n      swap2\n      swap1\n      tag_162\n      jump\t// in\n    tag_161:\n      mload(0x40)\n      dup1\n      swap2\n      sub\n      swap1\n      log4\n        /* \"TrustGigEscrow.sol\":1771:2500  function createJob(... */\n      swap4\n      swap3\n      pop\n      pop\n      pop\n      jump\t// out\n        /* \"TrustGigEscrow.sol\":4569:5106  function getJob(uint256 _jobId)... */\n    tag_49:\n        /* \"TrustGigEscrow.sol\":4665:4679  address client */\n      0x00\n        /* \"TrustGigEscrow.sol\":4694:4712  address freelancer */\n      dup1\n        /* \"TrustGigEscrow.sol\":4727:4745  address arbitrator */\n      0x00\n        /* \"TrustGigEscrow.sol\":4760:4774  uint256 amount */\n      dup1\n        /* \"TrustGigEscrow.sol\":4789:4803  JobState state */\n      0x00\n        /* \"TrustGigEscrow.sol\":4818:4846  string memory workSubmission */\n      0x60\n        /* \"TrustGigEscrow.sol\":4874:4889  Job storage job */\n      0x00\n        /* \"TrustGigEscrow.sol\":4892:4896  jobs */\n      0x01\n        /* \"TrustGigEscrow.sol\":4892:4904  jobs[_jobId] */\n      0x00\n        /* \"TrustGigEscrow.sol\":4897:4903  _jobId */\n      dup10\n        /* \"TrustGigEscrow.sol\":4892:4904  jobs[_jobId] */\n      dup2\n      mstore\n      0x20\n      add\n      swap1\n      dup2\n      mstore\n      0x20\n      add\n      0x00\n      keccak256\n        /* \"TrustGigEscrow.sol\":4874:4904  Job storage job = jobs[_jobId] */\n      swap1\n      pop\n        /* \"TrustGigEscrow.sol\":4937:4940  job */\n      dup1\n        /* \"TrustGigEscrow.sol\":4937:4947  job.client */\n      0x00\n      add\n      0x00\n      swap1\n      sload\n      swap1\n      0x0100\n      exp\n      swap1\n      div\n      0xffffffffffffffffffffffffffffffffffffffff\n      and\n        /* \"TrustGigEscrow.sol\":4962:4965  job */\n      dup2\n        /* \"TrustGigEscrow.sol\":4962:4976  job.freelancer */\n      0x01\n      add\n      0x00\n      swap1\n      sload\n      swap1\n      0x0100\n      exp\n      swap1\n      div\n      0xffffffffffffffffffffffffffffffffffffffff\n      and\n        /* \"TrustGigEscrow.sol\":4991:4994  job */\n      dup3\n        /* \"TrustGigEscrow.sol\":4991:5005  job.arbitrator */\n      0x02\n      add\n      0x00\n      swap1\n      sload\n      swap1\n      0x0100\n      exp\n      swap1\n      div\n      0xffffffffffffffffffffffffffffffffffffffff\n      and\n        /* \"TrustGigEscrow.sol\":5020:5023  job */\n      dup4\n        /* \"TrustGigEscrow.sol\":5020:5030  job.amount */\n      0x03\n      add\n      sload\n        /* \"TrustGigEscrow.sol\":5045:5048  job */\n      dup5\n        /* \"TrustGigEscrow.sol\":5045:5054  job.state */\n      0x04\n      add\n      0x00\n      swap1\n      sload\n      swap1\n      0x0100\n      exp\n      swap1\n      div\n      0xff\n      and\n        /* \"TrustGigEscrow.sol\":5069:5072  job */\n      dup6\n        /* \"TrustGigEscrow.sol\":5069:5087  job.workSubmission */\n      0x05\n      add\n        /* \"TrustGigEscrow.sol\":4915:5098  return (... */\n      dup1\n      dup1\n      sload\n      tag_164\n      swap1\n      tag_87\n      jump\t// in\n    tag_164:\n      dup1\n      0x1f\n      add\n      0x20\n      dup1\n      swap2\n      div\n      mul\n      0x20\n      add\n      mload(0x40)\n      swap1\n      dup2\n      add\n      0x40\n      mstore\n      dup1\n      swap3\n      swap2\n      swap1\n      dup2\n      dup2\n      mstore\n      0x20\n      add\n      dup3\n      dup1\n      sload\n      tag_165\n      swap1\n      tag_87\n      jump\t// in\n    tag_165:\n      dup1\n      iszero\n      tag_166\n      jumpi\n      dup1\n      0x1f\n      lt\n      tag_167\n      jumpi\n      0x0100\n      dup1\n      dup4\n      sload\n      div\n      mul\n      dup4\n      mstore\n      swap2\n      0x20\n      add\n      swap2\n      jump(tag_166)\n    tag_167:\n      dup3\n      add\n      swap2\n      swap1\n      0x00\n      mstore\n      keccak256(0x00, 0x20)\n      swap1\n    tag_168:\n      dup2\n      sload\n      dup2\n      mstore\n      swap1\n      0x01\n      add\n      swap1\n      0x20\n      add\n      dup1\n      dup4\n      gt\n      tag_168\n      jumpi\n      dup3\n      swap1\n      sub\n      0x1f\n      and\n      dup3\n      add\n      swap2\n    tag_166:\n      pop\n      pop\n      pop\n      pop\n      pop\n      swap1\n      pop\n      swap7\n      pop\n      swap7\n      pop\n      swap7\n      pop\n      swap7\n      pop\n      swap7\n      pop\n      swap7\n      pop\n      pop\n        /* \"TrustGigEscrow.sol\":4569:5106  function getJob(uint256 _jobId)... */\n      swap2\n      swap4\n      swap6\n      pop\n      swap2\n      swap4\n      swap6\n      jump\t// out\n        /* \"TrustGigEscrow.sol\":2866:3229  function submitWork(uint256 _jobId, string calldata _workSubmission)... */\n    tag_55:\n        /* \"TrustGigEscrow.sol\":2977:2983  _jobId */\n      dup3\n        /* \"TrustGigEscrow.sol\":1403:1407  jobs */\n      0x01\n        /* \"TrustGigEscrow.sol\":1403:1415  jobs[_jobId] */\n      0x00\n        /* \"TrustGigEscrow.sol\":1408:1414  _jobId */\n      dup3\n        /* \"TrustGigEscrow.sol\":1403:1415  jobs[_jobId] */\n      dup2\n      mstore\n      0x20\n      add\n      swap1\n      dup2\n      mstore\n      0x20\n      add\n      0x00\n      keccak256\n        /* \"TrustGigEscrow.sol\":1403:1426  jobs[_jobId].freelancer */\n      0x01\n      add\n      0x00\n      swap1\n      sload\n      swap1\n      0x0100\n      exp\n      swap1\n      div\n      0xffffffffffffffffffffffffffffffffffffffff\n      and\n        /* \"TrustGigEscrow.sol\":1389:1426  msg.sender == jobs[_jobId].freelancer */\n      0xffffffffffffffffffffffffffffffffffffffff\n      and\n        /* \"TrustGigEscrow.sol\":1389:1399  msg.sender */\n      caller\n        /* \"TrustGigEscrow.sol\":1389:1426  msg.sender == jobs[_jobId].freelancer */\n      0xffffffffffffffffffffffffffffffffffffffff\n      and\n      eq\n        /* \"TrustGigEscrow.sol\":1381:1449  require(msg.sender == jobs[_jobId].freelancer, \"Not job freelancer\") */\n      tag_170\n      jumpi\n      mload(0x40)\n      0x08c379a000000000000000000000000000000000000000000000000000000000\n      dup2\n      mstore\n      0x04\n      add\n      tag_171\n      swap1\n      tag_172\n      jump\t// in\n    tag_171:\n      mload(0x40)\n      dup1\n      swap2\n      sub\n      swap1\n      revert\n    tag_170:\n        /* \"TrustGigEscrow.sol\":3002:3008  _jobId */\n      dup4\n        /* \"TrustGigEscrow.sol\":3010:3025  JobState.Funded */\n      0x01\n        /* \"TrustGigEscrow.sol\":1715:1721  _state */\n      dup1\n        /* \"TrustGigEscrow.sol\":1693:1721  jobs[_jobId].state == _state */\n      0x05\n      dup2\n      gt\n      iszero\n      tag_174\n      jumpi\n      tag_175\n      tag_63\n      jump\t// in\n    tag_175:\n    tag_174:\n        /* \"TrustGigEscrow.sol\":1693:1697  jobs */\n      0x01\n        /* \"TrustGigEscrow.sol\":1693:1705  jobs[_jobId] */\n      0x00\n        /* \"TrustGigEscrow.sol\":1698:1704  _jobId */\n      dup5\n        /* \"TrustGigEscrow.sol\":1693:1705  jobs[_jobId] */\n      dup2\n      mstore\n      0x20\n      add\n      swap1\n      dup2\n      mstore\n      0x20\n      add\n      0x00\n      keccak256\n        /* \"TrustGigEscrow.sol\":1693:1711  jobs[_jobId].state */\n      0x04\n      add\n      0x00\n      swap1\n      sload\n      swap1\n      0x0100\n      exp\n      swap1\n      div\n      0xff\n      and\n        /* \"TrustGigEscrow.sol\":1693:1721  jobs[_jobId].state == _state */\n      0x05\n      dup2\n      gt\n      iszero\n      tag_176\n      jumpi\n      tag_177\n      tag_63\n      jump\t// in\n    tag_177:\n    tag_176:\n      eq\n        /* \"TrustGigEscrow.sol\":1685:1743  require(jobs[_jobId].state == _state, \"Invalid job state\") */\n      tag_178\n      jumpi\n      mload(0x40)\n      0x08c379a000000000000000000000000000000000000000000000000000000000\n      dup2\n      mstore\n      0x04\n      add\n      tag_179\n      swap1\n      tag_68\n      jump\t// in\n    tag_179:\n      mload(0x40)\n      dup1\n      swap2\n      sub\n      swap1\n      revert\n    tag_178:\n        /* \"TrustGigEscrow.sol\":3043:3058  Job storage job */\n      0x00\n        /* \"TrustGigEscrow.sol\":3061:3065  jobs */\n      0x01\n        /* \"TrustGigEscrow.sol\":3061:3073  jobs[_jobId] */\n      0x00\n        /* \"TrustGigEscrow.sol\":3066:3072  _jobId */\n      dup9\n        /* \"TrustGigEscrow.sol\":3061:3073  jobs[_jobId] */\n      dup2\n      mstore\n      0x20\n      add\n      swap1\n      dup2\n      mstore\n      0x20\n      add\n      0x00\n      keccak256\n        /* \"TrustGigEscrow.sol\":3043:3073  Job storage job = jobs[_jobId] */\n      swap1\n      pop\n        /* \"TrustGigEscrow.sol\":3105:3120  _workSubmission */\n      dup6\n      dup6\n        /* \"TrustGigEscrow.sol\":3084:3087  job */\n      dup3\n        /* \"TrustGigEscrow.sol\":3084:3102  job.workSubmission */\n      0x05\n      add\n        /* \"TrustGigEscrow.sol\":3084:3120  job.workSubmission = _workSubmission */\n      swap2\n      dup3\n      tag_181\n      swap3\n      swap2\n      swap1\n      tag_182\n      jump\t// in\n    tag_181:\n      pop\n        /* \"TrustGigEscrow.sol\":3143:3165  JobState.WorkSubmitted */\n      0x02\n        /* \"TrustGigEscrow.sol\":3131:3134  job */\n      dup2\n        /* \"TrustGigEscrow.sol\":3131:3140  job.state */\n      0x04\n      add\n      0x00\n        /* \"TrustGigEscrow.sol\":3131:3165  job.state = JobState.WorkSubmitted */\n      0x0100\n      exp\n      dup2\n      sload\n      dup2\n      0xff\n      mul\n      not\n      and\n      swap1\n      dup4\n      0x05\n      dup2\n      gt\n      iszero\n      tag_183\n      jumpi\n      tag_184\n      tag_63\n      jump\t// in\n    tag_184:\n    tag_183:\n      mul\n      or\n      swap1\n      sstore\n      pop\n        /* \"TrustGigEscrow.sol\":3197:3203  _jobId */\n      dup7\n        /* \"TrustGigEscrow.sol\":3183:3221  WorkSubmitted(_jobId, _workSubmission) */\n      0x3822c71b106c7c1dabf7f076e68c9bd98c45d0cd0d073f4dcdaf422a0fe55847\n        /* \"TrustGigEscrow.sol\":3205:3220  _workSubmission */\n      dup8\n      dup8\n        /* \"TrustGigEscrow.sol\":3183:3221  WorkSubmitted(_jobId, _workSubmission) */\n      mload(0x40)\n      tag_185\n      swap3\n      swap2\n      swap1\n      tag_186\n      jump\t// in\n    tag_185:\n      mload(0x40)\n      dup1\n      swap2\n      sub\n      swap1\n      log2\n        /* \"TrustGigEscrow.sol\":3032:3229  {... */\n      pop\n        /* \"TrustGigEscrow.sol\":1460:1461  _ */\n      pop\n      pop\n        /* \"TrustGigEscrow.sol\":2866:3229  function submitWork(uint256 _jobId, string calldata _workSubmission)... */\n      pop\n      pop\n      pop\n      pop\n      jump\t// out\n        /* \"#utility.yul\":88:205   */\n    tag_188:\n        /* \"#utility.yul\":197:198   */\n      0x00\n        /* \"#utility.yul\":194:195   */\n      dup1\n        /* \"#utility.yul\":187:199   */\n      revert\n        /* \"#utility.yul\":211:328   */\n    tag_189:\n        /* \"#utility.yul\":320:321   */\n      0x00\n        /* \"#utility.yul\":317:318   */\n      dup1\n        /* \"#utility.yul\":310:322   */\n      revert\n        /* \"#utility.yul\":334:411   */\n    tag_190:\n        /* \"#utility.yul\":371:378   */\n      0x00\n        /* \"#utility.yul\":400:405   */\n      dup2\n        /* \"#utility.yul\":389:405   */\n      swap1\n      pop\n        /* \"#utility.yul\":334:411   */\n      swap2\n      swap1\n      pop\n      jump\t// out\n        /* \"#utility.yul\":417:539   */\n    tag_191:\n        /* \"#utility.yul\":490:514   */\n      tag_264\n        /* \"#utility.yul\":508:513   */\n      dup2\n        /* \"#utility.yul\":490:514   */\n      tag_190\n      jump\t// in\n    tag_264:\n        /* \"#utility.yul\":483:488   */\n      dup2\n        /* \"#utility.yul\":480:515   */\n      eq\n        /* \"#utility.yul\":470:533   */\n      tag_265\n      jumpi\n        /* \"#utility.yul\":529:530   */\n      0x00\n        /* \"#utility.yul\":526:527   */\n      dup1\n        /* \"#utility.yul\":519:531   */\n      revert\n        /* \"#utility.yul\":470:533   */\n    tag_265:\n        /* \"#utility.yul\":417:539   */\n      pop\n      jump\t// out\n        /* \"#utility.yul\":545:684   */\n    tag_192:\n        /* \"#utility.yul\":591:596   */\n      0x00\n        /* \"#utility.yul\":629:635   */\n      dup2\n        /* \"#utility.yul\":616:636   */\n      calldataload\n        /* \"#utility.yul\":607:636   */\n      swap1\n      pop\n        /* \"#utility.yul\":645:678   */\n      tag_267\n        /* \"#utility.yul\":672:677   */\n      dup2\n        /* \"#utility.yul\":645:678   */\n      tag_191\n      jump\t// in\n    tag_267:\n        /* \"#utility.yul\":545:684   */\n      swap3\n      swap2\n      pop\n      pop\n      jump\t// out\n        /* \"#utility.yul\":690:816   */\n    tag_193:\n        /* \"#utility.yul\":727:734   */\n      0x00\n        /* \"#utility.yul\":767:809   */\n      0xffffffffffffffffffffffffffffffffffffffff\n        /* \"#utility.yul\":760:765   */\n      dup3\n        /* \"#utility.yul\":756:810   */\n      and\n        /* \"#utility.yul\":745:810   */\n      swap1\n      pop\n        /* \"#utility.yul\":690:816   */\n      swap2\n      swap1\n      pop\n      jump\t// out\n        /* \"#utility.yul\":822:918   */\n    tag_194:\n        /* \"#utility.yul\":859:866   */\n      0x00\n        /* \"#utility.yul\":888:912   */\n      tag_270\n        /* \"#utility.yul\":906:911   */\n      dup3\n        /* \"#utility.yul\":888:912   */\n      tag_193\n      jump\t// in\n    tag_270:\n        /* \"#utility.yul\":877:912   */\n      swap1\n      pop\n        /* \"#utility.yul\":822:918   */\n      swap2\n      swap1\n      pop\n      jump\t// out\n        /* \"#utility.yul\":924:1046   */\n    tag_195:\n        /* \"#utility.yul\":997:1021   */\n      tag_272\n        /* \"#utility.yul\":1015:1020   */\n      dup2\n        /* \"#utility.yul\":997:1021   */\n      tag_194\n      jump\t// in\n    tag_272:\n        /* \"#utility.yul\":990:995   */\n      dup2\n        /* \"#utility.yul\":987:1022   */\n      eq\n        /* \"#utility.yul\":977:1040   */\n      tag_273\n      jumpi\n        /* \"#utility.yul\":1036:1037   */\n      0x00\n        /* \"#utility.yul\":1033:1034   */\n      dup1\n        /* \"#utility.yul\":1026:1038   */\n      revert\n        /* \"#utility.yul\":977:1040   */\n    tag_273:\n        /* \"#utility.yul\":924:1046   */\n      pop\n      jump\t// out\n        /* \"#utility.yul\":1052:1191   */\n    tag_196:\n        /* \"#utility.yul\":1098:1103   */\n      0x00\n        /* \"#utility.yul\":1136:1142   */\n      dup2\n        /* \"#utility.yul\":1123:1143   */\n      calldataload\n        /* \"#utility.yul\":1114:1143   */\n      swap1\n      pop\n        /* \"#utility.yul\":1152:1185   */\n      tag_275\n        /* \"#utility.yul\":1179:1184   */\n      dup2\n        /* \"#utility.yul\":1152:1185   */\n      tag_195\n      jump\t// in\n    tag_275:\n        /* \"#utility.yul\":1052:1191   */\n      swap3\n      swap2\n      pop\n      pop\n      jump\t// out\n        /* \"#utility.yul\":1197:1671   */\n    tag_15:\n        /* \"#utility.yul\":1265:1271   */\n      0x00\n        /* \"#utility.yul\":1273:1279   */\n      dup1\n        /* \"#utility.yul\":1322:1324   */\n      0x40\n        /* \"#utility.yul\":1310:1319   */\n      dup4\n        /* \"#utility.yul\":1301:1308   */\n      dup6\n        /* \"#utility.yul\":1297:1320   */\n      sub\n        /* \"#utility.yul\":1293:1325   */\n      slt\n        /* \"#utility.yul\":1290:1409   */\n      iszero\n      tag_277\n      jumpi\n        /* \"#utility.yul\":1328:1407   */\n      tag_278\n      tag_188\n      jump\t// in\n    tag_278:\n        /* \"#utility.yul\":1290:1409   */\n    tag_277:\n        /* \"#utility.yul\":1448:1449   */\n      0x00\n        /* \"#utility.yul\":1473:1526   */\n      tag_279\n        /* \"#utility.yul\":1518:1525   */\n      dup6\n        /* \"#utility.yul\":1509:1515   */\n      dup3\n        /* \"#utility.yul\":1498:1507   */\n      dup7\n        /* \"#utility.yul\":1494:1516   */\n      add\n        /* \"#utility.yul\":1473:1526   */\n      tag_192\n      jump\t// in\n    tag_279:\n        /* \"#utility.yul\":1463:1526   */\n      swap3\n      pop\n        /* \"#utility.yul\":1419:1536   */\n      pop\n        /* \"#utility.yul\":1575:1577   */\n      0x20\n        /* \"#utility.yul\":1601:1654   */\n      tag_280\n        /* \"#utility.yul\":1646:1653   */\n      dup6\n        /* \"#utility.yul\":1637:1643   */\n      dup3\n        /* \"#utility.yul\":1626:1635   */\n      dup7\n        /* \"#utility.yul\":1622:1644   */\n      add\n        /* \"#utility.yul\":1601:1654   */\n      tag_196\n      jump\t// in\n    tag_280:\n        /* \"#utility.yul\":1591:1654   */\n      swap2\n      pop\n        /* \"#utility.yul\":1546:1664   */\n      pop\n        /* \"#utility.yul\":1197:1671   */\n      swap3\n      pop\n      swap3\n      swap1\n      pop\n      jump\t// out\n        /* \"#utility.yul\":1677:2006   */\n    tag_20:\n        /* \"#utility.yul\":1736:1742   */\n      0x00\n        /* \"#utility.yul\":1785:1787   */\n      0x20\n        /* \"#utility.yul\":1773:1782   */\n      dup3\n        /* \"#utility.yul\":1764:1771   */\n      dup5\n        /* \"#utility.yul\":1760:1783   */\n      sub\n        /* \"#utility.yul\":1756:1788   */\n      slt\n        /* \"#utility.yul\":1753:1872   */\n      iszero\n      tag_282\n      jumpi\n        /* \"#utility.yul\":1791:1870   */\n      tag_283\n      tag_188\n      jump\t// in\n    tag_283:\n        /* \"#utility.yul\":1753:1872   */\n    tag_282:\n        /* \"#utility.yul\":1911:1912   */\n      0x00\n        /* \"#utility.yul\":1936:1989   */\n      tag_284\n        /* \"#utility.yul\":1981:1988   */\n      dup5\n        /* \"#utility.yul\":1972:1978   */\n      dup3\n        /* \"#utility.yul\":1961:1970   */\n      dup6\n        /* \"#utility.yul\":1957:1979   */\n      add\n        /* \"#utility.yul\":1936:1989   */\n      tag_192\n      jump\t// in\n    tag_284:\n        /* \"#utility.yul\":1926:1989   */\n      swap2\n      pop\n        /* \"#utility.yul\":1882:1999   */\n      pop\n        /* \"#utility.yul\":1677:2006   */\n      swap3\n      swap2\n      pop\n      pop\n      jump\t// out\n        /* \"#utility.yul\":2012:2130   */\n    tag_197:\n        /* \"#utility.yul\":2099:2123   */\n      tag_286\n        /* \"#utility.yul\":2117:2122   */\n      dup2\n        /* \"#utility.yul\":2099:2123   */\n      tag_194\n      jump\t// in\n    tag_286:\n        /* \"#utility.yul\":2094:2097   */\n      dup3\n        /* \"#utility.yul\":2087:2124   */\n      mstore\n        /* \"#utility.yul\":2012:2130   */\n      pop\n      pop\n      jump\t// out\n        /* \"#utility.yul\":2136:2254   */\n    tag_198:\n        /* \"#utility.yul\":2223:2247   */\n      tag_288\n        /* \"#utility.yul\":2241:2246   */\n      dup2\n        /* \"#utility.yul\":2223:2247   */\n      tag_190\n      jump\t// in\n    tag_288:\n        /* \"#utility.yul\":2218:2221   */\n      dup3\n        /* \"#utility.yul\":2211:2248   */\n      mstore\n        /* \"#utility.yul\":2136:2254   */\n      pop\n      pop\n      jump\t// out\n        /* \"#utility.yul\":2260:2440   */\n    tag_63:\n        /* \"#utility.yul\":2308:2385   */\n      0x4e487b7100000000000000000000000000000000000000000000000000000000\n        /* \"#utility.yul\":2305:2306   */\n      0x00\n        /* \"#utility.yul\":2298:2386   */\n      mstore\n        /* \"#utility.yul\":2405:2409   */\n      0x21\n        /* \"#utility.yul\":2402:2403   */\n      0x04\n        /* \"#utility.yul\":2395:2410   */\n      mstore\n        /* \"#utility.yul\":2429:2433   */\n      0x24\n        /* \"#utility.yul\":2426:2427   */\n      0x00\n        /* \"#utility.yul\":2419:2434   */\n      revert\n        /* \"#utility.yul\":2446:2561   */\n    tag_199:\n        /* \"#utility.yul\":2529:2530   */\n      0x06\n        /* \"#utility.yul\":2522:2527   */\n      dup2\n        /* \"#utility.yul\":2519:2531   */\n      lt\n        /* \"#utility.yul\":2509:2555   */\n      tag_291\n      jumpi\n        /* \"#utility.yul\":2535:2553   */\n      tag_292\n      tag_63\n      jump\t// in\n    tag_292:\n        /* \"#utility.yul\":2509:2555   */\n    tag_291:\n        /* \"#utility.yul\":2446:2561   */\n      pop\n      jump\t// out\n        /* \"#utility.yul\":2567:2698   */\n    tag_200:\n        /* \"#utility.yul\":2614:2621   */\n      0x00\n        /* \"#utility.yul\":2643:2648   */\n      dup2\n        /* \"#utility.yul\":2632:2648   */\n      swap1\n      pop\n        /* \"#utility.yul\":2649:2692   */\n      tag_294\n        /* \"#utility.yul\":2686:2691   */\n      dup3\n        /* \"#utility.yul\":2649:2692   */\n      tag_199\n      jump\t// in\n    tag_294:\n        /* \"#utility.yul\":2567:2698   */\n      swap2\n      swap1\n      pop\n      jump\t// out\n        /* \"#utility.yul\":2704:2835   */\n    tag_201:\n        /* \"#utility.yul\":2762:2771   */\n      0x00\n        /* \"#utility.yul\":2795:2829   */\n      tag_296\n        /* \"#utility.yul\":2823:2828   */\n      dup3\n        /* \"#utility.yul\":2795:2829   */\n      tag_200\n      jump\t// in\n    tag_296:\n        /* \"#utility.yul\":2782:2829   */\n      swap1\n      pop\n        /* \"#utility.yul\":2704:2835   */\n      swap2\n      swap1\n      pop\n      jump\t// out\n        /* \"#utility.yul\":2841:2988   */\n    tag_202:\n        /* \"#utility.yul\":2936:2981   */\n      tag_298\n        /* \"#utility.yul\":2975:2980   */\n      dup2\n        /* \"#utility.yul\":2936:2981   */\n      tag_201\n      jump\t// in\n    tag_298:\n        /* \"#utility.yul\":2931:2934   */\n      dup3\n        /* \"#utility.yul\":2924:2982   */\n      mstore\n        /* \"#utility.yul\":2841:2988   */\n      pop\n      pop\n      jump\t// out\n        /* \"#utility.yul\":2994:3093   */\n    tag_203:\n        /* \"#utility.yul\":3046:3052   */\n      0x00\n        /* \"#utility.yul\":3080:3085   */\n      dup2\n        /* \"#utility.yul\":3074:3086   */\n      mload\n        /* \"#utility.yul\":3064:3086   */\n      swap1\n      pop\n        /* \"#utility.yul\":2994:3093   */\n      swap2\n      swap1\n      pop\n      jump\t// out\n        /* \"#utility.yul\":3099:3268   */\n    tag_204:\n        /* \"#utility.yul\":3183:3194   */\n      0x00\n        /* \"#utility.yul\":3217:3223   */\n      dup3\n        /* \"#utility.yul\":3212:3215   */\n      dup3\n        /* \"#utility.yul\":3205:3224   */\n      mstore\n        /* \"#utility.yul\":3257:3261   */\n      0x20\n        /* \"#utility.yul\":3252:3255   */\n      dup3\n        /* \"#utility.yul\":3248:3262   */\n      add\n        /* \"#utility.yul\":3233:3262   */\n      swap1\n      pop\n        /* \"#utility.yul\":3099:3268   */\n      swap3\n      swap2\n      pop\n      pop\n      jump\t// out\n        /* \"#utility.yul\":3274:3522   */\n    tag_205:\n        /* \"#utility.yul\":3356:3357   */\n      0x00\n        /* \"#utility.yul\":3366:3479   */\n    tag_302:\n        /* \"#utility.yul\":3380:3386   */\n      dup4\n        /* \"#utility.yul\":3377:3378   */\n      dup2\n        /* \"#utility.yul\":3374:3387   */\n      lt\n        /* \"#utility.yul\":3366:3479   */\n      iszero\n      tag_304\n      jumpi\n        /* \"#utility.yul\":3465:3466   */\n      dup1\n        /* \"#utility.yul\":3460:3463   */\n      dup3\n        /* \"#utility.yul\":3456:3467   */\n      add\n        /* \"#utility.yul\":3450:3468   */\n      mload\n        /* \"#utility.yul\":3446:3447   */\n      dup2\n        /* \"#utility.yul\":3441:3444   */\n      dup5\n        /* \"#utility.yul\":3437:3448   */\n      add\n        /* \"#utility.yul\":3430:3469   */\n      mstore\n        /* \"#utility.yul\":3402:3404   */\n      0x20\n        /* \"#utility.yul\":3399:3400   */\n      dup2\n        /* \"#utility.yul\":3395:3405   */\n      add\n        /* \"#utility.yul\":3390:3405   */\n      swap1\n      pop\n        /* \"#utility.yul\":3366:3479   */\n      jump(tag_302)\n    tag_304:\n        /* \"#utility.yul\":3513:3514   */\n      0x00\n        /* \"#utility.yul\":3504:3510   */\n      dup5\n        /* \"#utility.yul\":3499:3502   */\n      dup5\n        /* \"#utility.yul\":3495:3511   */\n      add\n        /* \"#utility.yul\":3488:3515   */\n      mstore\n        /* \"#utility.yul\":3336:3522   */\n      pop\n        /* \"#utility.yul\":3274:3522   */\n      pop\n      pop\n      pop\n      jump\t// out\n        /* \"#utility.yul\":3528:3630   */\n    tag_206:\n        /* \"#utility.yul\":3569:3575   */\n      0x00\n        /* \"#utility.yul\":3620:3622   */\n      0x1f\n        /* \"#utility.yul\":3616:3623   */\n      not\n        /* \"#utility.yul\":3611:3613   */\n      0x1f\n        /* \"#utility.yul\":3604:3609   */\n      dup4\n        /* \"#utility.yul\":3600:3614   */\n      add\n        /* \"#utility.yul\":3596:3624   */\n      and\n        /* \"#utility.yul\":3586:3624   */\n      swap1\n      pop\n        /* \"#utility.yul\":3528:3630   */\n      swap2\n      swap1\n      pop\n      jump\t// out\n        /* \"#utility.yul\":3636:4013   */\n    tag_207:\n        /* \"#utility.yul\":3724:3727   */\n      0x00\n        /* \"#utility.yul\":3752:3791   */\n      tag_307\n        /* \"#utility.yul\":3785:3790   */\n      dup3\n        /* \"#utility.yul\":3752:3791   */\n      tag_203\n      jump\t// in\n    tag_307:\n        /* \"#utility.yul\":3807:3878   */\n      tag_308\n        /* \"#utility.yul\":3871:3877   */\n      dup2\n        /* \"#utility.yul\":3866:3869   */\n      dup6\n        /* \"#utility.yul\":3807:3878   */\n      tag_204\n      jump\t// in\n    tag_308:\n        /* \"#utility.yul\":3800:3878   */\n      swap4\n      pop\n        /* \"#utility.yul\":3887:3952   */\n      tag_309\n        /* \"#utility.yul\":3945:3951   */\n      dup2\n        /* \"#utility.yul\":3940:3943   */\n      dup6\n        /* \"#utility.yul\":3933:3937   */\n      0x20\n        /* \"#utility.yul\":3926:3931   */\n      dup7\n        /* \"#utility.yul\":3922:3938   */\n      add\n        /* \"#utility.yul\":3887:3952   */\n      tag_205\n      jump\t// in\n    tag_309:\n        /* \"#utility.yul\":3977:4006   */\n      tag_310\n        /* \"#utility.yul\":3999:4005   */\n      dup2\n        /* \"#utility.yul\":3977:4006   */\n      tag_206\n      jump\t// in\n    tag_310:\n        /* \"#utility.yul\":3972:3975   */\n      dup5\n        /* \"#utility.yul\":3968:4007   */\n      add\n        /* \"#utility.yul\":3961:4007   */\n      swap2\n      pop\n        /* \"#utility.yul\":3728:4013   */\n      pop\n        /* \"#utility.yul\":3636:4013   */\n      swap3\n      swap2\n      pop\n      pop\n      jump\t// out\n        /* \"#utility.yul\":4019:4901   */\n    tag_23:\n        /* \"#utility.yul\":4280:4284   */\n      0x00\n        /* \"#utility.yul\":4318:4321   */\n      0xc0\n        /* \"#utility.yul\":4307:4316   */\n      dup3\n        /* \"#utility.yul\":4303:4322   */\n      add\n        /* \"#utility.yul\":4295:4322   */\n      swap1\n      pop\n        /* \"#utility.yul\":4332:4403   */\n      tag_312\n        /* \"#utility.yul\":4400:4401   */\n      0x00\n        /* \"#utility.yul\":4389:4398   */\n      dup4\n        /* \"#utility.yul\":4385:4402   */\n      add\n        /* \"#utility.yul\":4376:4382   */\n      dup10\n        /* \"#utility.yul\":4332:4403   */\n      tag_197\n      jump\t// in\n    tag_312:\n        /* \"#utility.yul\":4413:4485   */\n      tag_313\n        /* \"#utility.yul\":4481:4483   */\n      0x20\n        /* \"#utility.yul\":4470:4479   */\n      dup4\n        /* \"#utility.yul\":4466:4484   */\n      add\n        /* \"#utility.yul\":4457:4463   */\n      dup9\n        /* \"#utility.yul\":4413:4485   */\n      tag_197\n      jump\t// in\n    tag_313:\n        /* \"#utility.yul\":4495:4567   */\n      tag_314\n        /* \"#utility.yul\":4563:4565   */\n      0x40\n        /* \"#utility.yul\":4552:4561   */\n      dup4\n        /* \"#utility.yul\":4548:4566   */\n      add\n        /* \"#utility.yul\":4539:4545   */\n      dup8\n        /* \"#utility.yul\":4495:4567   */\n      tag_197\n      jump\t// in\n    tag_314:\n        /* \"#utility.yul\":4577:4649   */\n      tag_315\n        /* \"#utility.yul\":4645:4647   */\n      0x60\n        /* \"#utility.yul\":4634:4643   */\n      dup4\n        /* \"#utility.yul\":4630:4648   */\n      add\n        /* \"#utility.yul\":4621:4627   */\n      dup7\n        /* \"#utility.yul\":4577:4649   */\n      tag_198\n      jump\t// in\n    tag_315:\n        /* \"#utility.yul\":4659:4740   */\n      tag_316\n        /* \"#utility.yul\":4735:4738   */\n      0x80\n        /* \"#utility.yul\":4724:4733   */\n      dup4\n        /* \"#utility.yul\":4720:4739   */\n      add\n        /* \"#utility.yul\":4711:4717   */\n      dup6\n        /* \"#utility.yul\":4659:4740   */\n      tag_202\n      jump\t// in\n    tag_316:\n        /* \"#utility.yul\":4788:4797   */\n      dup2\n        /* \"#utility.yul\":4782:4786   */\n      dup2\n        /* \"#utility.yul\":4778:4798   */\n      sub\n        /* \"#utility.yul\":4772:4775   */\n      0xa0\n        /* \"#utility.yul\":4761:4770   */\n      dup4\n        /* \"#utility.yul\":4757:4776   */\n      add\n        /* \"#utility.yul\":4750:4799   */\n      mstore\n        /* \"#utility.yul\":4816:4894   */\n      tag_317\n        /* \"#utility.yul\":4889:4893   */\n      dup2\n        /* \"#utility.yul\":4880:4886   */\n      dup5\n        /* \"#utility.yul\":4816:4894   */\n      tag_207\n      jump\t// in\n    tag_317:\n        /* \"#utility.yul\":4808:4894   */\n      swap1\n      pop\n        /* \"#utility.yul\":4019:4901   */\n      swap8\n      swap7\n      pop\n      pop\n      pop\n      pop\n      pop\n      pop\n      pop\n      jump\t// out\n        /* \"#utility.yul\":4907:5129   */\n    tag_39:\n        /* \"#utility.yul\":5000:5004   */\n      0x00\n        /* \"#utility.yul\":5038:5040   */\n      0x20\n        /* \"#utility.yul\":5027:5036   */\n      dup3\n        /* \"#utility.yul\":5023:5041   */\n      add\n        /* \"#utility.yul\":5015:5041   */\n      swap1\n      pop\n        /* \"#utility.yul\":5051:5122   */\n      tag_319\n        /* \"#utility.yul\":5119:5120   */\n      0x00\n        /* \"#utility.yul\":5108:5117   */\n      dup4\n        /* \"#utility.yul\":5104:5121   */\n      add\n        /* \"#utility.yul\":5095:5101   */\n      dup5\n        /* \"#utility.yul\":5051:5122   */\n      tag_198\n      jump\t// in\n    tag_319:\n        /* \"#utility.yul\":4907:5129   */\n      swap3\n      swap2\n      pop\n      pop\n      jump\t// out\n        /* \"#utility.yul\":5135:5754   */\n    tag_43:\n        /* \"#utility.yul\":5212:5218   */\n      0x00\n        /* \"#utility.yul\":5220:5226   */\n      dup1\n        /* \"#utility.yul\":5228:5234   */\n      0x00\n        /* \"#utility.yul\":5277:5279   */\n      0x60\n        /* \"#utility.yul\":5265:5274   */\n      dup5\n        /* \"#utility.yul\":5256:5263   */\n      dup7\n        /* \"#utility.yul\":5252:5275   */\n      sub\n        /* \"#utility.yul\":5248:5280   */\n      slt\n        /* \"#utility.yul\":5245:5364   */\n      iszero\n      tag_321\n      jumpi\n        /* \"#utility.yul\":5283:5362   */\n      tag_322\n      tag_188\n      jump\t// in\n    tag_322:\n        /* \"#utility.yul\":5245:5364   */\n    tag_321:\n        /* \"#utility.yul\":5403:5404   */\n      0x00\n        /* \"#utility.yul\":5428:5481   */\n      tag_323\n        /* \"#utility.yul\":5473:5480   */\n      dup7\n        /* \"#utility.yul\":5464:5470   */\n      dup3\n        /* \"#utility.yul\":5453:5462   */\n      dup8\n        /* \"#utility.yul\":5449:5471   */\n      add\n        /* \"#utility.yul\":5428:5481   */\n      tag_196\n      jump\t// in\n    tag_323:\n        /* \"#utility.yul\":5418:5481   */\n      swap4\n      pop\n        /* \"#utility.yul\":5374:5491   */\n      pop\n        /* \"#utility.yul\":5530:5532   */\n      0x20\n        /* \"#utility.yul\":5556:5609   */\n      tag_324\n        /* \"#utility.yul\":5601:5608   */\n      dup7\n        /* \"#utility.yul\":5592:5598   */\n      dup3\n        /* \"#utility.yul\":5581:5590   */\n      dup8\n        /* \"#utility.yul\":5577:5599   */\n      add\n        /* \"#utility.yul\":5556:5609   */\n      tag_196\n      jump\t// in\n    tag_324:\n        /* \"#utility.yul\":5546:5609   */\n      swap3\n      pop\n        /* \"#utility.yul\":5501:5619   */\n      pop\n        /* \"#utility.yul\":5658:5660   */\n      0x40\n        /* \"#utility.yul\":5684:5737   */\n      tag_325\n        /* \"#utility.yul\":5729:5736   */\n      dup7\n        /* \"#utility.yul\":5720:5726   */\n      dup3\n        /* \"#utility.yul\":5709:5718   */\n      dup8\n        /* \"#utility.yul\":5705:5727   */\n      add\n        /* \"#utility.yul\":5684:5737   */\n      tag_192\n      jump\t// in\n    tag_325:\n        /* \"#utility.yul\":5674:5737   */\n      swap2\n      pop\n        /* \"#utility.yul\":5629:5747   */\n      pop\n        /* \"#utility.yul\":5135:5754   */\n      swap3\n      pop\n      swap3\n      pop\n      swap3\n      jump\t// out\n        /* \"#utility.yul\":5760:5877   */\n    tag_208:\n        /* \"#utility.yul\":5869:5870   */\n      0x00\n        /* \"#utility.yul\":5866:5867   */\n      dup1\n        /* \"#utility.yul\":5859:5871   */\n      revert\n        /* \"#utility.yul\":5883:6000   */\n    tag_209:\n        /* \"#utility.yul\":5992:5993   */\n      0x00\n        /* \"#utility.yul\":5989:5990   */\n      dup1\n        /* \"#utility.yul\":5982:5994   */\n      revert\n        /* \"#utility.yul\":6006:6123   */\n    tag_210:\n        /* \"#utility.yul\":6115:6116   */\n      0x00\n        /* \"#utility.yul\":6112:6113   */\n      dup1\n        /* \"#utility.yul\":6105:6117   */\n      revert\n        /* \"#utility.yul\":6143:6696   */\n    tag_211:\n        /* \"#utility.yul\":6201:6209   */\n      0x00\n        /* \"#utility.yul\":6211:6217   */\n      dup1\n        /* \"#utility.yul\":6261:6264   */\n      dup4\n        /* \"#utility.yul\":6254:6258   */\n      0x1f\n        /* \"#utility.yul\":6246:6252   */\n      dup5\n        /* \"#utility.yul\":6242:6259   */\n      add\n        /* \"#utility.yul\":6238:6265   */\n      slt\n        /* \"#utility.yul\":6228:6350   */\n      tag_330\n      jumpi\n        /* \"#utility.yul\":6269:6348   */\n      tag_331\n      tag_208\n      jump\t// in\n    tag_331:\n        /* \"#utility.yul\":6228:6350   */\n    tag_330:\n        /* \"#utility.yul\":6382:6388   */\n      dup3\n        /* \"#utility.yul\":6369:6389   */\n      calldataload\n        /* \"#utility.yul\":6359:6389   */\n      swap1\n      pop\n        /* \"#utility.yul\":6412:6430   */\n      0xffffffffffffffff\n        /* \"#utility.yul\":6404:6410   */\n      dup2\n        /* \"#utility.yul\":6401:6431   */\n      gt\n        /* \"#utility.yul\":6398:6515   */\n      iszero\n      tag_332\n      jumpi\n        /* \"#utility.yul\":6434:6513   */\n      tag_333\n      tag_209\n      jump\t// in\n    tag_333:\n        /* \"#utility.yul\":6398:6515   */\n    tag_332:\n        /* \"#utility.yul\":6548:6552   */\n      0x20\n        /* \"#utility.yul\":6540:6546   */\n      dup4\n        /* \"#utility.yul\":6536:6553   */\n      add\n        /* \"#utility.yul\":6524:6553   */\n      swap2\n      pop\n        /* \"#utility.yul\":6602:6605   */\n      dup4\n        /* \"#utility.yul\":6594:6598   */\n      0x01\n        /* \"#utility.yul\":6586:6592   */\n      dup3\n        /* \"#utility.yul\":6582:6599   */\n      mul\n        /* \"#utility.yul\":6572:6580   */\n      dup4\n        /* \"#utility.yul\":6568:6600   */\n      add\n        /* \"#utility.yul\":6565:6606   */\n      gt\n        /* \"#utility.yul\":6562:6690   */\n      iszero\n      tag_334\n      jumpi\n        /* \"#utility.yul\":6609:6688   */\n      tag_335\n      tag_210\n      jump\t// in\n    tag_335:\n        /* \"#utility.yul\":6562:6690   */\n    tag_334:\n        /* \"#utility.yul\":6143:6696   */\n      swap3\n      pop\n      swap3\n      swap1\n      pop\n      jump\t// out\n        /* \"#utility.yul\":6702:7376   */\n    tag_54:\n        /* \"#utility.yul\":6782:6788   */\n      0x00\n        /* \"#utility.yul\":6790:6796   */\n      dup1\n        /* \"#utility.yul\":6798:6804   */\n      0x00\n        /* \"#utility.yul\":6847:6849   */\n      0x40\n        /* \"#utility.yul\":6835:6844   */\n      dup5\n        /* \"#utility.yul\":6826:6833   */\n      dup7\n        /* \"#utility.yul\":6822:6845   */\n      sub\n        /* \"#utility.yul\":6818:6850   */\n      slt\n        /* \"#utility.yul\":6815:6934   */\n      iszero\n      tag_337\n      jumpi\n        /* \"#utility.yul\":6853:6932   */\n      tag_338\n      tag_188\n      jump\t// in\n    tag_338:\n        /* \"#utility.yul\":6815:6934   */\n    tag_337:\n        /* \"#utility.yul\":6973:6974   */\n      0x00\n        /* \"#utility.yul\":6998:7051   */\n      tag_339\n        /* \"#utility.yul\":7043:7050   */\n      dup7\n        /* \"#utility.yul\":7034:7040   */\n      dup3\n        /* \"#utility.yul\":7023:7032   */\n      dup8\n        /* \"#utility.yul\":7019:7041   */\n      add\n        /* \"#utility.yul\":6998:7051   */\n      tag_192\n      jump\t// in\n    tag_339:\n        /* \"#utility.yul\":6988:7051   */\n      swap4\n      pop\n        /* \"#utility.yul\":6944:7061   */\n      pop\n        /* \"#utility.yul\":7128:7130   */\n      0x20\n        /* \"#utility.yul\":7117:7126   */\n      dup5\n        /* \"#utility.yul\":7113:7131   */\n      add\n        /* \"#utility.yul\":7100:7132   */\n      calldataload\n        /* \"#utility.yul\":7159:7177   */\n      0xffffffffffffffff\n        /* \"#utility.yul\":7151:7157   */\n      dup2\n        /* \"#utility.yul\":7148:7178   */\n      gt\n        /* \"#utility.yul\":7145:7262   */\n      iszero\n      tag_340\n      jumpi\n        /* \"#utility.yul\":7181:7260   */\n      tag_341\n      tag_189\n      jump\t// in\n    tag_341:\n        /* \"#utility.yul\":7145:7262   */\n    tag_340:\n        /* \"#utility.yul\":7294:7359   */\n      tag_342\n        /* \"#utility.yul\":7351:7358   */\n      dup7\n        /* \"#utility.yul\":7342:7348   */\n      dup3\n        /* \"#utility.yul\":7331:7340   */\n      dup8\n        /* \"#utility.yul\":7327:7349   */\n      add\n        /* \"#utility.yul\":7294:7359   */\n      tag_211\n      jump\t// in\n    tag_342:\n        /* \"#utility.yul\":7276:7359   */\n      swap3\n      pop\n      swap3\n      pop\n        /* \"#utility.yul\":7071:7369   */\n      pop\n        /* \"#utility.yul\":6702:7376   */\n      swap3\n      pop\n      swap3\n      pop\n      swap3\n      jump\t// out\n        /* \"#utility.yul\":7382:7550   */\n    tag_212:\n        /* \"#utility.yul\":7522:7542   */\n      0x4e6f74206a6f622061726269747261746f720000000000000000000000000000\n        /* \"#utility.yul\":7518:7519   */\n      0x00\n        /* \"#utility.yul\":7510:7516   */\n      dup3\n        /* \"#utility.yul\":7506:7520   */\n      add\n        /* \"#utility.yul\":7499:7543   */\n      mstore\n        /* \"#utility.yul\":7382:7550   */\n      pop\n      jump\t// out\n        /* \"#utility.yul\":7556:7922   */\n    tag_213:\n        /* \"#utility.yul\":7698:7701   */\n      0x00\n        /* \"#utility.yul\":7719:7786   */\n      tag_345\n        /* \"#utility.yul\":7783:7785   */\n      0x12\n        /* \"#utility.yul\":7778:7781   */\n      dup4\n        /* \"#utility.yul\":7719:7786   */\n      tag_204\n      jump\t// in\n    tag_345:\n        /* \"#utility.yul\":7712:7786   */\n      swap2\n      pop\n        /* \"#utility.yul\":7795:7888   */\n      tag_346\n        /* \"#utility.yul\":7884:7887   */\n      dup3\n        /* \"#utility.yul\":7795:7888   */\n      tag_212\n      jump\t// in\n    tag_346:\n        /* \"#utility.yul\":7913:7915   */\n      0x20\n        /* \"#utility.yul\":7908:7911   */\n      dup3\n        /* \"#utility.yul\":7904:7916   */\n      add\n        /* \"#utility.yul\":7897:7916   */\n      swap1\n      pop\n        /* \"#utility.yul\":7556:7922   */\n      swap2\n      swap1\n      pop\n      jump\t// out\n        /* \"#utility.yul\":7928:8347   */\n    tag_59:\n        /* \"#utility.yul\":8094:8098   */\n      0x00\n        /* \"#utility.yul\":8132:8134   */\n      0x20\n        /* \"#utility.yul\":8121:8130   */\n      dup3\n        /* \"#utility.yul\":8117:8135   */\n      add\n        /* \"#utility.yul\":8109:8135   */\n      swap1\n      pop\n        /* \"#utility.yul\":8181:8190   */\n      dup2\n        /* \"#utility.yul\":8175:8179   */\n      dup2\n        /* \"#utility.yul\":8171:8191   */\n      sub\n        /* \"#utility.yul\":8167:8168   */\n      0x00\n        /* \"#utility.yul\":8156:8165   */\n      dup4\n        /* \"#utility.yul\":8152:8169   */\n      add\n        /* \"#utility.yul\":8145:8192   */\n      mstore\n        /* \"#utility.yul\":8209:8340   */\n      tag_348\n        /* \"#utility.yul\":8335:8339   */\n      dup2\n        /* \"#utility.yul\":8209:8340   */\n      tag_213\n      jump\t// in\n    tag_348:\n        /* \"#utility.yul\":8201:8340   */\n      swap1\n      pop\n        /* \"#utility.yul\":7928:8347   */\n      swap2\n      swap1\n      pop\n      jump\t// out\n        /* \"#utility.yul\":8353:8520   */\n    tag_214:\n        /* \"#utility.yul\":8493:8512   */\n      0x496e76616c6964206a6f62207374617465000000000000000000000000000000\n        /* \"#utility.yul\":8489:8490   */\n      0x00\n        /* \"#utility.yul\":8481:8487   */\n      dup3\n        /* \"#utility.yul\":8477:8491   */\n      add\n        /* \"#utility.yul\":8470:8513   */\n      mstore\n        /* \"#utility.yul\":8353:8520   */\n      pop\n      jump\t// out\n        /* \"#utility.yul\":8526:8892   */\n    tag_215:\n        /* \"#utility.yul\":8668:8671   */\n      0x00\n        /* \"#utility.yul\":8689:8756   */\n      tag_351\n        /* \"#utility.yul\":8753:8755   */\n      0x11\n        /* \"#utility.yul\":8748:8751   */\n      dup4\n        /* \"#utility.yul\":8689:8756   */\n      tag_204\n      jump\t// in\n    tag_351:\n        /* \"#utility.yul\":8682:8756   */\n      swap2\n      pop\n        /* \"#utility.yul\":8765:8858   */\n      tag_352\n        /* \"#utility.yul\":8854:8857   */\n      dup3\n        /* \"#utility.yul\":8765:8858   */\n      tag_214\n      jump\t// in\n    tag_352:\n        /* \"#utility.yul\":8883:8885   */\n      0x20\n        /* \"#utility.yul\":8878:8881   */\n      dup3\n        /* \"#utility.yul\":8874:8886   */\n      add\n        /* \"#utility.yul\":8867:8886   */\n      swap1\n      pop\n        /* \"#utility.yul\":8526:8892   */\n      swap2\n      swap1\n      pop\n      jump\t// out\n        /* \"#utility.yul\":8898:9317   */\n    tag_68:\n        /* \"#utility.yul\":9064:9068   */\n      0x00\n        /* \"#utility.yul\":9102:9104   */\n      0x20\n        /* \"#utility.yul\":9091:9100   */\n      dup3\n        /* \"#utility.yul\":9087:9105   */\n      add\n        /* \"#utility.yul\":9079:9105   */\n      swap1\n      pop\n        /* \"#utility.yul\":9151:9160   */\n      dup2\n        /* \"#utility.yul\":9145:9149   */\n      dup2\n        /* \"#utility.yul\":9141:9161   */\n      sub\n        /* \"#utility.yul\":9137:9138   */\n      0x00\n        /* \"#utility.yul\":9126:9135   */\n      dup4\n        /* \"#utility.yul\":9122:9139   */\n      add\n        /* \"#utility.yul\":9115:9162   */\n      mstore\n        /* \"#utility.yul\":9179:9310   */\n      tag_354\n        /* \"#utility.yul\":9305:9309   */\n      dup2\n        /* \"#utility.yul\":9179:9310   */\n      tag_215\n      jump\t// in\n    tag_354:\n        /* \"#utility.yul\":9171:9310   */\n      swap1\n      pop\n        /* \"#utility.yul\":8898:9317   */\n      swap2\n      swap1\n      pop\n      jump\t// out\n        /* \"#utility.yul\":9323:9545   */\n    tag_216:\n        /* \"#utility.yul\":9463:9497   */\n      0x57696e6e6572206d75737420626520636c69656e74206f7220667265656c616e\n        /* \"#utility.yul\":9459:9460   */\n      0x00\n        /* \"#utility.yul\":9451:9457   */\n      dup3\n        /* \"#utility.yul\":9447:9461   */\n      add\n        /* \"#utility.yul\":9440:9498   */\n      mstore\n        /* \"#utility.yul\":9532:9537   */\n      0x6365720000000000000000000000000000000000000000000000000000000000\n        /* \"#utility.yul\":9527:9529   */\n      0x20\n        /* \"#utility.yul\":9519:9525   */\n      dup3\n        /* \"#utility.yul\":9515:9530   */\n      add\n        /* \"#utility.yul\":9508:9538   */\n      mstore\n        /* \"#utility.yul\":9323:9545   */\n      pop\n      jump\t// out\n        /* \"#utility.yul\":9551:9917   */\n    tag_217:\n        /* \"#utility.yul\":9693:9696   */\n      0x00\n        /* \"#utility.yul\":9714:9781   */\n      tag_357\n        /* \"#utility.yul\":9778:9780   */\n      0x23\n        /* \"#utility.yul\":9773:9776   */\n      dup4\n        /* \"#utility.yul\":9714:9781   */\n      tag_204\n      jump\t// in\n    tag_357:\n        /* \"#utility.yul\":9707:9781   */\n      swap2\n      pop\n        /* \"#utility.yul\":9790:9883   */\n      tag_358\n        /* \"#utility.yul\":9879:9882   */\n      dup3\n        /* \"#utility.yul\":9790:9883   */\n      tag_216\n      jump\t// in\n    tag_358:\n        /* \"#utility.yul\":9908:9910   */\n      0x40\n        /* \"#utility.yul\":9903:9906   */\n      dup3\n        /* \"#utility.yul\":9899:9911   */\n      add\n        /* \"#utility.yul\":9892:9911   */\n      swap1\n      pop\n        /* \"#utility.yul\":9551:9917   */\n      swap2\n      swap1\n      pop\n      jump\t// out\n        /* \"#utility.yul\":9923:10342   */\n    tag_73:\n        /* \"#utility.yul\":10089:10093   */\n      0x00\n        /* \"#utility.yul\":10127:10129   */\n      0x20\n        /* \"#utility.yul\":10116:10125   */\n      dup3\n        /* \"#utility.yul\":10112:10130   */\n      add\n        /* \"#utility.yul\":10104:10130   */\n      swap1\n      pop\n        /* \"#utility.yul\":10176:10185   */\n      dup2\n        /* \"#utility.yul\":10170:10174   */\n      dup2\n        /* \"#utility.yul\":10166:10186   */\n      sub\n        /* \"#utility.yul\":10162:10163   */\n      0x00\n        /* \"#utility.yul\":10151:10160   */\n      dup4\n        /* \"#utility.yul\":10147:10164   */\n      add\n        /* \"#utility.yul\":10140:10187   */\n      mstore\n        /* \"#utility.yul\":10204:10335   */\n      tag_360\n        /* \"#utility.yul\":10330:10334   */\n      dup2\n        /* \"#utility.yul\":10204:10335   */\n      tag_217\n      jump\t// in\n    tag_360:\n        /* \"#utility.yul\":10196:10335   */\n      swap1\n      pop\n        /* \"#utility.yul\":9923:10342   */\n      swap2\n      swap1\n      pop\n      jump\t// out\n        /* \"#utility.yul\":10348:10495   */\n    tag_218:\n        /* \"#utility.yul\":10449:10460   */\n      0x00\n        /* \"#utility.yul\":10486:10489   */\n      dup2\n        /* \"#utility.yul\":10471:10489   */\n      swap1\n      pop\n        /* \"#utility.yul\":10348:10495   */\n      swap3\n      swap2\n      pop\n      pop\n      jump\t// out\n        /* \"#utility.yul\":10501:10615   */\n    tag_219:\n      pop\n      jump\t// out\n        /* \"#utility.yul\":10621:11019   */\n    tag_220:\n        /* \"#utility.yul\":10780:10783   */\n      0x00\n        /* \"#utility.yul\":10801:10884   */\n      tag_364\n        /* \"#utility.yul\":10882:10883   */\n      0x00\n        /* \"#utility.yul\":10877:10880   */\n      dup4\n        /* \"#utility.yul\":10801:10884   */\n      tag_218\n      jump\t// in\n    tag_364:\n        /* \"#utility.yul\":10794:10884   */\n      swap2\n      pop\n        /* \"#utility.yul\":10893:10986   */\n      tag_365\n        /* \"#utility.yul\":10982:10985   */\n      dup3\n        /* \"#utility.yul\":10893:10986   */\n      tag_219\n      jump\t// in\n    tag_365:\n        /* \"#utility.yul\":11011:11012   */\n      0x00\n        /* \"#utility.yul\":11006:11009   */\n      dup3\n        /* \"#utility.yul\":11002:11013   */\n      add\n        /* \"#utility.yul\":10995:11013   */\n      swap1\n      pop\n        /* \"#utility.yul\":10621:11019   */\n      swap2\n      swap1\n      pop\n      jump\t// out\n        /* \"#utility.yul\":11025:11404   */\n    tag_77:\n        /* \"#utility.yul\":11209:11212   */\n      0x00\n        /* \"#utility.yul\":11231:11378   */\n      tag_367\n        /* \"#utility.yul\":11374:11377   */\n      dup3\n        /* \"#utility.yul\":11231:11378   */\n      tag_220\n      jump\t// in\n    tag_367:\n        /* \"#utility.yul\":11224:11378   */\n      swap2\n      pop\n        /* \"#utility.yul\":11395:11398   */\n      dup2\n        /* \"#utility.yul\":11388:11398   */\n      swap1\n      pop\n        /* \"#utility.yul\":11025:11404   */\n      swap2\n      swap1\n      pop\n      jump\t// out\n        /* \"#utility.yul\":11410:11574   */\n    tag_221:\n        /* \"#utility.yul\":11550:11566   */\n      0x5061796d656e74206661696c6564000000000000000000000000000000000000\n        /* \"#utility.yul\":11546:11547   */\n      0x00\n        /* \"#utility.yul\":11538:11544   */\n      dup3\n        /* \"#utility.yul\":11534:11548   */\n      add\n        /* \"#utility.yul\":11527:11567   */\n      mstore\n        /* \"#utility.yul\":11410:11574   */\n      pop\n      jump\t// out\n        /* \"#utility.yul\":11580:11946   */\n    tag_222:\n        /* \"#utility.yul\":11722:11725   */\n      0x00\n        /* \"#utility.yul\":11743:11810   */\n      tag_370\n        /* \"#utility.yul\":11807:11809   */\n      0x0e\n        /* \"#utility.yul\":11802:11805   */\n      dup4\n        /* \"#utility.yul\":11743:11810   */\n      tag_204\n      jump\t// in\n    tag_370:\n        /* \"#utility.yul\":11736:11810   */\n      swap2\n      pop\n        /* \"#utility.yul\":11819:11912   */\n      tag_371\n        /* \"#utility.yul\":11908:11911   */\n      dup3\n        /* \"#utility.yul\":11819:11912   */\n      tag_221\n      jump\t// in\n    tag_371:\n        /* \"#utility.yul\":11937:11939   */\n      0x20\n        /* \"#utility.yul\":11932:11935   */\n      dup3\n        /* \"#utility.yul\":11928:11940   */\n      add\n        /* \"#utility.yul\":11921:11940   */\n      swap1\n      pop\n        /* \"#utility.yul\":11580:11946   */\n      swap2\n      swap1\n      pop\n      jump\t// out\n        /* \"#utility.yul\":11952:12371   */\n    tag_83:\n        /* \"#utility.yul\":12118:12122   */\n      0x00\n        /* \"#utility.yul\":12156:12158   */\n      0x20\n        /* \"#utility.yul\":12145:12154   */\n      dup3\n        /* \"#utility.yul\":12141:12159   */\n      add\n        /* \"#utility.yul\":12133:12159   */\n      swap1\n      pop\n        /* \"#utility.yul\":12205:12214   */\n      dup2\n        /* \"#utility.yul\":12199:12203   */\n      dup2\n        /* \"#utility.yul\":12195:12215   */\n      sub\n        /* \"#utility.yul\":12191:12192   */\n      0x00\n        /* \"#utility.yul\":12180:12189   */\n      dup4\n        /* \"#utility.yul\":12176:12193   */\n      add\n        /* \"#utility.yul\":12169:12216   */\n      mstore\n        /* \"#utility.yul\":12233:12364   */\n      tag_373\n        /* \"#utility.yul\":12359:12363   */\n      dup2\n        /* \"#utility.yul\":12233:12364   */\n      tag_222\n      jump\t// in\n    tag_373:\n        /* \"#utility.yul\":12225:12364   */\n      swap1\n      pop\n        /* \"#utility.yul\":11952:12371   */\n      swap2\n      swap1\n      pop\n      jump\t// out\n        /* \"#utility.yul\":12377:12599   */\n    tag_85:\n        /* \"#utility.yul\":12470:12474   */\n      0x00\n        /* \"#utility.yul\":12508:12510   */\n      0x20\n        /* \"#utility.yul\":12497:12506   */\n      dup3\n        /* \"#utility.yul\":12493:12511   */\n      add\n        /* \"#utility.yul\":12485:12511   */\n      swap1\n      pop\n        /* \"#utility.yul\":12521:12592   */\n      tag_375\n        /* \"#utility.yul\":12589:12590   */\n      0x00\n        /* \"#utility.yul\":12578:12587   */\n      dup4\n        /* \"#utility.yul\":12574:12591   */\n      add\n        /* \"#utility.yul\":12565:12571   */\n      dup5\n        /* \"#utility.yul\":12521:12592   */\n      tag_197\n      jump\t// in\n    tag_375:\n        /* \"#utility.yul\":12377:12599   */\n      swap3\n      swap2\n      pop\n      pop\n      jump\t// out\n        /* \"#utility.yul\":12605:12785   */\n    tag_223:\n        /* \"#utility.yul\":12653:12730   */\n      0x4e487b7100000000000000000000000000000000000000000000000000000000\n        /* \"#utility.yul\":12650:12651   */\n      0x00\n        /* \"#utility.yul\":12643:12731   */\n      mstore\n        /* \"#utility.yul\":12750:12754   */\n      0x22\n        /* \"#utility.yul\":12747:12748   */\n      0x04\n        /* \"#utility.yul\":12740:12755   */\n      mstore\n        /* \"#utility.yul\":12774:12778   */\n      0x24\n        /* \"#utility.yul\":12771:12772   */\n      0x00\n        /* \"#utility.yul\":12764:12779   */\n      revert\n        /* \"#utility.yul\":12791:13111   */\n    tag_87:\n        /* \"#utility.yul\":12835:12841   */\n      0x00\n        /* \"#utility.yul\":12872:12873   */\n      0x02\n        /* \"#utility.yul\":12866:12870   */\n      dup3\n        /* \"#utility.yul\":12862:12874   */\n      div\n        /* \"#utility.yul\":12852:12874   */\n      swap1\n      pop\n        /* \"#utility.yul\":12919:12920   */\n      0x01\n        /* \"#utility.yul\":12913:12917   */\n      dup3\n        /* \"#utility.yul\":12909:12921   */\n      and\n        /* \"#utility.yul\":12940:12958   */\n      dup1\n        /* \"#utility.yul\":12930:13011   */\n      tag_378\n      jumpi\n        /* \"#utility.yul\":12996:13000   */\n      0x7f\n        /* \"#utility.yul\":12988:12994   */\n      dup3\n        /* \"#utility.yul\":12984:13001   */\n      and\n        /* \"#utility.yul\":12974:13001   */\n      swap2\n      pop\n        /* \"#utility.yul\":12930:13011   */\n    tag_378:\n        /* \"#utility.yul\":13058:13060   */\n      0x20\n        /* \"#utility.yul\":13050:13056   */\n      dup3\n        /* \"#utility.yul\":13047:13061   */\n      lt\n        /* \"#utility.yul\":13027:13045   */\n      dup2\n        /* \"#utility.yul\":13024:13062   */\n      sub\n        /* \"#utility.yul\":13021:13105   */\n      tag_379\n      jumpi\n        /* \"#utility.yul\":13077:13095   */\n      tag_380\n      tag_223\n      jump\t// in\n    tag_380:\n        /* \"#utility.yul\":13021:13105   */\n    tag_379:\n        /* \"#utility.yul\":12842:13111   */\n      pop\n        /* \"#utility.yul\":12791:13111   */\n      swap2\n      swap1\n      pop\n      jump\t// out\n        /* \"#utility.yul\":13117:13281   */\n    tag_224:\n        /* \"#utility.yul\":13257:13273   */\n      0x4e6f74206a6f6220636c69656e74000000000000000000000000000000000000\n        /* \"#utility.yul\":13253:13254   */\n      0x00\n        /* \"#utility.yul\":13245:13251   */\n      dup3\n        /* \"#utility.yul\":13241:13255   */\n      add\n        /* \"#utility.yul\":13234:13274   */\n      mstore\n        /* \"#utility.yul\":13117:13281   */\n      pop\n      jump\t// out\n        /* \"#utility.yul\":13287:13653   */\n    tag_225:\n        /* \"#utility.yul\":13429:13432   */\n      0x00\n        /* \"#utility.yul\":13450:13517   */\n      tag_383\n        /* \"#utility.yul\":13514:13516   */\n      0x0e\n        /* \"#utility.yul\":13509:13512   */\n      dup4\n        /* \"#utility.yul\":13450:13517   */\n      tag_204\n      jump\t// in\n    tag_383:\n        /* \"#utility.yul\":13443:13517   */\n      swap2\n      pop\n        /* \"#utility.yul\":13526:13619   */\n      tag_384\n        /* \"#utility.yul\":13615:13618   */\n      dup3\n        /* \"#utility.yul\":13526:13619   */\n      tag_224\n      jump\t// in\n    tag_384:\n        /* \"#utility.yul\":13644:13646   */\n      0x20\n        /* \"#utility.yul\":13639:13642   */\n      dup3\n        /* \"#utility.yul\":13635:13647   */\n      add\n        /* \"#utility.yul\":13628:13647   */\n      swap1\n      pop\n        /* \"#utility.yul\":13287:13653   */\n      swap2\n      swap1\n      pop\n      jump\t// out\n        /* \"#utility.yul\":13659:14078   */\n    tag_95:\n        /* \"#utility.yul\":13825:13829   */\n      0x00\n        /* \"#utility.yul\":13863:13865   */\n      0x20\n        /* \"#utility.yul\":13852:13861   */\n      dup3\n        /* \"#utility.yul\":13848:13866   */\n      add\n        /* \"#utility.yul\":13840:13866   */\n      swap1\n      pop\n        /* \"#utility.yul\":13912:13921   */\n      dup2\n        /* \"#utility.yul\":13906:13910   */\n      dup2\n        /* \"#utility.yul\":13902:13922   */\n      sub\n        /* \"#utility.yul\":13898:13899   */\n      0x00\n        /* \"#utility.yul\":13887:13896   */\n      dup4\n        /* \"#utility.yul\":13883:13900   */\n      add\n        /* \"#utility.yul\":13876:13923   */\n      mstore\n        /* \"#utility.yul\":13940:14071   */\n      tag_386\n        /* \"#utility.yul\":14066:14070   */\n      dup2\n        /* \"#utility.yul\":13940:14071   */\n      tag_225\n      jump\t// in\n    tag_386:\n        /* \"#utility.yul\":13932:14071   */\n      swap1\n      pop\n        /* \"#utility.yul\":13659:14078   */\n      swap2\n      swap1\n      pop\n      jump\t// out\n        /* \"#utility.yul\":14084:14258   */\n    tag_226:\n        /* \"#utility.yul\":14224:14250   */\n      0x496e636f72726563742066756e64696e6720616d6f756e740000000000000000\n        /* \"#utility.yul\":14220:14221   */\n      0x00\n        /* \"#utility.yul\":14212:14218   */\n      dup3\n        /* \"#utility.yul\":14208:14222   */\n      add\n        /* \"#utility.yul\":14201:14251   */\n      mstore\n        /* \"#utility.yul\":14084:14258   */\n      pop\n      jump\t// out\n        /* \"#utility.yul\":14264:14630   */\n    tag_227:\n        /* \"#utility.yul\":14406:14409   */\n      0x00\n        /* \"#utility.yul\":14427:14494   */\n      tag_389\n        /* \"#utility.yul\":14491:14493   */\n      0x18\n        /* \"#utility.yul\":14486:14489   */\n      dup4\n        /* \"#utility.yul\":14427:14494   */\n      tag_204\n      jump\t// in\n    tag_389:\n        /* \"#utility.yul\":14420:14494   */\n      swap2\n      pop\n        /* \"#utility.yul\":14503:14596   */\n      tag_390\n        /* \"#utility.yul\":14592:14595   */\n      dup3\n        /* \"#utility.yul\":14503:14596   */\n      tag_226\n      jump\t// in\n    tag_390:\n        /* \"#utility.yul\":14621:14623   */\n      0x20\n        /* \"#utility.yul\":14616:14619   */\n      dup3\n        /* \"#utility.yul\":14612:14624   */\n      add\n        /* \"#utility.yul\":14605:14624   */\n      swap1\n      pop\n        /* \"#utility.yul\":14264:14630   */\n      swap2\n      swap1\n      pop\n      jump\t// out\n        /* \"#utility.yul\":14636:15055   */\n    tag_125:\n        /* \"#utility.yul\":14802:14806   */\n      0x00\n        /* \"#utility.yul\":14840:14842   */\n      0x20\n        /* \"#utility.yul\":14829:14838   */\n      dup3\n        /* \"#utility.yul\":14825:14843   */\n      add\n        /* \"#utility.yul\":14817:14843   */\n      swap1\n      pop\n        /* \"#utility.yul\":14889:14898   */\n      dup2\n        /* \"#utility.yul\":14883:14887   */\n      dup2\n        /* \"#utility.yul\":14879:14899   */\n      sub\n        /* \"#utility.yul\":14875:14876   */\n      0x00\n        /* \"#utility.yul\":14864:14873   */\n      dup4\n        /* \"#utility.yul\":14860:14877   */\n      add\n        /* \"#utility.yul\":14853:14900   */\n      mstore\n        /* \"#utility.yul\":14917:15048   */\n      tag_392\n        /* \"#utility.yul\":15043:15047   */\n      dup2\n        /* \"#utility.yul\":14917:15048   */\n      tag_227\n      jump\t// in\n    tag_392:\n        /* \"#utility.yul\":14909:15048   */\n      swap1\n      pop\n        /* \"#utility.yul\":14636:15055   */\n      swap2\n      swap1\n      pop\n      jump\t// out\n        /* \"#utility.yul\":15061:15236   */\n    tag_228:\n        /* \"#utility.yul\":15201:15228   */\n      0x4f6e6c7920636c69656e74206f7220667265656c616e63657200000000000000\n        /* \"#utility.yul\":15197:15198   */\n      0x00\n        /* \"#utility.yul\":15189:15195   */\n      dup3\n        /* \"#utility.yul\":15185:15199   */\n      add\n        /* \"#utility.yul\":15178:15229   */\n      mstore\n        /* \"#utility.yul\":15061:15236   */\n      pop\n      jump\t// out\n        /* \"#utility.yul\":15242:15608   */\n    tag_229:\n        /* \"#utility.yul\":15384:15387   */\n      0x00\n        /* \"#utility.yul\":15405:15472   */\n      tag_395\n        /* \"#utility.yul\":15469:15471   */\n      0x19\n        /* \"#utility.yul\":15464:15467   */\n      dup4\n        /* \"#utility.yul\":15405:15472   */\n      tag_204\n      jump\t// in\n    tag_395:\n        /* \"#utility.yul\":15398:15472   */\n      swap2\n      pop\n        /* \"#utility.yul\":15481:15574   */\n      tag_396\n        /* \"#utility.yul\":15570:15573   */\n      dup3\n        /* \"#utility.yul\":15481:15574   */\n      tag_228\n      jump\t// in\n    tag_396:\n        /* \"#utility.yul\":15599:15601   */\n      0x20\n        /* \"#utility.yul\":15594:15597   */\n      dup3\n        /* \"#utility.yul\":15590:15602   */\n      add\n        /* \"#utility.yul\":15583:15602   */\n      swap1\n      pop\n        /* \"#utility.yul\":15242:15608   */\n      swap2\n      swap1\n      pop\n      jump\t// out\n        /* \"#utility.yul\":15614:16033   */\n    tag_140:\n        /* \"#utility.yul\":15780:15784   */\n      0x00\n        /* \"#utility.yul\":15818:15820   */\n      0x20\n        /* \"#utility.yul\":15807:15816   */\n      dup3\n        /* \"#utility.yul\":15803:15821   */\n      add\n        /* \"#utility.yul\":15795:15821   */\n      swap1\n      pop\n        /* \"#utility.yul\":15867:15876   */\n      dup2\n        /* \"#utility.yul\":15861:15865   */\n      dup2\n        /* \"#utility.yul\":15857:15877   */\n      sub\n        /* \"#utility.yul\":15853:15854   */\n      0x00\n        /* \"#utility.yul\":15842:15851   */\n      dup4\n        /* \"#utility.yul\":15838:15855   */\n      add\n        /* \"#utility.yul\":15831:15878   */\n      mstore\n        /* \"#utility.yul\":15895:16026   */\n      tag_398\n        /* \"#utility.yul\":16021:16025   */\n      dup2\n        /* \"#utility.yul\":15895:16026   */\n      tag_229\n      jump\t// in\n    tag_398:\n        /* \"#utility.yul\":15887:16026   */\n      swap1\n      pop\n        /* \"#utility.yul\":15614:16033   */\n      swap2\n      swap1\n      pop\n      jump\t// out\n        /* \"#utility.yul\":16039:16208   */\n    tag_230:\n        /* \"#utility.yul\":16179:16200   */\n      0x467265656c616e63657220726571756972656400000000000000000000000000\n        /* \"#utility.yul\":16175:16176   */\n      0x00\n        /* \"#utility.yul\":16167:16173   */\n      dup3\n        /* \"#utility.yul\":16163:16177   */\n      add\n        /* \"#utility.yul\":16156:16201   */\n      mstore\n        /* \"#utility.yul\":16039:16208   */\n      pop\n      jump\t// out\n        /* \"#utility.yul\":16214:16580   */\n    tag_231:\n        /* \"#utility.yul\":16356:16359   */\n      0x00\n        /* \"#utility.yul\":16377:16444   */\n      tag_401\n        /* \"#utility.yul\":16441:16443   */\n      0x13\n        /* \"#utility.yul\":16436:16439   */\n      dup4\n        /* \"#utility.yul\":16377:16444   */\n      tag_204\n      jump\t// in\n    tag_401:\n        /* \"#utility.yul\":16370:16444   */\n      swap2\n      pop\n        /* \"#utility.yul\":16453:16546   */\n      tag_402\n        /* \"#utility.yul\":16542:16545   */\n      dup3\n        /* \"#utility.yul\":16453:16546   */\n      tag_230\n      jump\t// in\n    tag_402:\n        /* \"#utility.yul\":16571:16573   */\n      0x20\n        /* \"#utility.yul\":16566:16569   */\n      dup3\n        /* \"#utility.yul\":16562:16574   */\n      add\n        /* \"#utility.yul\":16555:16574   */\n      swap1\n      pop\n        /* \"#utility.yul\":16214:16580   */\n      swap2\n      swap1\n      pop\n      jump\t// out\n        /* \"#utility.yul\":16586:17005   */\n    tag_146:\n        /* \"#utility.yul\":16752:16756   */\n      0x00\n        /* \"#utility.yul\":16790:16792   */\n      0x20\n        /* \"#utility.yul\":16779:16788   */\n      dup3\n        /* \"#utility.yul\":16775:16793   */\n      add\n        /* \"#utility.yul\":16767:16793   */\n      swap1\n      pop\n        /* \"#utility.yul\":16839:16848   */\n      dup2\n        /* \"#utility.yul\":16833:16837   */\n      dup2\n        /* \"#utility.yul\":16829:16849   */\n      sub\n        /* \"#utility.yul\":16825:16826   */\n      0x00\n        /* \"#utility.yul\":16814:16823   */\n      dup4\n        /* \"#utility.yul\":16810:16827   */\n      add\n        /* \"#utility.yul\":16803:16850   */\n      mstore\n        /* \"#utility.yul\":16867:16998   */\n      tag_404\n        /* \"#utility.yul\":16993:16997   */\n      dup2\n        /* \"#utility.yul\":16867:16998   */\n      tag_231\n      jump\t// in\n    tag_404:\n        /* \"#utility.yul\":16859:16998   */\n      swap1\n      pop\n        /* \"#utility.yul\":16586:17005   */\n      swap2\n      swap1\n      pop\n      jump\t// out\n        /* \"#utility.yul\":17011:17180   */\n    tag_232:\n        /* \"#utility.yul\":17151:17172   */\n      0x41726269747261746f7220726571756972656400000000000000000000000000\n        /* \"#utility.yul\":17147:17148   */\n      0x00\n        /* \"#utility.yul\":17139:17145   */\n      dup3\n        /* \"#utility.yul\":17135:17149   */\n      add\n        /* \"#utility.yul\":17128:17173   */\n      mstore\n        /* \"#utility.yul\":17011:17180   */\n      pop\n      jump\t// out\n        /* \"#utility.yul\":17186:17552   */\n    tag_233:\n        /* \"#utility.yul\":17328:17331   */\n      0x00\n        /* \"#utility.yul\":17349:17416   */\n      tag_407\n        /* \"#utility.yul\":17413:17415   */\n      0x13\n        /* \"#utility.yul\":17408:17411   */\n      dup4\n        /* \"#utility.yul\":17349:17416   */\n      tag_204\n      jump\t// in\n    tag_407:\n        /* \"#utility.yul\":17342:17416   */\n      swap2\n      pop\n        /* \"#utility.yul\":17425:17518   */\n      tag_408\n        /* \"#utility.yul\":17514:17517   */\n      dup3\n        /* \"#utility.yul\":17425:17518   */\n      tag_232\n      jump\t// in\n    tag_408:\n        /* \"#utility.yul\":17543:17545   */\n      0x20\n        /* \"#utility.yul\":17538:17541   */\n      dup3\n        /* \"#utility.yul\":17534:17546   */\n      add\n        /* \"#utility.yul\":17527:17546   */\n      swap1\n      pop\n        /* \"#utility.yul\":17186:17552   */\n      swap2\n      swap1\n      pop\n      jump\t// out\n        /* \"#utility.yul\":17558:17977   */\n    tag_149:\n        /* \"#utility.yul\":17724:17728   */\n      0x00\n        /* \"#utility.yul\":17762:17764   */\n      0x20\n        /* \"#utility.yul\":17751:17760   */\n      dup3\n        /* \"#utility.yul\":17747:17765   */\n      add\n        /* \"#utility.yul\":17739:17765   */\n      swap1\n      pop\n        /* \"#utility.yul\":17811:17820   */\n      dup2\n        /* \"#utility.yul\":17805:17809   */\n      dup2\n        /* \"#utility.yul\":17801:17821   */\n      sub\n        /* \"#utility.yul\":17797:17798   */\n      0x00\n        /* \"#utility.yul\":17786:17795   */\n      dup4\n        /* \"#utility.yul\":17782:17799   */\n      add\n        /* \"#utility.yul\":17775:17822   */\n      mstore\n        /* \"#utility.yul\":17839:17970   */\n      tag_410\n        /* \"#utility.yul\":17965:17969   */\n      dup2\n        /* \"#utility.yul\":17839:17970   */\n      tag_233\n      jump\t// in\n    tag_410:\n        /* \"#utility.yul\":17831:17970   */\n      swap1\n      pop\n        /* \"#utility.yul\":17558:17977   */\n      swap2\n      swap1\n      pop\n      jump\t// out\n        /* \"#utility.yul\":17983:18151   */\n    tag_234:\n        /* \"#utility.yul\":18123:18143   */\n      0x416d6f756e74206d757374206265203e20300000000000000000000000000000\n        /* \"#utility.yul\":18119:18120   */\n      0x00\n        /* \"#utility.yul\":18111:18117   */\n      dup3\n        /* \"#utility.yul\":18107:18121   */\n      add\n        /* \"#utility.yul\":18100:18144   */\n      mstore\n        /* \"#utility.yul\":17983:18151   */\n      pop\n      jump\t// out\n        /* \"#utility.yul\":18157:18523   */\n    tag_235:\n        /* \"#utility.yul\":18299:18302   */\n      0x00\n        /* \"#utility.yul\":18320:18387   */\n      tag_413\n        /* \"#utility.yul\":18384:18386   */\n      0x12\n        /* \"#utility.yul\":18379:18382   */\n      dup4\n        /* \"#utility.yul\":18320:18387   */\n      tag_204\n      jump\t// in\n    tag_413:\n        /* \"#utility.yul\":18313:18387   */\n      swap2\n      pop\n        /* \"#utility.yul\":18396:18489   */\n      tag_414\n        /* \"#utility.yul\":18485:18488   */\n      dup3\n        /* \"#utility.yul\":18396:18489   */\n      tag_234\n      jump\t// in\n    tag_414:\n        /* \"#utility.yul\":18514:18516   */\n      0x20\n        /* \"#utility.yul\":18509:18512   */\n      dup3\n        /* \"#utility.yul\":18505:18517   */\n      add\n        /* \"#utility.yul\":18498:18517   */\n      swap1\n      pop\n        /* \"#utility.yul\":18157:18523   */\n      swap2\n      swap1\n      pop\n      jump\t// out\n        /* \"#utility.yul\":18529:18948   */\n    tag_152:\n        /* \"#utility.yul\":18695:18699   */\n      0x00\n        /* \"#utility.yul\":18733:18735   */\n      0x20\n        /* \"#utility.yul\":18722:18731   */\n      dup3\n        /* \"#utility.yul\":18718:18736   */\n      add\n        /* \"#utility.yul\":18710:18736   */\n      swap1\n      pop\n        /* \"#utility.yul\":18782:18791   */\n      dup2\n        /* \"#utility.yul\":18776:18780   */\n      dup2\n        /* \"#utility.yul\":18772:18792   */\n      sub\n        /* \"#utility.yul\":18768:18769   */\n      0x00\n        /* \"#utility.yul\":18757:18766   */\n      dup4\n        /* \"#utility.yul\":18753:18770   */\n      add\n        /* \"#utility.yul\":18746:18793   */\n      mstore\n        /* \"#utility.yul\":18810:18941   */\n      tag_416\n        /* \"#utility.yul\":18936:18940   */\n      dup2\n        /* \"#utility.yul\":18810:18941   */\n      tag_235\n      jump\t// in\n    tag_416:\n        /* \"#utility.yul\":18802:18941   */\n      swap1\n      pop\n        /* \"#utility.yul\":18529:18948   */\n      swap2\n      swap1\n      pop\n      jump\t// out\n        /* \"#utility.yul\":18954:19134   */\n    tag_236:\n        /* \"#utility.yul\":19002:19079   */\n      0x4e487b7100000000000000000000000000000000000000000000000000000000\n        /* \"#utility.yul\":18999:19000   */\n      0x00\n        /* \"#utility.yul\":18992:19080   */\n      mstore\n        /* \"#utility.yul\":19099:19103   */\n      0x11\n        /* \"#utility.yul\":19096:19097   */\n      0x04\n        /* \"#utility.yul\":19089:19104   */\n      mstore\n        /* \"#utility.yul\":19123:19127   */\n      0x24\n        /* \"#utility.yul\":19120:19121   */\n      0x00\n        /* \"#utility.yul\":19113:19128   */\n      revert\n        /* \"#utility.yul\":19140:19373   */\n    tag_154:\n        /* \"#utility.yul\":19179:19182   */\n      0x00\n        /* \"#utility.yul\":19202:19226   */\n      tag_419\n        /* \"#utility.yul\":19220:19225   */\n      dup3\n        /* \"#utility.yul\":19202:19226   */\n      tag_190\n      jump\t// in\n    tag_419:\n        /* \"#utility.yul\":19193:19226   */\n      swap2\n      pop\n        /* \"#utility.yul\":19248:19314   */\n      0xffffffffffffffffffffffffffffffffffffffffffffffffffffffffffffffff\n        /* \"#utility.yul\":19241:19246   */\n      dup3\n        /* \"#utility.yul\":19238:19315   */\n      sub\n        /* \"#utility.yul\":19235:19338   */\n      tag_420\n      jumpi\n        /* \"#utility.yul\":19318:19336   */\n      tag_421\n      tag_236\n      jump\t// in\n    tag_421:\n        /* \"#utility.yul\":19235:19338   */\n    tag_420:\n        /* \"#utility.yul\":19365:19366   */\n      0x01\n        /* \"#utility.yul\":19358:19363   */\n      dup3\n        /* \"#utility.yul\":19354:19367   */\n      add\n        /* \"#utility.yul\":19347:19367   */\n      swap1\n      pop\n        /* \"#utility.yul\":19140:19373   */\n      swap2\n      swap1\n      pop\n      jump\t// out\n        /* \"#utility.yul\":19379:19559   */\n    tag_237:\n        /* \"#utility.yul\":19427:19504   */\n      0x4e487b7100000000000000000000000000000000000000000000000000000000\n        /* \"#utility.yul\":19424:19425   */\n      0x00\n        /* \"#utility.yul\":19417:19505   */\n      mstore\n        /* \"#utility.yul\":19524:19528   */\n      0x41\n        /* \"#utility.yul\":19521:19522   */\n      0x04\n        /* \"#utility.yul\":19514:19529   */\n      mstore\n        /* \"#utility.yul\":19548:19552   */\n      0x24\n        /* \"#utility.yul\":19545:19546   */\n      0x00\n        /* \"#utility.yul\":19538:19553   */\n      revert\n        /* \"#utility.yul\":19565:19706   */\n    tag_238:\n        /* \"#utility.yul\":19614:19618   */\n      0x00\n        /* \"#utility.yul\":19637:19640   */\n      dup2\n        /* \"#utility.yul\":19629:19640   */\n      swap1\n      pop\n        /* \"#utility.yul\":19660:19663   */\n      dup2\n        /* \"#utility.yul\":19657:19658   */\n      0x00\n        /* \"#utility.yul\":19650:19664   */\n      mstore\n        /* \"#utility.yul\":19694:19698   */\n      0x20\n        /* \"#utility.yul\":19691:19692   */\n      0x00\n        /* \"#utility.yul\":19681:19699   */\n      keccak256\n        /* \"#utility.yul\":19673:19699   */\n      swap1\n      pop\n        /* \"#utility.yul\":19565:19706   */\n      swap2\n      swap1\n      pop\n      jump\t// out\n        /* \"#utility.yul\":19712:19805   */\n    tag_239:\n        /* \"#utility.yul\":19749:19755   */\n      0x00\n        /* \"#utility.yul\":19796:19798   */\n      0x20\n        /* \"#utility.yul\":19791:19793   */\n      0x1f\n        /* \"#utility.yul\":19784:19789   */\n      dup4\n        /* \"#utility.yul\":19780:19794   */\n      add\n        /* \"#utility.yul\":19776:19799   */\n      div\n        /* \"#utility.yul\":19766:19799   */\n      swap1\n      pop\n        /* \"#utility.yul\":19712:19805   */\n      swap2\n      swap1\n      pop\n      jump\t// out\n        /* \"#utility.yul\":19811:19918   */\n    tag_240:\n        /* \"#utility.yul\":19855:19863   */\n      0x00\n        /* \"#utility.yul\":19905:19910   */\n      dup3\n        /* \"#utility.yul\":19899:19903   */\n      dup3\n        /* \"#utility.yul\":19895:19911   */\n      shl\n        /* \"#utility.yul\":19874:19911   */\n      swap1\n      pop\n        /* \"#utility.yul\":19811:19918   */\n      swap3\n      swap2\n      pop\n      pop\n      jump\t// out\n        /* \"#utility.yul\":19924:20317   */\n    tag_241:\n        /* \"#utility.yul\":19993:19999   */\n      0x00\n        /* \"#utility.yul\":20043:20044   */\n      0x08\n        /* \"#utility.yul\":20031:20041   */\n      dup4\n        /* \"#utility.yul\":20027:20045   */\n      mul\n        /* \"#utility.yul\":20066:20163   */\n      tag_427\n        /* \"#utility.yul\":20096:20162   */\n      0xffffffffffffffffffffffffffffffffffffffffffffffffffffffffffffffff\n        /* \"#utility.yul\":20085:20094   */\n      dup3\n        /* \"#utility.yul\":20066:20163   */\n      tag_240\n      jump\t// in\n    tag_427:\n        /* \"#utility.yul\":20184:20223   */\n      tag_428\n        /* \"#utility.yul\":20214:20222   */\n      dup7\n        /* \"#utility.yul\":20203:20212   */\n      dup4\n        /* \"#utility.yul\":20184:20223   */\n      tag_240\n      jump\t// in\n    tag_428:\n        /* \"#utility.yul\":20172:20223   */\n      swap6\n      pop\n        /* \"#utility.yul\":20256:20260   */\n      dup1\n        /* \"#utility.yul\":20252:20261   */\n      not\n        /* \"#utility.yul\":20245:20250   */\n      dup5\n        /* \"#utility.yul\":20241:20262   */\n      and\n        /* \"#utility.yul\":20232:20262   */\n      swap4\n      pop\n        /* \"#utility.yul\":20305:20309   */\n      dup1\n        /* \"#utility.yul\":20295:20303   */\n      dup7\n        /* \"#utility.yul\":20291:20310   */\n      and\n        /* \"#utility.yul\":20284:20289   */\n      dup5\n        /* \"#utility.yul\":20281:20311   */\n      or\n        /* \"#utility.yul\":20271:20311   */\n      swap3\n      pop\n        /* \"#utility.yul\":20000:20317   */\n      pop\n      pop\n        /* \"#utility.yul\":19924:20317   */\n      swap4\n      swap3\n      pop\n      pop\n      pop\n      jump\t// out\n        /* \"#utility.yul\":20323:20383   */\n    tag_242:\n        /* \"#utility.yul\":20351:20354   */\n      0x00\n        /* \"#utility.yul\":20372:20377   */\n      dup2\n        /* \"#utility.yul\":20365:20377   */\n      swap1\n      pop\n        /* \"#utility.yul\":20323:20383   */\n      swap2\n      swap1\n      pop\n      jump\t// out\n        /* \"#utility.yul\":20389:20531   */\n    tag_243:\n        /* \"#utility.yul\":20439:20448   */\n      0x00\n        /* \"#utility.yul\":20472:20525   */\n      tag_431\n        /* \"#utility.yul\":20490:20524   */\n      tag_432\n        /* \"#utility.yul\":20499:20523   */\n      tag_433\n        /* \"#utility.yul\":20517:20522   */\n      dup5\n        /* \"#utility.yul\":20499:20523   */\n      tag_190\n      jump\t// in\n    tag_433:\n        /* \"#utility.yul\":20490:20524   */\n      tag_242\n      jump\t// in\n    tag_432:\n        /* \"#utility.yul\":20472:20525   */\n      tag_190\n      jump\t// in\n    tag_431:\n        /* \"#utility.yul\":20459:20525   */\n      swap1\n      pop\n        /* \"#utility.yul\":20389:20531   */\n      swap2\n      swap1\n      pop\n      jump\t// out\n        /* \"#utility.yul\":20537:20612   */\n    tag_244:\n        /* \"#utility.yul\":20580:20583   */\n      0x00\n        /* \"#utility.yul\":20601:20606   */\n      dup2\n        /* \"#utility.yul\":20594:20606   */\n      swap1\n      pop\n        /* \"#utility.yul\":20537:20612   */\n      swap2\n      swap1\n      pop\n      jump\t// out\n        /* \"#utility.yul\":20618:20887   */\n    tag_245:\n        /* \"#utility.yul\":20728:20767   */\n      tag_436\n        /* \"#utility.yul\":20759:20766   */\n      dup4\n        /* \"#utility.yul\":20728:20767   */\n      tag_243\n      jump\t// in\n    tag_436:\n        /* \"#utility.yul\":20789:20880   */\n      tag_437\n        /* \"#utility.yul\":20838:20879   */\n      tag_438\n        /* \"#utility.yul\":20862:20878   */\n      dup3\n        /* \"#utility.yul\":20838:20879   */\n      tag_244\n      jump\t// in\n    tag_438:\n        /* \"#utility.yul\":20830:20836   */\n      dup5\n        /* \"#utility.yul\":20823:20827   */\n      dup5\n        /* \"#utility.yul\":20817:20828   */\n      sload\n        /* \"#utility.yul\":20789:20880   */\n      tag_241\n      jump\t// in\n    tag_437:\n        /* \"#utility.yul\":20783:20787   */\n      dup3\n        /* \"#utility.yul\":20776:20881   */\n      sstore\n        /* \"#utility.yul\":20694:20887   */\n      pop\n        /* \"#utility.yul\":20618:20887   */\n      pop\n      pop\n      pop\n      jump\t// out\n        /* \"#utility.yul\":20893:20966   */\n    tag_246:\n        /* \"#utility.yul\":20938:20941   */\n      0x00\n        /* \"#utility.yul\":20893:20966   */\n      swap1\n      jump\t// out\n        /* \"#utility.yul\":20972:21161   */\n    tag_247:\n        /* \"#utility.yul\":21049:21081   */\n      tag_441\n      tag_246\n      jump\t// in\n    tag_441:\n        /* \"#utility.yul\":21090:21155   */\n      tag_442\n        /* \"#utility.yul\":21148:21154   */\n      dup2\n        /* \"#utility.yul\":21140:21146   */\n      dup5\n        /* \"#utility.yul\":21134:21138   */\n      dup5\n        /* \"#utility.yul\":21090:21155   */\n      tag_245\n      jump\t// in\n    tag_442:\n        /* \"#utility.yul\":21025:21161   */\n      pop\n        /* \"#utility.yul\":20972:21161   */\n      pop\n      pop\n      jump\t// out\n        /* \"#utility.yul\":21167:21353   */\n    tag_248:\n        /* \"#utility.yul\":21227:21347   */\n    tag_444:\n        /* \"#utility.yul\":21244:21247   */\n      dup2\n        /* \"#utility.yul\":21237:21242   */\n      dup2\n        /* \"#utility.yul\":21234:21248   */\n      lt\n        /* \"#utility.yul\":21227:21347   */\n      iszero\n      tag_446\n      jumpi\n        /* \"#utility.yul\":21298:21337   */\n      tag_447\n        /* \"#utility.yul\":21335:21336   */\n      0x00\n        /* \"#utility.yul\":21328:21333   */\n      dup3\n        /* \"#utility.yul\":21298:21337   */\n      tag_247\n      jump\t// in\n    tag_447:\n        /* \"#utility.yul\":21271:21272   */\n      0x01\n        /* \"#utility.yul\":21264:21269   */\n      dup2\n        /* \"#utility.yul\":21260:21273   */\n      add\n        /* \"#utility.yul\":21251:21273   */\n      swap1\n      pop\n        /* \"#utility.yul\":21227:21347   */\n      jump(tag_444)\n    tag_446:\n        /* \"#utility.yul\":21167:21353   */\n      pop\n      pop\n      jump\t// out\n        /* \"#utility.yul\":21359:21902   */\n    tag_249:\n        /* \"#utility.yul\":21460:21462   */\n      0x1f\n        /* \"#utility.yul\":21455:21458   */\n      dup3\n        /* \"#utility.yul\":21452:21463   */\n      gt\n        /* \"#utility.yul\":21449:21895   */\n      iszero\n      tag_449\n      jumpi\n        /* \"#utility.yul\":21494:21532   */\n      tag_450\n        /* \"#utility.yul\":21526:21531   */\n      dup2\n        /* \"#utility.yul\":21494:21532   */\n      tag_238\n      jump\t// in\n    tag_450:\n        /* \"#utility.yul\":21578:21607   */\n      tag_451\n        /* \"#utility.yul\":21596:21606   */\n      dup5\n        /* \"#utility.yul\":21578:21607   */\n      tag_239\n      jump\t// in\n    tag_451:\n        /* \"#utility.yul\":21568:21576   */\n      dup2\n        /* \"#utility.yul\":21564:21608   */\n      add\n        /* \"#utility.yul\":21761:21763   */\n      0x20\n        /* \"#utility.yul\":21749:21759   */\n      dup6\n        /* \"#utility.yul\":21746:21764   */\n      lt\n        /* \"#utility.yul\":21743:21792   */\n      iszero\n      tag_452\n      jumpi\n        /* \"#utility.yul\":21782:21790   */\n      dup2\n        /* \"#utility.yul\":21767:21790   */\n      swap1\n      pop\n        /* \"#utility.yul\":21743:21792   */\n    tag_452:\n        /* \"#utility.yul\":21805:21885   */\n      tag_453\n        /* \"#utility.yul\":21861:21883   */\n      tag_454\n        /* \"#utility.yul\":21879:21882   */\n      dup6\n        /* \"#utility.yul\":21861:21883   */\n      tag_239\n      jump\t// in\n    tag_454:\n        /* \"#utility.yul\":21851:21859   */\n      dup4\n        /* \"#utility.yul\":21847:21884   */\n      add\n        /* \"#utility.yul\":21834:21845   */\n      dup3\n        /* \"#utility.yul\":21805:21885   */\n      tag_248\n      jump\t// in\n    tag_453:\n        /* \"#utility.yul\":21464:21895   */\n      pop\n      pop\n        /* \"#utility.yul\":21449:21895   */\n    tag_449:\n        /* \"#utility.yul\":21359:21902   */\n      pop\n      pop\n      pop\n      jump\t// out\n        /* \"#utility.yul\":21908:22025   */\n    tag_250:\n        /* \"#utility.yul\":21962:21970   */\n      0x00\n        /* \"#utility.yul\":22012:22017   */\n      dup3\n        /* \"#utility.yul\":22006:22010   */\n      dup3\n        /* \"#utility.yul\":22002:22018   */\n      shr\n        /* \"#utility.yul\":21981:22018   */\n      swap1\n      pop\n        /* \"#utility.yul\":21908:22025   */\n      swap3\n      swap2\n      pop\n      pop\n      jump\t// out\n        /* \"#utility.yul\":22031:22200   */\n    tag_251:\n        /* \"#utility.yul\":22075:22081   */\n      0x00\n        /* \"#utility.yul\":22108:22159   */\n      tag_457\n        /* \"#utility.yul\":22156:22157   */\n      0x00\n        /* \"#utility.yul\":22152:22158   */\n      not\n        /* \"#utility.yul\":22144:22149   */\n      dup5\n        /* \"#utility.yul\":22141:22142   */\n      0x08\n        /* \"#utility.yul\":22137:22150   */\n      mul\n        /* \"#utility.yul\":22108:22159   */\n      tag_250\n      jump\t// in\n    tag_457:\n        /* \"#utility.yul\":22104:22160   */\n      not\n        /* \"#utility.yul\":22189:22193   */\n      dup1\n        /* \"#utility.yul\":22183:22187   */\n      dup4\n        /* \"#utility.yul\":22179:22194   */\n      and\n        /* \"#utility.yul\":22169:22194   */\n      swap2\n      pop\n        /* \"#utility.yul\":22082:22200   */\n      pop\n        /* \"#utility.yul\":22031:22200   */\n      swap3\n      swap2\n      pop\n      pop\n      jump\t// out\n        /* \"#utility.yul\":22205:22500   */\n    tag_252:\n        /* \"#utility.yul\":22281:22285   */\n      0x00\n        /* \"#utility.yul\":22427:22456   */\n      tag_459\n        /* \"#utility.yul\":22452:22455   */\n      dup4\n        /* \"#utility.yul\":22446:22450   */\n      dup4\n        /* \"#utility.yul\":22427:22456   */\n      tag_251\n      jump\t// in\n    tag_459:\n        /* \"#utility.yul\":22419:22456   */\n      swap2\n      pop\n        /* \"#utility.yul\":22489:22492   */\n      dup3\n        /* \"#utility.yul\":22486:22487   */\n      0x02\n        /* \"#utility.yul\":22482:22493   */\n      mul\n        /* \"#utility.yul\":22476:22480   */\n      dup3\n        /* \"#utility.yul\":22473:22494   */\n      or\n        /* \"#utility.yul\":22465:22494   */\n      swap1\n      pop\n        /* \"#utility.yul\":22205:22500   */\n      swap3\n      swap2\n      pop\n      pop\n      jump\t// out\n        /* \"#utility.yul\":22505:23900   */\n    tag_160:\n        /* \"#utility.yul\":22622:22659   */\n      tag_461\n        /* \"#utility.yul\":22655:22658   */\n      dup3\n        /* \"#utility.yul\":22622:22659   */\n      tag_203\n      jump\t// in\n    tag_461:\n        /* \"#utility.yul\":22724:22742   */\n      0xffffffffffffffff\n        /* \"#utility.yul\":22716:22722   */\n      dup2\n        /* \"#utility.yul\":22713:22743   */\n      gt\n        /* \"#utility.yul\":22710:22766   */\n      iszero\n      tag_462\n      jumpi\n        /* \"#utility.yul\":22746:22764   */\n      tag_463\n      tag_237\n      jump\t// in\n    tag_463:\n        /* \"#utility.yul\":22710:22766   */\n    tag_462:\n        /* \"#utility.yul\":22790:22828   */\n      tag_464\n        /* \"#utility.yul\":22822:22826   */\n      dup3\n        /* \"#utility.yul\":22816:22827   */\n      sload\n        /* \"#utility.yul\":22790:22828   */\n      tag_87\n      jump\t// in\n    tag_464:\n        /* \"#utility.yul\":22875:22942   */\n      tag_465\n        /* \"#utility.yul\":22935:22941   */\n      dup3\n        /* \"#utility.yul\":22927:22933   */\n      dup3\n        /* \"#utility.yul\":22921:22925   */\n      dup6\n        /* \"#utility.yul\":22875:22942   */\n      tag_249\n      jump\t// in\n    tag_465:\n        /* \"#utility.yul\":22969:22970   */\n      0x00\n        /* \"#utility.yul\":22993:22997   */\n      0x20\n        /* \"#utility.yul\":22980:22997   */\n      swap1\n      pop\n        /* \"#utility.yul\":23025:23027   */\n      0x1f\n        /* \"#utility.yul\":23017:23023   */\n      dup4\n        /* \"#utility.yul\":23014:23028   */\n      gt\n        /* \"#utility.yul\":23042:23043   */\n      0x01\n        /* \"#utility.yul\":23037:23655   */\n      dup2\n      eq\n      tag_467\n      jumpi\n        /* \"#utility.yul\":23699:23700   */\n      0x00\n        /* \"#utility.yul\":23716:23722   */\n      dup5\n        /* \"#utility.yul\":23713:23790   */\n      iszero\n      tag_468\n      jumpi\n        /* \"#utility.yul\":23765:23774   */\n      dup3\n        /* \"#utility.yul\":23760:23763   */\n      dup8\n        /* \"#utility.yul\":23756:23775   */\n      add\n        /* \"#utility.yul\":23750:23776   */\n      mload\n        /* \"#utility.yul\":23741:23776   */\n      swap1\n      pop\n        /* \"#utility.yul\":23713:23790   */\n    tag_468:\n        /* \"#utility.yul\":23816:23883   */\n      tag_469\n        /* \"#utility.yul\":23876:23882   */\n      dup6\n        /* \"#utility.yul\":23869:23874   */\n      dup3\n        /* \"#utility.yul\":23816:23883   */\n      tag_252\n      jump\t// in\n    tag_469:\n        /* \"#utility.yul\":23810:23814   */\n      dup7\n        /* \"#utility.yul\":23803:23884   */\n      sstore\n        /* \"#utility.yul\":23672:23894   */\n      pop\n        /* \"#utility.yul\":23007:23894   */\n      jump(tag_466)\n        /* \"#utility.yul\":23037:23655   */\n    tag_467:\n        /* \"#utility.yul\":23089:23093   */\n      0x1f\n        /* \"#utility.yul\":23085:23094   */\n      not\n        /* \"#utility.yul\":23077:23083   */\n      dup5\n        /* \"#utility.yul\":23073:23095   */\n      and\n        /* \"#utility.yul\":23123:23160   */\n      tag_470\n        /* \"#utility.yul\":23155:23159   */\n      dup7\n        /* \"#utility.yul\":23123:23160   */\n      tag_238\n      jump\t// in\n    tag_470:\n        /* \"#utility.yul\":23182:23183   */\n      0x00\n        /* \"#utility.yul\":23196:23404   */\n    tag_471:\n        /* \"#utility.yul\":23210:23217   */\n      dup3\n        /* \"#utility.yul\":23207:23208   */\n      dup2\n        /* \"#utility.yul\":23204:23218   */\n      lt\n        /* \"#utility.yul\":23196:23404   */\n      iszero\n      tag_473\n      jumpi\n        /* \"#utility.yul\":23289:23298   */\n      dup5\n        /* \"#utility.yul\":23284:23287   */\n      dup10\n        /* \"#utility.yul\":23280:23299   */\n      add\n        /* \"#utility.yul\":23274:23300   */\n      mload\n        /* \"#utility.yul\":23266:23272   */\n      dup3\n        /* \"#utility.yul\":23259:23301   */\n      sstore\n        /* \"#utility.yul\":23340:23341   */\n      0x01\n        /* \"#utility.yul\":23332:23338   */\n      dup3\n        /* \"#utility.yul\":23328:23342   */\n      add\n        /* \"#utility.yul\":23318:23342   */\n      swap2\n      pop\n        /* \"#utility.yul\":23387:23389   */\n      0x20\n        /* \"#utility.yul\":23376:23385   */\n      dup6\n        /* \"#utility.yul\":23372:23390   */\n      add\n        /* \"#utility.yul\":23359:23390   */\n      swap5\n      pop\n        /* \"#utility.yul\":23233:23237   */\n      0x20\n        /* \"#utility.yul\":23230:23231   */\n      dup2\n        /* \"#utility.yul\":23226:23238   */\n      add\n        /* \"#utility.yul\":23221:23238   */\n      swap1\n      pop\n        /* \"#utility.yul\":23196:23404   */\n      jump(tag_471)\n    tag_473:\n        /* \"#utility.yul\":23432:23438   */\n      dup7\n        /* \"#utility.yul\":23423:23430   */\n      dup4\n        /* \"#utility.yul\":23420:23439   */\n      lt\n        /* \"#utility.yul\":23417:23596   */\n      iszero\n      tag_474\n      jumpi\n        /* \"#utility.yul\":23490:23499   */\n      dup5\n        /* \"#utility.yul\":23485:23488   */\n      dup10\n        /* \"#utility.yul\":23481:23500   */\n      add\n        /* \"#utility.yul\":23475:23501   */\n      mload\n        /* \"#utility.yul\":23533:23581   */\n      tag_475\n        /* \"#utility.yul\":23575:23579   */\n      0x1f\n        /* \"#utility.yul\":23567:23573   */\n      dup10\n        /* \"#utility.yul\":23563:23580   */\n      and\n        /* \"#utility.yul\":23552:23561   */\n      dup3\n        /* \"#utility.yul\":23533:23581   */\n      tag_251\n      jump\t// in\n    tag_475:\n        /* \"#utility.yul\":23525:23531   */\n      dup4\n        /* \"#utility.yul\":23518:23582   */\n      sstore\n        /* \"#utility.yul\":23440:23596   */\n      pop\n        /* \"#utility.yul\":23417:23596   */\n    tag_474:\n        /* \"#utility.yul\":23642:23643   */\n      0x01\n        /* \"#utility.yul\":23638:23639   */\n      0x02\n        /* \"#utility.yul\":23630:23636   */\n      dup9\n        /* \"#utility.yul\":23626:23640   */\n      mul\n        /* \"#utility.yul\":23622:23644   */\n      add\n        /* \"#utility.yul\":23616:23620   */\n      dup9\n        /* \"#utility.yul\":23609:23645   */\n      sstore\n        /* \"#utility.yul\":23044:23655   */\n      pop\n      pop\n      pop\n        /* \"#utility.yul\":23007:23894   */\n    tag_466:\n      pop\n        /* \"#utility.yul\":22597:23900   */\n      pop\n      pop\n      pop\n        /* \"#utility.yul\":22505:23900   */\n      pop\n      pop\n      jump\t// out\n        /* \"#utility.yul\":23906:24238   */\n    tag_162:\n        /* \"#utility.yul\":24027:24031   */\n      0x00\n        /* \"#utility.yul\":24065:24067   */\n      0x40\n        /* \"#utility.yul\":24054:24063   */\n      dup3\n        /* \"#utility.yul\":24050:24068   */\n      add\n        /* \"#utility.yul\":24042:24068   */\n      swap1\n      pop\n        /* \"#utility.yul\":24078:24149   */\n      tag_477\n        /* \"#utility.yul\":24146:24147   */\n      0x00\n        /* \"#utility.yul\":24135:24144   */\n      dup4\n        /* \"#utility.yul\":24131:24148   */\n      add\n        /* \"#utility.yul\":24122:24128   */\n      dup6\n        /* \"#utility.yul\":24078:24149   */\n      tag_197\n      jump\t// in\n    tag_477:\n        /* \"#utility.yul\":24159:24231   */\n      tag_478\n        /* \"#utility.yul\":24227:24229   */\n      0x20\n        /* \"#utility.yul\":24216:24225   */\n      dup4\n        /* \"#utility.yul\":24212:24230   */\n      add\n        /* \"#utility.yul\":24203:24209   */\n      dup5\n        /* \"#utility.yul\":24159:24231   */\n      tag_198\n      jump\t// in\n    tag_478:\n        /* \"#utility.yul\":23906:24238   */\n      swap4\n      swap3\n      pop\n      pop\n      pop\n      jump\t// out\n        /* \"#utility.yul\":24244:24412   */\n    tag_253:\n        /* \"#utility.yul\":24384:24404   */\n      0x4e6f74206a6f6220667265656c616e6365720000000000000000000000000000\n        /* \"#utility.yul\":24380:24381   */\n      0x00\n        /* \"#utility.yul\":24372:24378   */\n      dup3\n        /* \"#utility.yul\":24368:24382   */\n      add\n        /* \"#utility.yul\":24361:24405   */\n      mstore\n        /* \"#utility.yul\":24244:24412   */\n      pop\n      jump\t// out\n        /* \"#utility.yul\":24418:24784   */\n    tag_254:\n        /* \"#utility.yul\":24560:24563   */\n      0x00\n        /* \"#utility.yul\":24581:24648   */\n      tag_481\n        /* \"#utility.yul\":24645:24647   */\n      0x12\n        /* \"#utility.yul\":24640:24643   */\n      dup4\n        /* \"#utility.yul\":24581:24648   */\n      tag_204\n      jump\t// in\n    tag_481:\n        /* \"#utility.yul\":24574:24648   */\n      swap2\n      pop\n        /* \"#utility.yul\":24657:24750   */\n      tag_482\n        /* \"#utility.yul\":24746:24749   */\n      dup3\n        /* \"#utility.yul\":24657:24750   */\n      tag_253\n      jump\t// in\n    tag_482:\n        /* \"#utility.yul\":24775:24777   */\n      0x20\n        /* \"#utility.yul\":24770:24773   */\n      dup3\n        /* \"#utility.yul\":24766:24778   */\n      add\n        /* \"#utility.yul\":24759:24778   */\n      swap1\n      pop\n        /* \"#utility.yul\":24418:24784   */\n      swap2\n      swap1\n      pop\n      jump\t// out\n        /* \"#utility.yul\":24790:25209   */\n    tag_172:\n        /* \"#utility.yul\":24956:24960   */\n      0x00\n        /* \"#utility.yul\":24994:24996   */\n      0x20\n        /* \"#utility.yul\":24983:24992   */\n      dup3\n        /* \"#utility.yul\":24979:24997   */\n      add\n        /* \"#utility.yul\":24971:24997   */\n      swap1\n      pop\n        /* \"#utility.yul\":25043:25052   */\n      dup2\n        /* \"#utility.yul\":25037:25041   */\n      dup2\n        /* \"#utility.yul\":25033:25053   */\n      sub\n        /* \"#utility.yul\":25029:25030   */\n      0x00\n        /* \"#utility.yul\":25018:25027   */\n      dup4\n        /* \"#utility.yul\":25014:25031   */\n      add\n        /* \"#utility.yul\":25007:25054   */\n      mstore\n        /* \"#utility.yul\":25071:25202   */\n      tag_484\n        /* \"#utility.yul\":25197:25201   */\n      dup2\n        /* \"#utility.yul\":25071:25202   */\n      tag_254\n      jump\t// in\n    tag_484:\n        /* \"#utility.yul\":25063:25202   */\n      swap1\n      pop\n        /* \"#utility.yul\":24790:25209   */\n      swap2\n      swap1\n      pop\n      jump\t// out\n        /* \"#utility.yul\":25215:25312   */\n    tag_255:\n        /* \"#utility.yul\":25274:25280   */\n      0x00\n        /* \"#utility.yul\":25302:25305   */\n      dup3\n        /* \"#utility.yul\":25292:25305   */\n      swap1\n      pop\n        /* \"#utility.yul\":25215:25312   */\n      swap3\n      swap2\n      pop\n      pop\n      jump\t// out\n        /* \"#utility.yul\":25318:26721   */\n    tag_182:\n        /* \"#utility.yul\":25442:25486   */\n      tag_487\n        /* \"#utility.yul\":25482:25485   */\n      dup4\n        /* \"#utility.yul\":25477:25480   */\n      dup4\n        /* \"#utility.yul\":25442:25486   */\n      tag_255\n      jump\t// in\n    tag_487:\n        /* \"#utility.yul\":25551:25569   */\n      0xffffffffffffffff\n        /* \"#utility.yul\":25543:25549   */\n      dup2\n        /* \"#utility.yul\":25540:25570   */\n      gt\n        /* \"#utility.yul\":25537:25593   */\n      iszero\n      tag_488\n      jumpi\n        /* \"#utility.yul\":25573:25591   */\n      tag_489\n      tag_237\n      jump\t// in\n    tag_489:\n        /* \"#utility.yul\":25537:25593   */\n    tag_488:\n        /* \"#utility.yul\":25617:25655   */\n      tag_490\n        /* \"#utility.yul\":25649:25653   */\n      dup3\n        /* \"#utility.yul\":25643:25654   */\n      sload\n        /* \"#utility.yul\":25617:25655   */\n      tag_87\n      jump\t// in\n    tag_490:\n        /* \"#utility.yul\":25702:25769   */\n      tag_491\n        /* \"#utility.yul\":25762:25768   */\n      dup3\n        /* \"#utility.yul\":25754:25760   */\n      dup3\n        /* \"#utility.yul\":25748:25752   */\n      dup6\n        /* \"#utility.yul\":25702:25769   */\n      tag_249\n      jump\t// in\n    tag_491:\n        /* \"#utility.yul\":25796:25797   */\n      0x00\n        /* \"#utility.yul\":25825:25827   */\n      0x1f\n        /* \"#utility.yul\":25817:25823   */\n      dup4\n        /* \"#utility.yul\":25814:25828   */\n      gt\n        /* \"#utility.yul\":25842:25843   */\n      0x01\n        /* \"#utility.yul\":25837:26469   */\n      dup2\n      eq\n      tag_493\n      jumpi\n        /* \"#utility.yul\":26513:26514   */\n      0x00\n        /* \"#utility.yul\":26530:26536   */\n      dup5\n        /* \"#utility.yul\":26527:26611   */\n      iszero\n      tag_494\n      jumpi\n        /* \"#utility.yul\":26586:26595   */\n      dup3\n        /* \"#utility.yul\":26581:26584   */\n      dup8\n        /* \"#utility.yul\":26577:26596   */\n      add\n        /* \"#utility.yul\":26564:26597   */\n      calldataload\n        /* \"#utility.yul\":26555:26597   */\n      swap1\n      pop\n        /* \"#utility.yul\":26527:26611   */\n    tag_494:\n        /* \"#utility.yul\":26637:26704   */\n      tag_495\n        /* \"#utility.yul\":26697:26703   */\n      dup6\n        /* \"#utility.yul\":26690:26695   */\n      dup3\n        /* \"#utility.yul\":26637:26704   */\n      tag_252\n      jump\t// in\n    tag_495:\n        /* \"#utility.yul\":26631:26635   */\n      dup7\n        /* \"#utility.yul\":26624:26705   */\n      sstore\n        /* \"#utility.yul\":26486:26715   */\n      pop\n        /* \"#utility.yul\":25807:26715   */\n      jump(tag_492)\n        /* \"#utility.yul\":25837:26469   */\n    tag_493:\n        /* \"#utility.yul\":25889:25893   */\n      0x1f\n        /* \"#utility.yul\":25885:25894   */\n      not\n        /* \"#utility.yul\":25877:25883   */\n      dup5\n        /* \"#utility.yul\":25873:25895   */\n      and\n        /* \"#utility.yul\":25923:25960   */\n      tag_496\n        /* \"#utility.yul\":25955:25959   */\n      dup7\n        /* \"#utility.yul\":25923:25960   */\n      tag_238\n      jump\t// in\n    tag_496:\n        /* \"#utility.yul\":25982:25983   */\n      0x00\n        /* \"#utility.yul\":25996:26211   */\n    tag_497:\n        /* \"#utility.yul\":26010:26017   */\n      dup3\n        /* \"#utility.yul\":26007:26008   */\n      dup2\n        /* \"#utility.yul\":26004:26018   */\n      lt\n        /* \"#utility.yul\":25996:26211   */\n      iszero\n      tag_499\n      jumpi\n        /* \"#utility.yul\":26096:26105   */\n      dup5\n        /* \"#utility.yul\":26091:26094   */\n      dup10\n        /* \"#utility.yul\":26087:26106   */\n      add\n        /* \"#utility.yul\":26074:26107   */\n      calldataload\n        /* \"#utility.yul\":26066:26072   */\n      dup3\n        /* \"#utility.yul\":26059:26108   */\n      sstore\n        /* \"#utility.yul\":26147:26148   */\n      0x01\n        /* \"#utility.yul\":26139:26145   */\n      dup3\n        /* \"#utility.yul\":26135:26149   */\n      add\n        /* \"#utility.yul\":26125:26149   */\n      swap2\n      pop\n        /* \"#utility.yul\":26194:26196   */\n      0x20\n        /* \"#utility.yul\":26183:26192   */\n      dup6\n        /* \"#utility.yul\":26179:26197   */\n      add\n        /* \"#utility.yul\":26166:26197   */\n      swap5\n      pop\n        /* \"#utility.yul\":26033:26037   */\n      0x20\n        /* \"#utility.yul\":26030:26031   */\n      dup2\n        /* \"#utility.yul\":26026:26038   */\n      add\n        /* \"#utility.yul\":26021:26038   */\n      swap1\n      pop\n        /* \"#utility.yul\":25996:26211   */\n      jump(tag_497)\n    tag_499:\n        /* \"#utility.yul\":26239:26245   */\n      dup7\n        /* \"#utility.yul\":26230:26237   */\n      dup4\n        /* \"#utility.yul\":26227:26246   */\n      lt\n        /* \"#utility.yul\":26224:26410   */\n      iszero\n      tag_500\n      jumpi\n        /* \"#utility.yul\":26304:26313   */\n      dup5\n        /* \"#utility.yul\":26299:26302   */\n      dup10\n        /* \"#utility.yul\":26295:26314   */\n      add\n        /* \"#utility.yul\":26282:26315   */\n      calldataload\n        /* \"#utility.yul\":26347:26395   */\n      tag_501\n        /* \"#utility.yul\":26389:26393   */\n      0x1f\n        /* \"#utility.yul\":26381:26387   */\n      dup10\n        /* \"#utility.yul\":26377:26394   */\n      and\n        /* \"#utility.yul\":26366:26375   */\n      dup3\n        /* \"#utility.yul\":26347:26395   */\n      tag_251\n      jump\t// in\n    tag_501:\n        /* \"#utility.yul\":26339:26345   */\n      dup4\n        /* \"#utility.yul\":26332:26396   */\n      sstore\n        /* \"#utility.yul\":26247:26410   */\n      pop\n        /* \"#utility.yul\":26224:26410   */\n    tag_500:\n        /* \"#utility.yul\":26456:26457   */\n      0x01\n        /* \"#utility.yul\":26452:26453   */\n      0x02\n        /* \"#utility.yul\":26444:26450   */\n      dup9\n        /* \"#utility.yul\":26440:26454   */\n      mul\n        /* \"#utility.yul\":26436:26458   */\n      add\n        /* \"#utility.yul\":26430:26434   */\n      dup9\n        /* \"#utility.yul\":26423:26459   */\n      sstore\n        /* \"#utility.yul\":25844:26469   */\n      pop\n      pop\n      pop\n        /* \"#utility.yul\":25807:26715   */\n    tag_492:\n      pop\n        /* \"#utility.yul\":25417:26721   */\n      pop\n      pop\n      pop\n        /* \"#utility.yul\":25318:26721   */\n      pop\n      pop\n      pop\n      jump\t// out\n        /* \"#utility.yul\":26727:26875   */\n    tag_256:\n        /* \"#utility.yul\":26825:26831   */\n      dup3\n        /* \"#utility.yul\":26820:26823   */\n      dup2\n        /* \"#utility.yul\":26815:26818   */\n      dup4\n        /* \"#utility.yul\":26802:26832   */\n      calldatacopy\n        /* \"#utility.yul\":26866:26867   */\n      0x00\n        /* \"#utility.yul\":26857:26863   */\n      dup4\n        /* \"#utility.yul\":26852:26855   */\n      dup4\n        /* \"#utility.yul\":26848:26864   */\n      add\n        /* \"#utility.yul\":26841:26868   */\n      mstore\n        /* \"#utility.yul\":26727:26875   */\n      pop\n      pop\n      pop\n      jump\t// out\n        /* \"#utility.yul\":26905:27222   */\n    tag_257:\n        /* \"#utility.yul\":27003:27006   */\n      0x00\n        /* \"#utility.yul\":27024:27095   */\n      tag_504\n        /* \"#utility.yul\":27088:27094   */\n      dup4\n        /* \"#utility.yul\":27083:27086   */\n      dup6\n        /* \"#utility.yul\":27024:27095   */\n      tag_204\n      jump\t// in\n    tag_504:\n        /* \"#utility.yul\":27017:27095   */\n      swap4\n      pop\n        /* \"#utility.yul\":27105:27161   */\n      tag_505\n        /* \"#utility.yul\":27154:27160   */\n      dup4\n        /* \"#utility.yul\":27149:27152   */\n      dup6\n        /* \"#utility.yul\":27142:27147   */\n      dup5\n        /* \"#utility.yul\":27105:27161   */\n      tag_256\n      jump\t// in\n    tag_505:\n        /* \"#utility.yul\":27186:27215   */\n      tag_506\n        /* \"#utility.yul\":27208:27214   */\n      dup4\n        /* \"#utility.yul\":27186:27215   */\n      tag_206\n      jump\t// in\n    tag_506:\n        /* \"#utility.yul\":27181:27184   */\n      dup5\n        /* \"#utility.yul\":27177:27216   */\n      add\n        /* \"#utility.yul\":27170:27216   */\n      swap1\n      pop\n        /* \"#utility.yul\":26905:27222   */\n      swap4\n      swap3\n      pop\n      pop\n      pop\n      jump\t// out\n        /* \"#utility.yul\":27228:27561   */\n    tag_186:\n        /* \"#utility.yul\":27351:27355   */\n      0x00\n        /* \"#utility.yul\":27389:27391   */\n      0x20\n        /* \"#utility.yul\":27378:27387   */\n      dup3\n        /* \"#utility.yul\":27374:27392   */\n      add\n        /* \"#utility.yul\":27366:27392   */\n      swap1\n      pop\n        /* \"#utility.yul\":27438:27447   */\n      dup2\n        /* \"#utility.yul\":27432:27436   */\n      dup2\n        /* \"#utility.yul\":27428:27448   */\n      sub\n        /* \"#utility.yul\":27424:27425   */\n      0x00\n        /* \"#utility.yul\":27413:27422   */\n      dup4\n        /* \"#utility.yul\":27409:27426   */\n      add\n        /* \"#utility.yul\":27402:27449   */\n      mstore\n        /* \"#utility.yul\":27466:27554   */\n      tag_508\n        /* \"#utility.yul\":27549:27553   */\n      dup2\n        /* \"#utility.yul\":27540:27546   */\n      dup5\n        /* \"#utility.yul\":27532:27538   */\n      dup7\n        /* \"#utility.yul\":27466:27554   */\n      tag_257\n      jump\t// in\n    tag_508:\n        /* \"#utility.yul\":27458:27554   */\n      swap1\n      pop\n        /* \"#utility.yul\":27228:27561   */\n      swap4\n      swap3\n      pop\n      pop\n      pop\n      jump\t// out\n\n    auxdata: 0xa2646970667358221220287f2659c0d50cd24ecab6b4ea9034f5f840236449209fef1a2cdbbac7c3ae7e64736f6c634300081f0033\n}\n",
				"bytecode": {
					"linkReferences": {},
					"object": "6080604052348015600f57600080fd5b506121cd8061001f6000396000f3fe6080604052600436106100865760003560e01c8063a5c1674e11610059578063a5c1674e1461013b578063b0c2aa5e14610164578063bf0077ef1461018f578063bf22c457146101cc578063da8accf91461020e57610086565b80630e33599d1461008b578063180aedf3146100b45780633d01e0fa146100f65780638d22b8631461011f575b600080fd5b34801561009757600080fd5b506100b260048036038101906100ad9190611457565b610237565b005b3480156100c057600080fd5b506100db60048036038101906100d69190611497565b610589565b6040516100ed969594939291906115e9565b60405180910390f35b34801561010257600080fd5b5061011d60048036038101906101189190611497565b6106ba565b005b61013960048036038101906101349190611497565b610938565b005b34801561014757600080fd5b50610162600480360381019061015d9190611497565b610b32565b005b34801561017057600080fd5b50610179610d21565b6040516101869190611651565b60405180910390f35b34801561019b57600080fd5b506101b660048036038101906101b1919061166c565b610d27565b6040516101c39190611651565b60405180910390f35b3480156101d857600080fd5b506101f360048036038101906101ee9190611497565b6110a0565b604051610205969594939291906115e9565b60405180910390f35b34801561021a57600080fd5b5061023560048036038101906102309190611724565b6111ed565b005b816001600082815260200190815260200160002060020160009054906101000a900473ffffffffffffffffffffffffffffffffffffffff1673ffffffffffffffffffffffffffffffffffffffff163373ffffffffffffffffffffffffffffffffffffffff16146102dc576040517f08c379a00000000000000000000000000000000000000000000000000000000081526004016102d3906117d0565b60405180910390fd5b8260048060058111156102f2576102f16114e2565b5b6001600084815260200190815260200160002060040160009054906101000a900460ff166005811115610328576103276114e2565b5b14610368576040517f08c379a000000000000000000000000000000000000000000000000000000000815260040161035f9061183c565b60405180910390fd5b60006001600087815260200190815260200160002090508060000160009054906101000a900473ffffffffffffffffffffffffffffffffffffffff1673ffffffffffffffffffffffffffffffffffffffff168573ffffffffffffffffffffffffffffffffffffffff16148061042c57508060010160009054906101000a900473ffffffffffffffffffffffffffffffffffffffff1673ffffffffffffffffffffffffffffffffffffffff168573ffffffffffffffffffffffffffffffffffffffff16145b61046b576040517f08c379a0000000000000000000000000000000000000000000000000000000008152600401610462906118ce565b60405180910390fd5b60058160040160006101000a81548160ff02191690836005811115610493576104926114e2565b5b021790555060008573ffffffffffffffffffffffffffffffffffffffff1682600301546040516104c29061191f565b60006040518083038185875af1925050503d80600081146104ff576040519150601f19603f3d011682016040523d82523d6000602084013e610504565b606091505b5050905080610548576040517f08c379a000000000000000000000000000000000000000000000000000000000815260040161053f90611980565b60405180910390fd5b867ff77ceb5e091d2da041bc760667f9d5fe7a756949eaf29250ad0e60ca6f4c27d98760405161057891906119a0565b60405180910390a250505050505050565b60016020528060005260406000206000915090508060000160009054906101000a900473ffffffffffffffffffffffffffffffffffffffff16908060010160009054906101000a900473ffffffffffffffffffffffffffffffffffffffff16908060020160009054906101000a900473ffffffffffffffffffffffffffffffffffffffff16908060030154908060040160009054906101000a900460ff1690806005018054610637906119ea565b80601f0160208091040260200160405190810160405280929190818152602001828054610663906119ea565b80156106b05780601f10610685576101008083540402835291602001916106b0565b820191906000526020600020905b81548152906001019060200180831161069357829003601f168201915b5050505050905086565b806001600082815260200190815260200160002060000160009054906101000a900473ffffffffffffffffffffffffffffffffffffffff1673ffffffffffffffffffffffffffffffffffffffff163373ffffffffffffffffffffffffffffffffffffffff161461075f576040517f08c379a000000000000000000000000000000000000000000000000000000000815260040161075690611a67565b60405180910390fd5b816002806005811115610775576107746114e2565b5b6001600084815260200190815260200160002060040160009054906101000a900460ff1660058111156107ab576107aa6114e2565b5b146107eb576040517f08c379a00000000000000000000000000000000000000000000000000000000081526004016107e29061183c565b60405180910390fd5b600060016000868152602001908152602001600020905060038160040160006101000a81548160ff0219169083600581111561082a576108296114e2565b5b021790555060008160010160009054906101000a900473ffffffffffffffffffffffffffffffffffffffff1673ffffffffffffffffffffffffffffffffffffffff16826003015460405161087d9061191f565b60006040518083038185875af1925050503d80600081146108ba576040519150601f19603f3d011682016040523d82523d6000602084013e6108bf565b606091505b5050905080610903576040517f08c379a00000000000000000000000000000000000000000000000000000000081526004016108fa90611980565b60405180910390fd5b857f2b88058042496b0bb1ee5166ce824d56981c8ac5f99ce696568be4ceed8dafde60405160405180910390a2505050505050565b806001600082815260200190815260200160002060000160009054906101000a900473ffffffffffffffffffffffffffffffffffffffff1673ffffffffffffffffffffffffffffffffffffffff163373ffffffffffffffffffffffffffffffffffffffff16146109dd576040517f08c379a00000000000000000000000000000000000000000000000000000000081526004016109d490611a67565b60405180910390fd5b8160008060058111156109f3576109f26114e2565b5b6001600084815260200190815260200160002060040160009054906101000a900460ff166005811115610a2957610a286114e2565b5b14610a69576040517f08c379a0000000000000000000000000000000000000000000000000000000008152600401610a609061183c565b60405180910390fd5b600060016000868152602001908152602001600020905080600301543414610ac6576040517f08c379a0000000000000000000000000000000000000000000000000000000008152600401610abd90611ad3565b60405180910390fd5b60018160040160006101000a81548160ff02191690836005811115610aee57610aed6114e2565b5b0217905550847f9d25c5cf940eed311c45e5a0b4c7c8790a356d3c356453b76bb7e232db3f384a34604051610b239190611651565b60405180910390a25050505050565b806002806005811115610b4857610b476114e2565b5b6001600084815260200190815260200160002060040160009054906101000a900460ff166005811115610b7e57610b7d6114e2565b5b14610bbe576040517f08c379a0000000000000000000000000000000000000000000000000000000008152600401610bb59061183c565b60405180910390fd5b60006001600085815260200190815260200160002090508060000160009054906101000a900473ffffffffffffffffffffffffffffffffffffffff1673ffffffffffffffffffffffffffffffffffffffff163373ffffffffffffffffffffffffffffffffffffffff161480610c8257508060010160009054906101000a900473ffffffffffffffffffffffffffffffffffffffff1673ffffffffffffffffffffffffffffffffffffffff163373ffffffffffffffffffffffffffffffffffffffff16145b610cc1576040517f08c379a0000000000000000000000000000000000000000000000000000000008152600401610cb890611b3f565b60405180910390fd5b60048160040160006101000a81548160ff02191690836005811115610ce957610ce86114e2565b5b0217905550837f04901f83201c8724eadf084436db8aa391820bae6d11f9f78a17edb6f2eef3cf60405160405180910390a250505050565b60005481565b60008073ffffffffffffffffffffffffffffffffffffffff168473ffffffffffffffffffffffffffffffffffffffff1603610d97576040517f08c379a0000000000000000000000000000000000000000000000000000000008152600401610d8e90611bab565b60405180910390fd5b600073ffffffffffffffffffffffffffffffffffffffff168373ffffffffffffffffffffffffffffffffffffffff1603610e06576040517f08c379a0000000000000000000000000000000000000000000000000000000008152600401610dfd90611c17565b60405180910390fd5b60008211610e49576040517f08c379a0000000000000000000000000000000000000000000000000000000008152600401610e4090611c83565b60405180910390fd5b6000549050600080815480929190610e6090611cd2565b91905055506040518060c001604052803373ffffffffffffffffffffffffffffffffffffffff1681526020018573ffffffffffffffffffffffffffffffffffffffff1681526020018473ffffffffffffffffffffffffffffffffffffffff16815260200183815260200160006005811115610ede57610edd6114e2565b5b8152602001604051806020016040528060008152508152506001600083815260200190815260200160002060008201518160000160006101000a81548173ffffffffffffffffffffffffffffffffffffffff021916908373ffffffffffffffffffffffffffffffffffffffff16021790555060208201518160010160006101000a81548173ffffffffffffffffffffffffffffffffffffffff021916908373ffffffffffffffffffffffffffffffffffffffff16021790555060408201518160020160006101000a81548173ffffffffffffffffffffffffffffffffffffffff021916908373ffffffffffffffffffffffffffffffffffffffff1602179055506060820151816003015560808201518160040160006101000a81548160ff02191690836005811115611013576110126114e2565b5b021790555060a082015181600501908161102d9190611ef5565b509050508373ffffffffffffffffffffffffffffffffffffffff163373ffffffffffffffffffffffffffffffffffffffff16827fef137df1d007645178f3f70e5c306d8d0b84bb5c70cabda9bb0f8f3c71932a0f8686604051611091929190611fc7565b60405180910390a49392505050565b6000806000806000606060006001600089815260200190815260200160002090508060000160009054906101000a900473ffffffffffffffffffffffffffffffffffffffff168160010160009054906101000a900473ffffffffffffffffffffffffffffffffffffffff168260020160009054906101000a900473ffffffffffffffffffffffffffffffffffffffff1683600301548460040160009054906101000a900460ff1685600501808054611157906119ea565b80601f0160208091040260200160405190810160405280929190818152602001828054611183906119ea565b80156111d05780601f106111a5576101008083540402835291602001916111d0565b820191906000526020600020905b8154815290600101906020018083116111b357829003601f168201915b505050505090509650965096509650965096505091939550919395565b826001600082815260200190815260200160002060010160009054906101000a900473ffffffffffffffffffffffffffffffffffffffff1673ffffffffffffffffffffffffffffffffffffffff163373ffffffffffffffffffffffffffffffffffffffff1614611292576040517f08c379a00000000000000000000000000000000000000000000000000000000081526004016112899061203c565b60405180910390fd5b8360018060058111156112a8576112a76114e2565b5b6001600084815260200190815260200160002060040160009054906101000a900460ff1660058111156112de576112dd6114e2565b5b1461131e576040517f08c379a00000000000000000000000000000000000000000000000000000000081526004016113159061183c565b60405180910390fd5b60006001600088815260200190815260200160002090508585826005019182611348929190612067565b5060028160040160006101000a81548160ff02191690836005811115611371576113706114e2565b5b0217905550867f3822c71b106c7c1dabf7f076e68c9bd98c45d0cd0d073f4dcdaf422a0fe5584787876040516113a8929190612173565b60405180910390a250505050505050565b600080fd5b600080fd5b6000819050919050565b6113d6816113c3565b81146113e157600080fd5b50565b6000813590506113f3816113cd565b92915050565b600073ffffffffffffffffffffffffffffffffffffffff82169050919050565b6000611424826113f9565b9050919050565b61143481611419565b811461143f57600080fd5b50565b6000813590506114518161142b565b92915050565b6000806040838503121561146e5761146d6113b9565b5b600061147c858286016113e4565b925050602061148d85828601611442565b9150509250929050565b6000602082840312156114ad576114ac6113b9565b5b60006114bb848285016113e4565b91505092915050565b6114cd81611419565b82525050565b6114dc816113c3565b82525050565b7f4e487b7100000000000000000000000000000000000000000000000000000000600052602160045260246000fd5b60068110611522576115216114e2565b5b50565b600081905061153382611511565b919050565b600061154382611525565b9050919050565b61155381611538565b82525050565b600081519050919050565b600082825260208201905092915050565b60005b83811015611593578082015181840152602081019050611578565b60008484015250505050565b6000601f19601f8301169050919050565b60006115bb82611559565b6115c58185611564565b93506115d5818560208601611575565b6115de8161159f565b840191505092915050565b600060c0820190506115fe60008301896114c4565b61160b60208301886114c4565b61161860408301876114c4565b61162560608301866114d3565b611632608083018561154a565b81810360a083015261164481846115b0565b9050979650505050505050565b600060208201905061166660008301846114d3565b92915050565b600080600060608486031215611685576116846113b9565b5b600061169386828701611442565b93505060206116a486828701611442565b92505060406116b5868287016113e4565b9150509250925092565b600080fd5b600080fd5b600080fd5b60008083601f8401126116e4576116e36116bf565b5b8235905067ffffffffffffffff811115611701576117006116c4565b5b60208301915083600182028301111561171d5761171c6116c9565b5b9250929050565b60008060006040848603121561173d5761173c6113b9565b5b600061174b868287016113e4565b935050602084013567ffffffffffffffff81111561176c5761176b6113be565b5b611778868287016116ce565b92509250509250925092565b7f4e6f74206a6f622061726269747261746f720000000000000000000000000000600082015250565b60006117ba601283611564565b91506117c582611784565b602082019050919050565b600060208201905081810360008301526117e9816117ad565b9050919050565b7f496e76616c6964206a6f62207374617465000000000000000000000000000000600082015250565b6000611826601183611564565b9150611831826117f0565b602082019050919050565b6000602082019050818103600083015261185581611819565b9050919050565b7f57696e6e6572206d75737420626520636c69656e74206f7220667265656c616e60008201527f6365720000000000000000000000000000000000000000000000000000000000602082015250565b60006118b8602383611564565b91506118c38261185c565b604082019050919050565b600060208201905081810360008301526118e7816118ab565b9050919050565b600081905092915050565b50565b60006119096000836118ee565b9150611914826118f9565b600082019050919050565b600061192a826118fc565b9150819050919050565b7f5061796d656e74206661696c6564000000000000000000000000000000000000600082015250565b600061196a600e83611564565b915061197582611934565b602082019050919050565b600060208201905081810360008301526119998161195d565b9050919050565b60006020820190506119b560008301846114c4565b92915050565b7f4e487b7100000000000000000000000000000000000000000000000000000000600052602260045260246000fd5b60006002820490506001821680611a0257607f821691505b602082108103611a1557611a146119bb565b5b50919050565b7f4e6f74206a6f6220636c69656e74000000000000000000000000000000000000600082015250565b6000611a51600e83611564565b9150611a5c82611a1b565b602082019050919050565b60006020820190508181036000830152611a8081611a44565b9050919050565b7f496e636f72726563742066756e64696e6720616d6f756e740000000000000000600082015250565b6000611abd601883611564565b9150611ac882611a87565b602082019050919050565b60006020820190508181036000830152611aec81611ab0565b9050919050565b7f4f6e6c7920636c69656e74206f7220667265656c616e63657200000000000000600082015250565b6000611b29601983611564565b9150611b3482611af3565b602082019050919050565b60006020820190508181036000830152611b5881611b1c565b9050919050565b7f467265656c616e63657220726571756972656400000000000000000000000000600082015250565b6000611b95601383611564565b9150611ba082611b5f565b602082019050919050565b60006020820190508181036000830152611bc481611b88565b9050919050565b7f41726269747261746f7220726571756972656400000000000000000000000000600082015250565b6000611c01601383611564565b9150611c0c82611bcb565b602082019050919050565b60006020820190508181036000830152611c3081611bf4565b9050919050565b7f416d6f756e74206d757374206265203e20300000000000000000000000000000600082015250565b6000611c6d601283611564565b9150611c7882611c37565b602082019050919050565b60006020820190508181036000830152611c9c81611c60565b9050919050565b7f4e487b7100000000000000000000000000000000000000000000000000000000600052601160045260246000fd5b6000611cdd826113c3565b91507fffffffffffffffffffffffffffffffffffffffffffffffffffffffffffffffff8203611d0f57611d0e611ca3565b5b600182019050919050565b7f4e487b7100000000000000000000000000000000000000000000000000000000600052604160045260246000fd5b60008190508160005260206000209050919050565b60006020601f8301049050919050565b600082821b905092915050565b600060088302611dab7fffffffffffffffffffffffffffffffffffffffffffffffffffffffffffffffff82611d6e565b611db58683611d6e565b95508019841693508086168417925050509392505050565b6000819050919050565b6000611df2611ded611de8846113c3565b611dcd565b6113c3565b9050919050565b6000819050919050565b611e0c83611dd7565b611e20611e1882611df9565b848454611d7b565b825550505050565b600090565b611e35611e28565b611e40818484611e03565b505050565b5b81811015611e6457611e59600082611e2d565b600181019050611e46565b5050565b601f821115611ea957611e7a81611d49565b611e8384611d5e565b81016020851015611e92578190505b611ea6611e9e85611d5e565b830182611e45565b50505b505050565b600082821c905092915050565b6000611ecc60001984600802611eae565b1980831691505092915050565b6000611ee58383611ebb565b9150826002028217905092915050565b611efe82611559565b67ffffffffffffffff811115611f1757611f16611d1a565b5b611f2182546119ea565b611f2c828285611e68565b600060209050601f831160018114611f5f5760008415611f4d578287015190505b611f578582611ed9565b865550611fbf565b601f198416611f6d86611d49565b60005b82811015611f9557848901518255600182019150602085019450602081019050611f70565b86831015611fb25784890151611fae601f891682611ebb565b8355505b6001600288020188555050505b505050505050565b6000604082019050611fdc60008301856114c4565b611fe960208301846114d3565b9392505050565b7f4e6f74206a6f6220667265656c616e6365720000000000000000000000000000600082015250565b6000612026601283611564565b915061203182611ff0565b602082019050919050565b6000602082019050818103600083015261205581612019565b9050919050565b600082905092915050565b612071838361205c565b67ffffffffffffffff81111561208a57612089611d1a565b5b61209482546119ea565b61209f828285611e68565b6000601f8311600181146120ce57600084156120bc578287013590505b6120c68582611ed9565b86555061212e565b601f1984166120dc86611d49565b60005b82811015612104578489013582556001820191506020850194506020810190506120df565b86831015612121578489013561211d601f891682611ebb565b8355505b6001600288020188555050505b50505050505050565b82818337600083830152505050565b60006121528385611564565b935061215f838584612137565b6121688361159f565b840190509392505050565b6000602082019050818103600083015261218e818486612146565b9050939250505056fea2646970667358221220287f2659c0d50cd24ecab6b4ea9034f5f840236449209fef1a2cdbbac7c3ae7e64736f6c634300081f0033",
					"opcodes": "PUSH1 0x80 PUSH1 0x40 MSTORE CALLVALUE DUP1 ISZERO PUSH1 0xF JUMPI PUSH1 0x0 DUP1 REVERT JUMPDEST POP PUSH2 0x21CD DUP1 PUSH2 0x1F PUSH1 0x0 CODECOPY PUSH1 0x0 RETURN INVALID PUSH1 0x80 PUSH1 0x40 MSTORE PUSH1 0x4 CALLDATASIZE LT PUSH2 0x86 JUMPI PUSH1 0x0 CALLDATALOAD PUSH1 0xE0 SHR DUP1 PUSH4 0xA5C1674E GT PUSH2 0x59 JUMPI DUP1 PUSH4 0xA5C1674E EQ PUSH2 0x13B JUMPI DUP1 PUSH4 0xB0C2AA5E EQ PUSH2 0x164 JUMPI DUP1 PUSH4 0xBF0077EF EQ PUSH2 0x18F JUMPI DUP1 PUSH4 0xBF22C457 EQ PUSH2 0x1CC JUMPI DUP1 PUSH4 0xDA8ACCF9 EQ PUSH2 0x20E JUMPI PUSH2 0x86 JUMP JUMPDEST DUP1 PUSH4 0xE33599D EQ PUSH2 0x8B JUMPI DUP1 PUSH4 0x180AEDF3 EQ PUSH2 0xB4 JUMPI DUP1 PUSH4 0x3D01E0FA EQ PUSH2 0xF6 JUMPI DUP1 PUSH4 0x8D22B863 EQ PUSH2 0x11F JUMPI JUMPDEST PUSH1 0x0 DUP1 REVERT JUMPDEST CALLVALUE DUP1 ISZERO PUSH2 0x97 JUMPI PUSH1 0x0 DUP1 REVERT JUMPDEST POP PUSH2 0xB2 PUSH1 0x4 DUP1 CALLDATASIZE SUB DUP2 ADD SWAP1 PUSH2 0xAD SWAP2 SWAP1 PUSH2 0x1457 JUMP JUMPDEST PUSH2 0x237 JUMP JUMPDEST STOP JUMPDEST CALLVALUE DUP1 ISZERO PUSH2 0xC0 JUMPI PUSH1 0x0 DUP1 REVERT JUMPDEST POP PUSH2 0xDB PUSH1 0x4 DUP1 CALLDATASIZE SUB DUP2 ADD SWAP1 PUSH2 0xD6 SWAP2 SWAP1 PUSH2 0x1497 JUMP JUMPDEST PUSH2 0x589 JUMP JUMPDEST PUSH1 0x40 MLOAD PUSH2 0xED SWAP7 SWAP6 SWAP5 SWAP4 SWAP3 SWAP2 SWAP1 PUSH2 0x15E9 JUMP JUMPDEST PUSH1 0x40 MLOAD DUP1 SWAP2 SUB SWAP1 RETURN JUMPDEST CALLVALUE DUP1 ISZERO PUSH2 0x102 JUMPI PUSH1 0x0 DUP1 REVERT JUMPDEST POP PUSH2 0x11D PUSH1 0x4 DUP1 CALLDATASIZE SUB DUP2 ADD SWAP1 PUSH2 0x118 SWAP2 SWAP1 PUSH2 0x1497 JUMP JUMPDEST PUSH2 0x6BA JUMP JUMPDEST STOP JUMPDEST PUSH2 0x139 PUSH1 0x4 DUP1 CALLDATASIZE SUB DUP2 ADD SWAP1 PUSH2 0x134 SWAP2 SWAP1 PUSH2 0x1497 JUMP JUMPDEST PUSH2 0x938 JUMP JUMPDEST STOP JUMPDEST CALLVALUE DUP1 ISZERO PUSH2 0x147 JUMPI PUSH1 0x0 DUP1 REVERT JUMPDEST POP PUSH2 0x162 PUSH1 0x4 DUP1 CALLDATASIZE SUB DUP2 ADD SWAP1 PUSH2 0x15D SWAP2 SWAP1 PUSH2 0x1497 JUMP JUMPDEST PUSH2 0xB32 JUMP JUMPDEST STOP JUMPDEST CALLVALUE DUP1 ISZERO PUSH2 0x170 JUMPI PUSH1 0x0 DUP1 REVERT JUMPDEST POP PUSH2 0x179 PUSH2 0xD21 JUMP JUMPDEST PUSH1 0x40 MLOAD PUSH2 0x186 SWAP2 SWAP1 PUSH2 0x1651 JUMP JUMPDEST PUSH1 0x40 MLOAD DUP1 SWAP2 SUB SWAP1 RETURN JUMPDEST CALLVALUE DUP1 ISZERO PUSH2 0x19B JUMPI PUSH1 0x0 DUP1 REVERT JUMPDEST POP PUSH2 0x1B6 PUSH1 0x4 DUP1 CALLDATASIZE SUB DUP2 ADD SWAP1 PUSH2 0x1B1 SWAP2 SWAP1 PUSH2 0x166C JUMP JUMPDEST PUSH2 0xD27 JUMP JUMPDEST PUSH1 0x40 MLOAD PUSH2 0x1C3 SWAP2 SWAP1 PUSH2 0x1651 JUMP JUMPDEST PUSH1 0x40 MLOAD DUP1 SWAP2 SUB SWAP1 RETURN JUMPDEST CALLVALUE DUP1 ISZERO PUSH2 0x1D8 JUMPI PUSH1 0x0 DUP1 REVERT JUMPDEST POP PUSH2 0x1F3 PUSH1 0x4 DUP1 CALLDATASIZE SUB DUP2 ADD SWAP1 PUSH2 0x1EE SWAP2 SWAP1 PUSH2 0x1497 JUMP JUMPDEST PUSH2 0x10A0 JUMP JUMPDEST PUSH1 0x40 MLOAD PUSH2 0x205 SWAP7 SWAP6 SWAP5 SWAP4 SWAP3 SWAP2 SWAP1 PUSH2 0x15E9 JUMP JUMPDEST PUSH1 0x40 MLOAD DUP1 SWAP2 SUB SWAP1 RETURN JUMPDEST CALLVALUE DUP1 ISZERO PUSH2 0x21A JUMPI PUSH1 0x0 DUP1 REVERT JUMPDEST POP PUSH2 0x235 PUSH1 0x4 DUP1 CALLDATASIZE SUB DUP2 ADD SWAP1 PUSH2 0x230 SWAP2 SWAP1 PUSH2 0x1724 JUMP JUMPDEST PUSH2 0x11ED JUMP JUMPDEST STOP JUMPDEST DUP2 PUSH1 0x1 PUSH1 0x0 DUP3 DUP2 MSTORE PUSH1 0x20 ADD SWAP1 DUP2 MSTORE PUSH1 0x20 ADD PUSH1 0x0 KECCAK256 PUSH1 0x2 ADD PUSH1 0x0 SWAP1 SLOAD SWAP1 PUSH2 0x100 EXP SWAP1 DIV PUSH20 0xFFFFFFFFFFFFFFFFFFFFFFFFFFFFFFFFFFFFFFFF AND PUSH20 0xFFFFFFFFFFFFFFFFFFFFFFFFFFFFFFFFFFFFFFFF AND CALLER PUSH20 0xFFFFFFFFFFFFFFFFFFFFFFFFFFFFFFFFFFFFFFFF AND EQ PUSH2 0x2DC JUMPI PUSH1 0x40 MLOAD PUSH32 0x8C379A000000000000000000000000000000000000000000000000000000000 DUP2 MSTORE PUSH1 0x4 ADD PUSH2 0x2D3 SWAP1 PUSH2 0x17D0 JUMP JUMPDEST PUSH1 0x40 MLOAD DUP1 SWAP2 SUB SWAP1 REVERT JUMPDEST DUP3 PUSH1 0x4 DUP1 PUSH1 0x5 DUP2 GT ISZERO PUSH2 0x2F2 JUMPI PUSH2 0x2F1 PUSH2 0x14E2 JUMP JUMPDEST JUMPDEST PUSH1 0x1 PUSH1 0x0 DUP5 DUP2 MSTORE PUSH1 0x20 ADD SWAP1 DUP2 MSTORE PUSH1 0x20 ADD PUSH1 0x0 KECCAK256 PUSH1 0x4 ADD PUSH1 0x0 SWAP1 SLOAD SWAP1 PUSH2 0x100 EXP SWAP1 DIV PUSH1 0xFF AND PUSH1 0x5 DUP2 GT ISZERO PUSH2 0x328 JUMPI PUSH2 0x327 PUSH2 0x14E2 JUMP JUMPDEST JUMPDEST EQ PUSH2 0x368 JUMPI PUSH1 0x40 MLOAD PUSH32 0x8C379A000000000000000000000000000000000000000000000000000000000 DUP2 MSTORE PUSH1 0x4 ADD PUSH2 0x35F SWAP1 PUSH2 0x183C JUMP JUMPDEST PUSH1 0x40 MLOAD DUP1 SWAP2 SUB SWAP1 REVERT JUMPDEST PUSH1 0x0 PUSH1 0x1 PUSH1 0x0 DUP8 DUP2 MSTORE PUSH1 0x20 ADD SWAP1 DUP2 MSTORE PUSH1 0x20 ADD PUSH1 0x0 KECCAK256 SWAP1 POP DUP1 PUSH1 0x0 ADD PUSH1 0x0 SWAP1 SLOAD SWAP1 PUSH2 0x100 EXP SWAP1 DIV PUSH20 0xFFFFFFFFFFFFFFFFFFFFFFFFFFFFFFFFFFFFFFFF AND PUSH20 0xFFFFFFFFFFFFFFFFFFFFFFFFFFFFFFFFFFFFFFFF AND DUP6 PUSH20 0xFFFFFFFFFFFFFFFFFFFFFFFFFFFFFFFFFFFFFFFF AND EQ DUP1 PUSH2 0x42C JUMPI POP DUP1 PUSH1 0x1 ADD PUSH1 0x0 SWAP1 SLOAD SWAP1 PUSH2 0x100 EXP SWAP1 DIV PUSH20 0xFFFFFFFFFFFFFFFFFFFFFFFFFFFFFFFFFFFFFFFF AND PUSH20 0xFFFFFFFFFFFFFFFFFFFFFFFFFFFFFFFFFFFFFFFF AND DUP6 PUSH20 0xFFFFFFFFFFFFFFFFFFFFFFFFFFFFFFFFFFFFFFFF AND EQ JUMPDEST PUSH2 0x46B JUMPI PUSH1 0x40 MLOAD PUSH32 0x8C379A000000000000000000000000000000000000000000000000000000000 DUP2 MSTORE PUSH1 0x4 ADD PUSH2 0x462 SWAP1 PUSH2 0x18CE JUMP JUMPDEST PUSH1 0x40 MLOAD DUP1 SWAP2 SUB SWAP1 REVERT JUMPDEST PUSH1 0x5 DUP2 PUSH1 0x4 ADD PUSH1 0x0 PUSH2 0x100 EXP DUP2 SLOAD DUP2 PUSH1 0xFF MUL NOT AND SWAP1 DUP4 PUSH1 0x5 DUP2 GT ISZERO PUSH2 0x493 JUMPI PUSH2 0x492 PUSH2 0x14E2 JUMP JUMPDEST JUMPDEST MUL OR SWAP1 SSTORE POP PUSH1 0x0 DUP6 PUSH20 0xFFFFFFFFFFFFFFFFFFFFFFFFFFFFFFFFFFFFFFFF AND DUP3 PUSH1 0x3 ADD SLOAD PUSH1 0x40 MLOAD PUSH2 0x4C2 SWAP1 PUSH2 0x191F JUMP JUMPDEST PUSH1 0x0 PUSH1 0x40 MLOAD DUP1 DUP4 SUB DUP2 DUP6 DUP8 GAS CALL SWAP3 POP POP POP RETURNDATASIZE DUP1 PUSH1 0x0 DUP2 EQ PUSH2 0x4FF JUMPI PUSH1 0x40 MLOAD SWAP2 POP PUSH1 0x1F NOT PUSH1 0x3F RETURNDATASIZE ADD AND DUP3 ADD PUSH1 0x40 MSTORE RETURNDATASIZE DUP3 MSTORE RETURNDATASIZE PUSH1 0x0 PUSH1 0x20 DUP5 ADD RETURNDATACOPY PUSH2 0x504 JUMP JUMPDEST PUSH1 0x60 SWAP2 POP JUMPDEST POP POP SWAP1 POP DUP1 PUSH2 0x548 JUMPI PUSH1 0x40 MLOAD PUSH32 0x8C379A000000000000000000000000000000000000000000000000000000000 DUP2 MSTORE PUSH1 0x4 ADD PUSH2 0x53F SWAP1 PUSH2 0x1980 JUMP JUMPDEST PUSH1 0x40 MLOAD DUP1 SWAP2 SUB SWAP1 REVERT JUMPDEST DUP7 PUSH32 0xF77CEB5E091D2DA041BC760667F9D5FE7A756949EAF29250AD0E60CA6F4C27D9 DUP8 PUSH1 0x40 MLOAD PUSH2 0x578 SWAP2 SWAP1 PUSH2 0x19A0 JUMP JUMPDEST PUSH1 0x40 MLOAD DUP1 SWAP2 SUB SWAP1 LOG2 POP POP POP POP POP POP POP JUMP JUMPDEST PUSH1 0x1 PUSH1 0x20 MSTORE DUP1 PUSH1 0x0 MSTORE PUSH1 0x40 PUSH1 0x0 KECCAK256 PUSH1 0x0 SWAP2 POP SWAP1 POP DUP1 PUSH1 0x0 ADD PUSH1 0x0 SWAP1 SLOAD SWAP1 PUSH2 0x100 EXP SWAP1 DIV PUSH20 0xFFFFFFFFFFFFFFFFFFFFFFFFFFFFFFFFFFFFFFFF AND SWAP1 DUP1 PUSH1 0x1 ADD PUSH1 0x0 SWAP1 SLOAD SWAP1 PUSH2 0x100 EXP SWAP1 DIV PUSH20 0xFFFFFFFFFFFFFFFFFFFFFFFFFFFFFFFFFFFFFFFF AND SWAP1 DUP1 PUSH1 0x2 ADD PUSH1 0x0 SWAP1 SLOAD SWAP1 PUSH2 0x100 EXP SWAP1 DIV PUSH20 0xFFFFFFFFFFFFFFFFFFFFFFFFFFFFFFFFFFFFFFFF AND SWAP1 DUP1 PUSH1 0x3 ADD SLOAD SWAP1 DUP1 PUSH1 0x4 ADD PUSH1 0x0 SWAP1 SLOAD SWAP1 PUSH2 0x100 EXP SWAP1 DIV PUSH1 0xFF AND SWAP1 DUP1 PUSH1 0x5 ADD DUP1 SLOAD PUSH2 0x637 SWAP1 PUSH2 0x19EA JUMP JUMPDEST DUP1 PUSH1 0x1F ADD PUSH1 0x20 DUP1 SWAP2 DIV MUL PUSH1 0x20 ADD PUSH1 0x40 MLOAD SWAP1 DUP2 ADD PUSH1 0x40 MSTORE DUP1 SWAP3 SWAP2 SWAP1 DUP2 DUP2 MSTORE PUSH1 0x20 ADD DUP3 DUP1 SLOAD PUSH2 0x663 SWAP1 PUSH2 0x19EA JUMP JUMPDEST DUP1 ISZERO PUSH2 0x6B0 JUMPI DUP1 PUSH1 0x1F LT PUSH2 0x685 JUMPI PUSH2 0x100 DUP1 DUP4 SLOAD DIV MUL DUP4 MSTORE SWAP2 PUSH1 0x20 ADD SWAP2 PUSH2 0x6B0 JUMP JUMPDEST DUP3 ADD SWAP2 SWAP1 PUSH1 0x0 MSTORE PUSH1 0x20 PUSH1 0x0 KECCAK256 SWAP1 JUMPDEST DUP2 SLOAD DUP2 MSTORE SWAP1 PUSH1 0x1 ADD SWAP1 PUSH1 0x20 ADD DUP1 DUP4 GT PUSH2 0x693 JUMPI DUP3 SWAP1 SUB PUSH1 0x1F AND DUP3 ADD SWAP2 JUMPDEST POP POP POP POP POP SWAP1 POP DUP7 JUMP JUMPDEST DUP1 PUSH1 0x1 PUSH1 0x0 DUP3 DUP2 MSTORE PUSH1 0x20 ADD SWAP1 DUP2 MSTORE PUSH1 0x20 ADD PUSH1 0x0 KECCAK256 PUSH1 0x0 ADD PUSH1 0x0 SWAP1 SLOAD SWAP1 PUSH2 0x100 EXP SWAP1 DIV PUSH20 0xFFFFFFFFFFFFFFFFFFFFFFFFFFFFFFFFFFFFFFFF AND PUSH20 0xFFFFFFFFFFFFFFFFFFFFFFFFFFFFFFFFFFFFFFFF AND CALLER PUSH20 0xFFFFFFFFFFFFFFFFFFFFFFFFFFFFFFFFFFFFFFFF AND EQ PUSH2 0x75F JUMPI PUSH1 0x40 MLOAD PUSH32 0x8C379A000000000000000000000000000000000000000000000000000000000 DUP2 MSTORE PUSH1 0x4 ADD PUSH2 0x756 SWAP1 PUSH2 0x1A67 JUMP JUMPDEST PUSH1 0x40 MLOAD DUP1 SWAP2 SUB SWAP1 REVERT JUMPDEST DUP2 PUSH1 0x2 DUP1 PUSH1 0x5 DUP2 GT ISZERO PUSH2 0x775 JUMPI PUSH2 0x774 PUSH2 0x14E2 JUMP JUMPDEST JUMPDEST PUSH1 0x1 PUSH1 0x0 DUP5 DUP2 MSTORE PUSH1 0x20 ADD SWAP1 DUP2 MSTORE PUSH1 0x20 ADD PUSH1 0x0 KECCAK256 PUSH1 0x4 ADD PUSH1 0x0 SWAP1 SLOAD SWAP1 PUSH2 0x100 EXP SWAP1 DIV PUSH1 0xFF AND PUSH1 0x5 DUP2 GT ISZERO PUSH2 0x7AB JUMPI PUSH2 0x7AA PUSH2 0x14E2 JUMP JUMPDEST JUMPDEST EQ PUSH2 0x7EB JUMPI PUSH1 0x40 MLOAD PUSH32 0x8C379A000000000000000000000000000000000000000000000000000000000 DUP2 MSTORE PUSH1 0x4 ADD PUSH2 0x7E2 SWAP1 PUSH2 0x183C JUMP JUMPDEST PUSH1 0x40 MLOAD DUP1 SWAP2 SUB SWAP1 REVERT JUMPDEST PUSH1 0x0 PUSH1 0x1 PUSH1 0x0 DUP7 DUP2 MSTORE PUSH1 0x20 ADD SWAP1 DUP2 MSTORE PUSH1 0x20 ADD PUSH1 0x0 KECCAK256 SWAP1 POP PUSH1 0x3 DUP2 PUSH1 0x4 ADD PUSH1 0x0 PUSH2 0x100 EXP DUP2 SLOAD DUP2 PUSH1 0xFF MUL NOT AND SWAP1 DUP4 PUSH1 0x5 DUP2 GT ISZERO PUSH2 0x82A JUMPI PUSH2 0x829 PUSH2 0x14E2 JUMP JUMPDEST JUMPDEST MUL OR SWAP1 SSTORE POP PUSH1 0x0 DUP2 PUSH1 0x1 ADD PUSH1 0x0 SWAP1 SLOAD SWAP1 PUSH2 0x100 EXP SWAP1 DIV PUSH20 0xFFFFFFFFFFFFFFFFFFFFFFFFFFFFFFFFFFFFFFFF AND PUSH20 0xFFFFFFFFFFFFFFFFFFFFFFFFFFFFFFFFFFFFFFFF AND DUP3 PUSH1 0x3 ADD SLOAD PUSH1 0x40 MLOAD PUSH2 0x87D SWAP1 PUSH2 0x191F JUMP JUMPDEST PUSH1 0x0 PUSH1 0x40 MLOAD DUP1 DUP4 SUB DUP2 DUP6 DUP8 GAS CALL SWAP3 POP POP POP RETURNDATASIZE DUP1 PUSH1 0x0 DUP2 EQ PUSH2 0x8BA JUMPI PUSH1 0x40 MLOAD SWAP2 POP PUSH1 0x1F NOT PUSH1 0x3F RETURNDATASIZE ADD AND DUP3 ADD PUSH1 0x40 MSTORE RETURNDATASIZE DUP3 MSTORE RETURNDATASIZE PUSH1 0x0 PUSH1 0x20 DUP5 ADD RETURNDATACOPY PUSH2 0x8BF JUMP JUMPDEST PUSH1 0x60 SWAP2 POP JUMPDEST POP POP SWAP1 POP DUP1 PUSH2 0x903 JUMPI PUSH1 0x40 MLOAD PUSH32 0x8C379A000000000000000000000000000000000000000000000000000000000 DUP2 MSTORE PUSH1 0x4 ADD PUSH2 0x8FA SWAP1 PUSH2 0x1980 JUMP JUMPDEST PUSH1 0x40 MLOAD DUP1 SWAP2 SUB SWAP1 REVERT JUMPDEST DUP6 PUSH32 0x2B88058042496B0BB1EE5166CE824D56981C8AC5F99CE696568BE4CEED8DAFDE PUSH1 0x40 MLOAD PUSH1 0x40 MLOAD DUP1 SWAP2 SUB SWAP1 LOG2 POP POP POP POP POP POP JUMP JUMPDEST DUP1 PUSH1 0x1 PUSH1 0x0 DUP3 DUP2 MSTORE PUSH1 0x20 ADD SWAP1 DUP2 MSTORE PUSH1 0x20 ADD PUSH1 0x0 KECCAK256 PUSH1 0x0 ADD PUSH1 0x0 SWAP1 SLOAD SWAP1 PUSH2 0x100 EXP SWAP1 DIV PUSH20 0xFFFFFFFFFFFFFFFFFFFFFFFFFFFFFFFFFFFFFFFF AND PUSH20 0xFFFFFFFFFFFFFFFFFFFFFFFFFFFFFFFFFFFFFFFF AND CALLER PUSH20 0xFFFFFFFFFFFFFFFFFFFFFFFFFFFFFFFFFFFFFFFF AND EQ PUSH2 0x9DD JUMPI PUSH1 0x40 MLOAD PUSH32 0x8C379A000000000000000000000000000000000000000000000000000000000 DUP2 MSTORE PUSH1 0x4 ADD PUSH2 0x9D4 SWAP1 PUSH2 0x1A67 JUMP JUMPDEST PUSH1 0x40 MLOAD DUP1 SWAP2 SUB SWAP1 REVERT JUMPDEST DUP2 PUSH1 0x0 DUP1 PUSH1 0x5 DUP2 GT ISZERO PUSH2 0x9F3 JUMPI PUSH2 0x9F2 PUSH2 0x14E2 JUMP JUMPDEST JUMPDEST PUSH1 0x1 PUSH1 0x0 DUP5 DUP2 MSTORE PUSH1 0x20 ADD SWAP1 DUP2 MSTORE PUSH1 0x20 ADD PUSH1 0x0 KECCAK256 PUSH1 0x4 ADD PUSH1 0x0 SWAP1 SLOAD SWAP1 PUSH2 0x100 EXP SWAP1 DIV PUSH1 0xFF AND PUSH1 0x5 DUP2 GT ISZERO PUSH2 0xA29 JUMPI PUSH2 0xA28 PUSH2 0x14E2 JUMP JUMPDEST JUMPDEST EQ PUSH2 0xA69 JUMPI PUSH1 0x40 MLOAD PUSH32 0x8C379A000000000000000000000000000000000000000000000000000000000 DUP2 MSTORE PUSH1 0x4 ADD PUSH2 0xA60 SWAP1 PUSH2 0x183C JUMP JUMPDEST PUSH1 0x40 MLOAD DUP1 SWAP2 SUB SWAP1 REVERT JUMPDEST PUSH1 0x0 PUSH1 0x1 PUSH1 0x0 DUP7 DUP2 MSTORE PUSH1 0x20 ADD SWAP1 DUP2 MSTORE PUSH1 0x20 ADD PUSH1 0x0 KECCAK256 SWAP1 POP DUP1 PUSH1 0x3 ADD SLOAD CALLVALUE EQ PUSH2 0xAC6 JUMPI PUSH1 0x40 MLOAD PUSH32 0x8C379A000000000000000000000000000000000000000000000000000000000 DUP2 MSTORE PUSH1 0x4 ADD PUSH2 0xABD SWAP1 PUSH2 0x1AD3 JUMP JUMPDEST PUSH1 0x40 MLOAD DUP1 SWAP2 SUB SWAP1 REVERT JUMPDEST PUSH1 0x1 DUP2 PUSH1 0x4 ADD PUSH1 0x0 PUSH2 0x100 EXP DUP2 SLOAD DUP2 PUSH1 0xFF MUL NOT AND SWAP1 DUP4 PUSH1 0x5 DUP2 GT ISZERO PUSH2 0xAEE JUMPI PUSH2 0xAED PUSH2 0x14E2 JUMP JUMPDEST JUMPDEST MUL OR SWAP1 SSTORE POP DUP5 PUSH32 0x9D25C5CF940EED311C45E5A0B4C7C8790A356D3C356453B76BB7E232DB3F384A CALLVALUE PUSH1 0x40 MLOAD PUSH2 0xB23 SWAP2 SWAP1 PUSH2 0x1651 JUMP JUMPDEST PUSH1 0x40 MLOAD DUP1 SWAP2 SUB SWAP1 LOG2 POP POP POP POP POP JUMP JUMPDEST DUP1 PUSH1 0x2 DUP1 PUSH1 0x5 DUP2 GT ISZERO PUSH2 0xB48 JUMPI PUSH2 0xB47 PUSH2 0x14E2 JUMP JUMPDEST JUMPDEST PUSH1 0x1 PUSH1 0x0 DUP5 DUP2 MSTORE PUSH1 0x20 ADD SWAP1 DUP2 MSTORE PUSH1 0x20 ADD PUSH1 0x0 KECCAK256 PUSH1 0x4 ADD PUSH1 0x0 SWAP1 SLOAD SWAP1 PUSH2 0x100 EXP SWAP1 DIV PUSH1 0xFF AND PUSH1 0x5 DUP2 GT ISZERO PUSH2 0xB7E JUMPI PUSH2 0xB7D PUSH2 0x14E2 JUMP JUMPDEST JUMPDEST EQ PUSH2 0xBBE JUMPI PUSH1 0x40 MLOAD PUSH32 0x8C379A000000000000000000000000000000000000000000000000000000000 DUP2 MSTORE PUSH1 0x4 ADD PUSH2 0xBB5 SWAP1 PUSH2 0x183C JUMP JUMPDEST PUSH1 0x40 MLOAD DUP1 SWAP2 SUB SWAP1 REVERT JUMPDEST PUSH1 0x0 PUSH1 0x1 PUSH1 0x0 DUP6 DUP2 MSTORE PUSH1 0x20 ADD SWAP1 DUP2 MSTORE PUSH1 0x20 ADD PUSH1 0x0 KECCAK256 SWAP1 POP DUP1 PUSH1 0x0 ADD PUSH1 0x0 SWAP1 SLOAD SWAP1 PUSH2 0x100 EXP SWAP1 DIV PUSH20 0xFFFFFFFFFFFFFFFFFFFFFFFFFFFFFFFFFFFFFFFF AND PUSH20 0xFFFFFFFFFFFFFFFFFFFFFFFFFFFFFFFFFFFFFFFF AND CALLER PUSH20 0xFFFFFFFFFFFFFFFFFFFFFFFFFFFFFFFFFFFFFFFF AND EQ DUP1 PUSH2 0xC82 JUMPI POP DUP1 PUSH1 0x1 ADD PUSH1 0x0 SWAP1 SLOAD SWAP1 PUSH2 0x100 EXP SWAP1 DIV PUSH20 0xFFFFFFFFFFFFFFFFFFFFFFFFFFFFFFFFFFFFFFFF AND PUSH20 0xFFFFFFFFFFFFFFFFFFFFFFFFFFFFFFFFFFFFFFFF AND CALLER PUSH20 0xFFFFFFFFFFFFFFFFFFFFFFFFFFFFFFFFFFFFFFFF AND EQ JUMPDEST PUSH2 0xCC1 JUMPI PUSH1 0x40 MLOAD PUSH32 0x8C379A000000000000000000000000000000000000000000000000000000000 DUP2 MSTORE PUSH1 0x4 ADD PUSH2 0xCB8 SWAP1 PUSH2 0x1B3F JUMP JUMPDEST PUSH1 0x40 MLOAD DUP1 SWAP2 SUB SWAP1 REVERT JUMPDEST PUSH1 0x4 DUP2 PUSH1 0x4 ADD PUSH1 0x0 PUSH2 0x100 EXP DUP2 SLOAD DUP2 PUSH1 0xFF MUL NOT AND SWAP1 DUP4 PUSH1 0x5 DUP2 GT ISZERO PUSH2 0xCE9 JUMPI PUSH2 0xCE8 PUSH2 0x14E2 JUMP JUMPDEST JUMPDEST MUL OR SWAP1 SSTORE POP DUP4 PUSH32 0x4901F83201C8724EADF084436DB8AA391820BAE6D11F9F78A17EDB6F2EEF3CF PUSH1 0x40 MLOAD PUSH1 0x40 MLOAD DUP1 SWAP2 SUB SWAP1 LOG2 POP POP POP POP JUMP JUMPDEST PUSH1 0x0 SLOAD DUP2 JUMP JUMPDEST PUSH1 0x0 DUP1 PUSH20 0xFFFFFFFFFFFFFFFFFFFFFFFFFFFFFFFFFFFFFFFF AND DUP5 PUSH20 0xFFFFFFFFFFFFFFFFFFFFFFFFFFFFFFFFFFFFFFFF AND SUB PUSH2 0xD97 JUMPI PUSH1 0x40 MLOAD PUSH32 0x8C379A000000000000000000000000000000000000000000000000000000000 DUP2 MSTORE PUSH1 0x4 ADD PUSH2 0xD8E SWAP1 PUSH2 0x1BAB JUMP JUMPDEST PUSH1 0x40 MLOAD DUP1 SWAP2 SUB SWAP1 REVERT JUMPDEST PUSH1 0x0 PUSH20 0xFFFFFFFFFFFFFFFFFFFFFFFFFFFFFFFFFFFFFFFF AND DUP4 PUSH20 0xFFFFFFFFFFFFFFFFFFFFFFFFFFFFFFFFFFFFFFFF AND SUB PUSH2 0xE06 JUMPI PUSH1 0x40 MLOAD PUSH32 0x8C379A000000000000000000000000000000000000000000000000000000000 DUP2 MSTORE PUSH1 0x4 ADD PUSH2 0xDFD SWAP1 PUSH2 0x1C17 JUMP JUMPDEST PUSH1 0x40 MLOAD DUP1 SWAP2 SUB SWAP1 REVERT JUMPDEST PUSH1 0x0 DUP3 GT PUSH2 0xE49 JUMPI PUSH1 0x40 MLOAD PUSH32 0x8C379A000000000000000000000000000000000000000000000000000000000 DUP2 MSTORE PUSH1 0x4 ADD PUSH2 0xE40 SWAP1 PUSH2 0x1C83 JUMP JUMPDEST PUSH1 0x40 MLOAD DUP1 SWAP2 SUB SWAP1 REVERT JUMPDEST PUSH1 0x0 SLOAD SWAP1 POP PUSH1 0x0 DUP1 DUP2 SLOAD DUP1 SWAP3 SWAP2 SWAP1 PUSH2 0xE60 SWAP1 PUSH2 0x1CD2 JUMP JUMPDEST SWAP2 SWAP1 POP SSTORE POP PUSH1 0x40 MLOAD DUP1 PUSH1 0xC0 ADD PUSH1 0x40 MSTORE DUP1 CALLER PUSH20 0xFFFFFFFFFFFFFFFFFFFFFFFFFFFFFFFFFFFFFFFF AND DUP2 MSTORE PUSH1 0x20 ADD DUP6 PUSH20 0xFFFFFFFFFFFFFFFFFFFFFFFFFFFFFFFFFFFFFFFF AND DUP2 MSTORE PUSH1 0x20 ADD DUP5 PUSH20 0xFFFFFFFFFFFFFFFFFFFFFFFFFFFFFFFFFFFFFFFF AND DUP2 MSTORE PUSH1 0x20 ADD DUP4 DUP2 MSTORE PUSH1 0x20 ADD PUSH1 0x0 PUSH1 0x5 DUP2 GT ISZERO PUSH2 0xEDE JUMPI PUSH2 0xEDD PUSH2 0x14E2 JUMP JUMPDEST JUMPDEST DUP2 MSTORE PUSH1 0x20 ADD PUSH1 0x40 MLOAD DUP1 PUSH1 0x20 ADD PUSH1 0x40 MSTORE DUP1 PUSH1 0x0 DUP2 MSTORE POP DUP2 MSTORE POP PUSH1 0x1 PUSH1 0x0 DUP4 DUP2 MSTORE PUSH1 0x20 ADD SWAP1 DUP2 MSTORE PUSH1 0x20 ADD PUSH1 0x0 KECCAK256 PUSH1 0x0 DUP3 ADD MLOAD DUP2 PUSH1 0x0 ADD PUSH1 0x0 PUSH2 0x100 EXP DUP2 SLOAD DUP2 PUSH20 0xFFFFFFFFFFFFFFFFFFFFFFFFFFFFFFFFFFFFFFFF MUL NOT AND SWAP1 DUP4 PUSH20 0xFFFFFFFFFFFFFFFFFFFFFFFFFFFFFFFFFFFFFFFF AND MUL OR SWAP1 SSTORE POP PUSH1 0x20 DUP3 ADD MLOAD DUP2 PUSH1 0x1 ADD PUSH1 0x0 PUSH2 0x100 EXP DUP2 SLOAD DUP2 PUSH20 0xFFFFFFFFFFFFFFFFFFFFFFFFFFFFFFFFFFFFFFFF MUL NOT AND SWAP1 DUP4 PUSH20 0xFFFFFFFFFFFFFFFFFFFFFFFFFFFFFFFFFFFFFFFF AND MUL OR SWAP1 SSTORE POP PUSH1 0x40 DUP3 ADD MLOAD DUP2 PUSH1 0x2 ADD PUSH1 0x0 PUSH2 0x100 EXP DUP2 SLOAD DUP2 PUSH20 0xFFFFFFFFFFFFFFFFFFFFFFFFFFFFFFFFFFFFFFFF MUL NOT AND SWAP1 DUP4 PUSH20 0xFFFFFFFFFFFFFFFFFFFFFFFFFFFFFFFFFFFFFFFF AND MUL OR SWAP1 SSTORE POP PUSH1 0x60 DUP3 ADD MLOAD DUP2 PUSH1 0x3 ADD SSTORE PUSH1 0x80 DUP3 ADD MLOAD DUP2 PUSH1 0x4 ADD PUSH1 0x0 PUSH2 0x100 EXP DUP2 SLOAD DUP2 PUSH1 0xFF MUL NOT AND SWAP1 DUP4 PUSH1 0x5 DUP2 GT ISZERO PUSH2 0x1013 JUMPI PUSH2 0x1012 PUSH2 0x14E2 JUMP JUMPDEST JUMPDEST MUL OR SWAP1 SSTORE POP PUSH1 0xA0 DUP3 ADD MLOAD DUP2 PUSH1 0x5 ADD SWAP1 DUP2 PUSH2 0x102D SWAP2 SWAP1 PUSH2 0x1EF5 JUMP JUMPDEST POP SWAP1 POP POP DUP4 PUSH20 0xFFFFFFFFFFFFFFFFFFFFFFFFFFFFFFFFFFFFFFFF AND CALLER PUSH20 0xFFFFFFFFFFFFFFFFFFFFFFFFFFFFFFFFFFFFFFFF AND DUP3 PUSH32 0xEF137DF1D007645178F3F70E5C306D8D0B84BB5C70CABDA9BB0F8F3C71932A0F DUP7 DUP7 PUSH1 0x40 MLOAD PUSH2 0x1091 SWAP3 SWAP2 SWAP1 PUSH2 0x1FC7 JUMP JUMPDEST PUSH1 0x40 MLOAD DUP1 SWAP2 SUB SWAP1 LOG4 SWAP4 SWAP3 POP POP POP JUMP JUMPDEST PUSH1 0x0 DUP1 PUSH1 0x0 DUP1 PUSH1 0x0 PUSH1 0x60 PUSH1 0x0 PUSH1 0x1 PUSH1 0x0 DUP10 DUP2 MSTORE PUSH1 0x20 ADD SWAP1 DUP2 MSTORE PUSH1 0x20 ADD PUSH1 0x0 KECCAK256 SWAP1 POP DUP1 PUSH1 0x0 ADD PUSH1 0x0 SWAP1 SLOAD SWAP1 PUSH2 0x100 EXP SWAP1 DIV PUSH20 0xFFFFFFFFFFFFFFFFFFFFFFFFFFFFFFFFFFFFFFFF AND DUP2 PUSH1 0x1 ADD PUSH1 0x0 SWAP1 SLOAD SWAP1 PUSH2 0x100 EXP SWAP1 DIV PUSH20 0xFFFFFFFFFFFFFFFFFFFFFFFFFFFFFFFFFFFFFFFF AND DUP3 PUSH1 0x2 ADD PUSH1 0x0 SWAP1 SLOAD SWAP1 PUSH2 0x100 EXP SWAP1 DIV PUSH20 0xFFFFFFFFFFFFFFFFFFFFFFFFFFFFFFFFFFFFFFFF AND DUP4 PUSH1 0x3 ADD SLOAD DUP5 PUSH1 0x4 ADD PUSH1 0x0 SWAP1 SLOAD SWAP1 PUSH2 0x100 EXP SWAP1 DIV PUSH1 0xFF AND DUP6 PUSH1 0x5 ADD DUP1 DUP1 SLOAD PUSH2 0x1157 SWAP1 PUSH2 0x19EA JUMP JUMPDEST DUP1 PUSH1 0x1F ADD PUSH1 0x20 DUP1 SWAP2 DIV MUL PUSH1 0x20 ADD PUSH1 0x40 MLOAD SWAP1 DUP2 ADD PUSH1 0x40 MSTORE DUP1 SWAP3 SWAP2 SWAP1 DUP2 DUP2 MSTORE PUSH1 0x20 ADD DUP3 DUP1 SLOAD PUSH2 0x1183 SWAP1 PUSH2 0x19EA JUMP JUMPDEST DUP1 ISZERO PUSH2 0x11D0 JUMPI DUP1 PUSH1 0x1F LT PUSH2 0x11A5 JUMPI PUSH2 0x100 DUP1 DUP4 SLOAD DIV MUL DUP4 MSTORE SWAP2 PUSH1 0x20 ADD SWAP2 PUSH2 0x11D0 JUMP JUMPDEST DUP3 ADD SWAP2 SWAP1 PUSH1 0x0 MSTORE PUSH1 0x20 PUSH1 0x0 KECCAK256 SWAP1 JUMPDEST DUP2 SLOAD DUP2 MSTORE SWAP1 PUSH1 0x1 ADD SWAP1 PUSH1 0x20 ADD DUP1 DUP4 GT PUSH2 0x11B3 JUMPI DUP3 SWAP1 SUB PUSH1 0x1F AND DUP3 ADD SWAP2 JUMPDEST POP POP POP POP POP SWAP1 POP SWAP7 POP SWAP7 POP SWAP7 POP SWAP7 POP SWAP7 POP SWAP7 POP POP SWAP2 SWAP4 SWAP6 POP SWAP2 SWAP4 SWAP6 JUMP JUMPDEST DUP3 PUSH1 0x1 PUSH1 0x0 DUP3 DUP2 MSTORE PUSH1 0x20 ADD SWAP1 DUP2 MSTORE PUSH1 0x20 ADD PUSH1 0x0 KECCAK256 PUSH1 0x1 ADD PUSH1 0x0 SWAP1 SLOAD SWAP1 PUSH2 0x100 EXP SWAP1 DIV PUSH20 0xFFFFFFFFFFFFFFFFFFFFFFFFFFFFFFFFFFFFFFFF AND PUSH20 0xFFFFFFFFFFFFFFFFFFFFFFFFFFFFFFFFFFFFFFFF AND CALLER PUSH20 0xFFFFFFFFFFFFFFFFFFFFFFFFFFFFFFFFFFFFFFFF AND EQ PUSH2 0x1292 JUMPI PUSH1 0x40 MLOAD PUSH32 0x8C379A000000000000000000000000000000000000000000000000000000000 DUP2 MSTORE PUSH1 0x4 ADD PUSH2 0x1289 SWAP1 PUSH2 0x203C JUMP JUMPDEST PUSH1 0x40 MLOAD DUP1 SWAP2 SUB SWAP1 REVERT JUMPDEST DUP4 PUSH1 0x1 DUP1 PUSH1 0x5 DUP2 GT ISZERO PUSH2 0x12A8 JUMPI PUSH2 0x12A7 PUSH2 0x14E2 JUMP JUMPDEST JUMPDEST PUSH1 0x1 PUSH1 0x0 DUP5 DUP2 MSTORE PUSH1 0x20 ADD SWAP1 DUP2 MSTORE PUSH1 0x20 ADD PUSH1 0x0 KECCAK256 PUSH1 0x4 ADD PUSH1 0x0 SWAP1 SLOAD SWAP1 PUSH2 0x100 EXP SWAP1 DIV PUSH1 0xFF AND PUSH1 0x5 DUP2 GT ISZERO PUSH2 0x12DE JUMPI PUSH2 0x12DD PUSH2 0x14E2 JUMP JUMPDEST JUMPDEST EQ PUSH2 0x131E JUMPI PUSH1 0x40 MLOAD PUSH32 0x8C379A000000000000000000000000000000000000000000000000000000000 DUP2 MSTORE PUSH1 0x4 ADD PUSH2 0x1315 SWAP1 PUSH2 0x183C JUMP JUMPDEST PUSH1 0x40 MLOAD DUP1 SWAP2 SUB SWAP1 REVERT JUMPDEST PUSH1 0x0 PUSH1 0x1 PUSH1 0x0 DUP9 DUP2 MSTORE PUSH1 0x20 ADD SWAP1 DUP2 MSTORE PUSH1 0x20 ADD PUSH1 0x0 KECCAK256 SWAP1 POP DUP6 DUP6 DUP3 PUSH1 0x5 ADD SWAP2 DUP3 PUSH2 0x1348 SWAP3 SWAP2 SWAP1 PUSH2 0x2067 JUMP JUMPDEST POP PUSH1 0x2 DUP2 PUSH1 0x4 ADD PUSH1 0x0 PUSH2 0x100 EXP DUP2 SLOAD DUP2 PUSH1 0xFF MUL NOT AND SWAP1 DUP4 PUSH1 0x5 DUP2 GT ISZERO PUSH2 0x1371 JUMPI PUSH2 0x1370 PUSH2 0x14E2 JUMP JUMPDEST JUMPDEST MUL OR SWAP1 SSTORE POP DUP7 PUSH32 0x3822C71B106C7C1DABF7F076E68C9BD98C45D0CD0D073F4DCDAF422A0FE55847 DUP8 DUP8 PUSH1 0x40 MLOAD PUSH2 0x13A8 SWAP3 SWAP2 SWAP1 PUSH2 0x2173 JUMP JUMPDEST PUSH1 0x40 MLOAD DUP1 SWAP2 SUB SWAP1 LOG2 POP POP POP POP POP POP POP JUMP JUMPDEST PUSH1 0x0 DUP1 REVERT JUMPDEST PUSH1 0x0 DUP1 REVERT JUMPDEST PUSH1 0x0 DUP2 SWAP1 POP SWAP2 SWAP1 POP JUMP JUMPDEST PUSH2 0x13D6 DUP2 PUSH2 0x13C3 JUMP JUMPDEST DUP2 EQ PUSH2 0x13E1 JUMPI PUSH1 0x0 DUP1 REVERT JUMPDEST POP JUMP JUMPDEST PUSH1 0x0 DUP2 CALLDATALOAD SWAP1 POP PUSH2 0x13F3 DUP2 PUSH2 0x13CD JUMP JUMPDEST SWAP3 SWAP2 POP POP JUMP JUMPDEST PUSH1 0x0 PUSH20 0xFFFFFFFFFFFFFFFFFFFFFFFFFFFFFFFFFFFFFFFF DUP3 AND SWAP1 POP SWAP2 SWAP1 POP JUMP JUMPDEST PUSH1 0x0 PUSH2 0x1424 DUP3 PUSH2 0x13F9 JUMP JUMPDEST SWAP1 POP SWAP2 SWAP1 POP JUMP JUMPDEST PUSH2 0x1434 DUP2 PUSH2 0x1419 JUMP JUMPDEST DUP2 EQ PUSH2 0x143F JUMPI PUSH1 0x0 DUP1 REVERT JUMPDEST POP JUMP JUMPDEST PUSH1 0x0 DUP2 CALLDATALOAD SWAP1 POP PUSH2 0x1451 DUP2 PUSH2 0x142B JUMP JUMPDEST SWAP3 SWAP2 POP POP JUMP JUMPDEST PUSH1 0x0 DUP1 PUSH1 0x40 DUP4 DUP6 SUB SLT ISZERO PUSH2 0x146E JUMPI PUSH2 0x146D PUSH2 0x13B9 JUMP JUMPDEST JUMPDEST PUSH1 0x0 PUSH2 0x147C DUP6 DUP3 DUP7 ADD PUSH2 0x13E4 JUMP JUMPDEST SWAP3 POP POP PUSH1 0x20 PUSH2 0x148D DUP6 DUP3 DUP7 ADD PUSH2 0x1442 JUMP JUMPDEST SWAP2 POP POP SWAP3 POP SWAP3 SWAP1 POP JUMP JUMPDEST PUSH1 0x0 PUSH1 0x20 DUP3 DUP5 SUB SLT ISZERO PUSH2 0x14AD JUMPI PUSH2 0x14AC PUSH2 0x13B9 JUMP JUMPDEST JUMPDEST PUSH1 0x0 PUSH2 0x14BB DUP5 DUP3 DUP6 ADD PUSH2 0x13E4 JUMP JUMPDEST SWAP2 POP POP SWAP3 SWAP2 POP POP JUMP JUMPDEST PUSH2 0x14CD DUP2 PUSH2 0x1419 JUMP JUMPDEST DUP3 MSTORE POP POP JUMP JUMPDEST PUSH2 0x14DC DUP2 PUSH2 0x13C3 JUMP JUMPDEST DUP3 MSTORE POP POP JUMP JUMPDEST PUSH32 0x4E487B7100000000000000000000000000000000000000000000000000000000 PUSH1 0x0 MSTORE PUSH1 0x21 PUSH1 0x4 MSTORE PUSH1 0x24 PUSH1 0x0 REVERT JUMPDEST PUSH1 0x6 DUP2 LT PUSH2 0x1522 JUMPI PUSH2 0x1521 PUSH2 0x14E2 JUMP JUMPDEST JUMPDEST POP JUMP JUMPDEST PUSH1 0x0 DUP2 SWAP1 POP PUSH2 0x1533 DUP3 PUSH2 0x1511 JUMP JUMPDEST SWAP2 SWAP1 POP JUMP JUMPDEST PUSH1 0x0 PUSH2 0x1543 DUP3 PUSH2 0x1525 JUMP JUMPDEST SWAP1 POP SWAP2 SWAP1 POP JUMP JUMPDEST PUSH2 0x1553 DUP2 PUSH2 0x1538 JUMP JUMPDEST DUP3 MSTORE POP POP JUMP JUMPDEST PUSH1 0x0 DUP2 MLOAD SWAP1 POP SWAP2 SWAP1 POP JUMP JUMPDEST PUSH1 0x0 DUP3 DUP3 MSTORE PUSH1 0x20 DUP3 ADD SWAP1 POP SWAP3 SWAP2 POP POP JUMP JUMPDEST PUSH1 0x0 JUMPDEST DUP4 DUP2 LT ISZERO PUSH2 0x1593 JUMPI DUP1 DUP3 ADD MLOAD DUP2 DUP5 ADD MSTORE PUSH1 0x20 DUP2 ADD SWAP1 POP PUSH2 0x1578 JUMP JUMPDEST PUSH1 0x0 DUP5 DUP5 ADD MSTORE POP POP POP POP JUMP JUMPDEST PUSH1 0x0 PUSH1 0x1F NOT PUSH1 0x1F DUP4 ADD AND SWAP1 POP SWAP2 SWAP1 POP JUMP JUMPDEST PUSH1 0x0 PUSH2 0x15BB DUP3 PUSH2 0x1559 JUMP JUMPDEST PUSH2 0x15C5 DUP2 DUP6 PUSH2 0x1564 JUMP JUMPDEST SWAP4 POP PUSH2 0x15D5 DUP2 DUP6 PUSH1 0x20 DUP7 ADD PUSH2 0x1575 JUMP JUMPDEST PUSH2 0x15DE DUP2 PUSH2 0x159F JUMP JUMPDEST DUP5 ADD SWAP2 POP POP SWAP3 SWAP2 POP POP JUMP JUMPDEST PUSH1 0x0 PUSH1 0xC0 DUP3 ADD SWAP1 POP PUSH2 0x15FE PUSH1 0x0 DUP4 ADD DUP10 PUSH2 0x14C4 JUMP JUMPDEST PUSH2 0x160B PUSH1 0x20 DUP4 ADD DUP9 PUSH2 0x14C4 JUMP JUMPDEST PUSH2 0x1618 PUSH1 0x40 DUP4 ADD DUP8 PUSH2 0x14C4 JUMP JUMPDEST PUSH2 0x1625 PUSH1 0x60 DUP4 ADD DUP7 PUSH2 0x14D3 JUMP JUMPDEST PUSH2 0x1632 PUSH1 0x80 DUP4 ADD DUP6 PUSH2 0x154A JUMP JUMPDEST DUP2 DUP2 SUB PUSH1 0xA0 DUP4 ADD MSTORE PUSH2 0x1644 DUP2 DUP5 PUSH2 0x15B0 JUMP JUMPDEST SWAP1 POP SWAP8 SWAP7 POP POP POP POP POP POP POP JUMP JUMPDEST PUSH1 0x0 PUSH1 0x20 DUP3 ADD SWAP1 POP PUSH2 0x1666 PUSH1 0x0 DUP4 ADD DUP5 PUSH2 0x14D3 JUMP JUMPDEST SWAP3 SWAP2 POP POP JUMP JUMPDEST PUSH1 0x0 DUP1 PUSH1 0x0 PUSH1 0x60 DUP5 DUP7 SUB SLT ISZERO PUSH2 0x1685 JUMPI PUSH2 0x1684 PUSH2 0x13B9 JUMP JUMPDEST JUMPDEST PUSH1 0x0 PUSH2 0x1693 DUP7 DUP3 DUP8 ADD PUSH2 0x1442 JUMP JUMPDEST SWAP4 POP POP PUSH1 0x20 PUSH2 0x16A4 DUP7 DUP3 DUP8 ADD PUSH2 0x1442 JUMP JUMPDEST SWAP3 POP POP PUSH1 0x40 PUSH2 0x16B5 DUP7 DUP3 DUP8 ADD PUSH2 0x13E4 JUMP JUMPDEST SWAP2 POP POP SWAP3 POP SWAP3 POP SWAP3 JUMP JUMPDEST PUSH1 0x0 DUP1 REVERT JUMPDEST PUSH1 0x0 DUP1 REVERT JUMPDEST PUSH1 0x0 DUP1 REVERT JUMPDEST PUSH1 0x0 DUP1 DUP4 PUSH1 0x1F DUP5 ADD SLT PUSH2 0x16E4 JUMPI PUSH2 0x16E3 PUSH2 0x16BF JUMP JUMPDEST JUMPDEST DUP3 CALLDATALOAD SWAP1 POP PUSH8 0xFFFFFFFFFFFFFFFF DUP2 GT ISZERO PUSH2 0x1701 JUMPI PUSH2 0x1700 PUSH2 0x16C4 JUMP JUMPDEST JUMPDEST PUSH1 0x20 DUP4 ADD SWAP2 POP DUP4 PUSH1 0x1 DUP3 MUL DUP4 ADD GT ISZERO PUSH2 0x171D JUMPI PUSH2 0x171C PUSH2 0x16C9 JUMP JUMPDEST JUMPDEST SWAP3 POP SWAP3 SWAP1 POP JUMP JUMPDEST PUSH1 0x0 DUP1 PUSH1 0x0 PUSH1 0x40 DUP5 DUP7 SUB SLT ISZERO PUSH2 0x173D JUMPI PUSH2 0x173C PUSH2 0x13B9 JUMP JUMPDEST JUMPDEST PUSH1 0x0 PUSH2 0x174B DUP7 DUP3 DUP8 ADD PUSH2 0x13E4 JUMP JUMPDEST SWAP4 POP POP PUSH1 0x20 DUP5 ADD CALLDATALOAD PUSH8 0xFFFFFFFFFFFFFFFF DUP2 GT ISZERO PUSH2 0x176C JUMPI PUSH2 0x176B PUSH2 0x13BE JUMP JUMPDEST JUMPDEST PUSH2 0x1778 DUP7 DUP3 DUP8 ADD PUSH2 0x16CE JUMP JUMPDEST SWAP3 POP SWAP3 POP POP SWAP3 POP SWAP3 POP SWAP3 JUMP JUMPDEST PUSH32 0x4E6F74206A6F622061726269747261746F720000000000000000000000000000 PUSH1 0x0 DUP3 ADD MSTORE POP JUMP JUMPDEST PUSH1 0x0 PUSH2 0x17BA PUSH1 0x12 DUP4 PUSH2 0x1564 JUMP JUMPDEST SWAP2 POP PUSH2 0x17C5 DUP3 PUSH2 0x1784 JUMP JUMPDEST PUSH1 0x20 DUP3 ADD SWAP1 POP SWAP2 SWAP1 POP JUMP JUMPDEST PUSH1 0x0 PUSH1 0x20 DUP3 ADD SWAP1 POP DUP2 DUP2 SUB PUSH1 0x0 DUP4 ADD MSTORE PUSH2 0x17E9 DUP2 PUSH2 0x17AD JUMP JUMPDEST SWAP1 POP SWAP2 SWAP1 POP JUMP JUMPDEST PUSH32 0x496E76616C6964206A6F62207374617465000000000000000000000000000000 PUSH1 0x0 DUP3 ADD MSTORE POP JUMP JUMPDEST PUSH1 0x0 PUSH2 0x1826 PUSH1 0x11 DUP4 PUSH2 0x1564 JUMP JUMPDEST SWAP2 POP PUSH2 0x1831 DUP3 PUSH2 0x17F0 JUMP JUMPDEST PUSH1 0x20 DUP3 ADD SWAP1 POP SWAP2 SWAP1 POP JUMP JUMPDEST PUSH1 0x0 PUSH1 0x20 DUP3 ADD SWAP1 POP DUP2 DUP2 SUB PUSH1 0x0 DUP4 ADD MSTORE PUSH2 0x1855 DUP2 PUSH2 0x1819 JUMP JUMPDEST SWAP1 POP SWAP2 SWAP1 POP JUMP JUMPDEST PUSH32 0x57696E6E6572206D75737420626520636C69656E74206F7220667265656C616E PUSH1 0x0 DUP3 ADD MSTORE PUSH32 0x6365720000000000000000000000000000000000000000000000000000000000 PUSH1 0x20 DUP3 ADD MSTORE POP JUMP JUMPDEST PUSH1 0x0 PUSH2 0x18B8 PUSH1 0x23 DUP4 PUSH2 0x1564 JUMP JUMPDEST SWAP2 POP PUSH2 0x18C3 DUP3 PUSH2 0x185C JUMP JUMPDEST PUSH1 0x40 DUP3 ADD SWAP1 POP SWAP2 SWAP1 POP JUMP JUMPDEST PUSH1 0x0 PUSH1 0x20 DUP3 ADD SWAP1 POP DUP2 DUP2 SUB PUSH1 0x0 DUP4 ADD MSTORE PUSH2 0x18E7 DUP2 PUSH2 0x18AB JUMP JUMPDEST SWAP1 POP SWAP2 SWAP1 POP JUMP JUMPDEST PUSH1 0x0 DUP2 SWAP1 POP SWAP3 SWAP2 POP POP JUMP JUMPDEST POP JUMP JUMPDEST PUSH1 0x0 PUSH2 0x1909 PUSH1 0x0 DUP4 PUSH2 0x18EE JUMP JUMPDEST SWAP2 POP PUSH2 0x1914 DUP3 PUSH2 0x18F9 JUMP JUMPDEST PUSH1 0x0 DUP3 ADD SWAP1 POP SWAP2 SWAP1 POP JUMP JUMPDEST PUSH1 0x0 PUSH2 0x192A DUP3 PUSH2 0x18FC JUMP JUMPDEST SWAP2 POP DUP2 SWAP1 POP SWAP2 SWAP1 POP JUMP JUMPDEST PUSH32 0x5061796D656E74206661696C6564000000000000000000000000000000000000 PUSH1 0x0 DUP3 ADD MSTORE POP JUMP JUMPDEST PUSH1 0x0 PUSH2 0x196A PUSH1 0xE DUP4 PUSH2 0x1564 JUMP JUMPDEST SWAP2 POP PUSH2 0x1975 DUP3 PUSH2 0x1934 JUMP JUMPDEST PUSH1 0x20 DUP3 ADD SWAP1 POP SWAP2 SWAP1 POP JUMP JUMPDEST PUSH1 0x0 PUSH1 0x20 DUP3 ADD SWAP1 POP DUP2 DUP2 SUB PUSH1 0x0 DUP4 ADD MSTORE PUSH2 0x1999 DUP2 PUSH2 0x195D JUMP JUMPDEST SWAP1 POP SWAP2 SWAP1 POP JUMP JUMPDEST PUSH1 0x0 PUSH1 0x20 DUP3 ADD SWAP1 POP PUSH2 0x19B5 PUSH1 0x0 DUP4 ADD DUP5 PUSH2 0x14C4 JUMP JUMPDEST SWAP3 SWAP2 POP POP JUMP JUMPDEST PUSH32 0x4E487B7100000000000000000000000000000000000000000000000000000000 PUSH1 0x0 MSTORE PUSH1 0x22 PUSH1 0x4 MSTORE PUSH1 0x24 PUSH1 0x0 REVERT JUMPDEST PUSH1 0x0 PUSH1 0x2 DUP3 DIV SWAP1 POP PUSH1 0x1 DUP3 AND DUP1 PUSH2 0x1A02 JUMPI PUSH1 0x7F DUP3 AND SWAP2 POP JUMPDEST PUSH1 0x20 DUP3 LT DUP2 SUB PUSH2 0x1A15 JUMPI PUSH2 0x1A14 PUSH2 0x19BB JUMP JUMPDEST JUMPDEST POP SWAP2 SWAP1 POP JUMP JUMPDEST PUSH32 0x4E6F74206A6F6220636C69656E74000000000000000000000000000000000000 PUSH1 0x0 DUP3 ADD MSTORE POP JUMP JUMPDEST PUSH1 0x0 PUSH2 0x1A51 PUSH1 0xE DUP4 PUSH2 0x1564 JUMP JUMPDEST SWAP2 POP PUSH2 0x1A5C DUP3 PUSH2 0x1A1B JUMP JUMPDEST PUSH1 0x20 DUP3 ADD SWAP1 POP SWAP2 SWAP1 POP JUMP JUMPDEST PUSH1 0x0 PUSH1 0x20 DUP3 ADD SWAP1 POP DUP2 DUP2 SUB PUSH1 0x0 DUP4 ADD MSTORE PUSH2 0x1A80 DUP2 PUSH2 0x1A44 JUMP JUMPDEST SWAP1 POP SWAP2 SWAP1 POP JUMP JUMPDEST PUSH32 0x496E636F72726563742066756E64696E6720616D6F756E740000000000000000 PUSH1 0x0 DUP3 ADD MSTORE POP JUMP JUMPDEST PUSH1 0x0 PUSH2 0x1ABD PUSH1 0x18 DUP4 PUSH2 0x1564 JUMP JUMPDEST SWAP2 POP PUSH2 0x1AC8 DUP3 PUSH2 0x1A87 JUMP JUMPDEST PUSH1 0x20 DUP3 ADD SWAP1 POP SWAP2 SWAP1 POP JUMP JUMPDEST PUSH1 0x0 PUSH1 0x20 DUP3 ADD SWAP1 POP DUP2 DUP2 SUB PUSH1 0x0 DUP4 ADD MSTORE PUSH2 0x1AEC DUP2 PUSH2 0x1AB0 JUMP JUMPDEST SWAP1 POP SWAP2 SWAP1 POP JUMP JUMPDEST PUSH32 0x4F6E6C7920636C69656E74206F7220667265656C616E63657200000000000000 PUSH1 0x0 DUP3 ADD MSTORE POP JUMP JUMPDEST PUSH1 0x0 PUSH2 0x1B29 PUSH1 0x19 DUP4 PUSH2 0x1564 JUMP JUMPDEST SWAP2 POP PUSH2 0x1B34 DUP3 PUSH2 0x1AF3 JUMP JUMPDEST PUSH1 0x20 DUP3 ADD SWAP1 POP SWAP2 SWAP1 POP JUMP JUMPDEST PUSH1 0x0 PUSH1 0x20 DUP3 ADD SWAP1 POP DUP2 DUP2 SUB PUSH1 0x0 DUP4 ADD MSTORE PUSH2 0x1B58 DUP2 PUSH2 0x1B1C JUMP JUMPDEST SWAP1 POP SWAP2 SWAP1 POP JUMP JUMPDEST PUSH32 0x467265656C616E63657220726571756972656400000000000000000000000000 PUSH1 0x0 DUP3 ADD MSTORE POP JUMP JUMPDEST PUSH1 0x0 PUSH2 0x1B95 PUSH1 0x13 DUP4 PUSH2 0x1564 JUMP JUMPDEST SWAP2 POP PUSH2 0x1BA0 DUP3 PUSH2 0x1B5F JUMP JUMPDEST PUSH1 0x20 DUP3 ADD SWAP1 POP SWAP2 SWAP1 POP JUMP JUMPDEST PUSH1 0x0 PUSH1 0x20 DUP3 ADD SWAP1 POP DUP2 DUP2 SUB PUSH1 0x0 DUP4 ADD MSTORE PUSH2 0x1BC4 DUP2 PUSH2 0x1B88 JUMP JUMPDEST SWAP1 POP SWAP2 SWAP1 POP JUMP JUMPDEST PUSH32 0x41726269747261746F7220726571756972656400000000000000000000000000 PUSH1 0x0 DUP3 ADD MSTORE POP JUMP JUMPDEST PUSH1 0x0 PUSH2 0x1C01 PUSH1 0x13 DUP4 PUSH2 0x1564 JUMP JUMPDEST SWAP2 POP PUSH2 0x1C0C DUP3 PUSH2 0x1BCB JUMP JUMPDEST PUSH1 0x20 DUP3 ADD SWAP1 POP SWAP2 SWAP1 POP JUMP JUMPDEST PUSH1 0x0 PUSH1 0x20 DUP3 ADD SWAP1 POP DUP2 DUP2 SUB PUSH1 0x0 DUP4 ADD MSTORE PUSH2 0x1C30 DUP2 PUSH2 0x1BF4 JUMP JUMPDEST SWAP1 POP SWAP2 SWAP1 POP JUMP JUMPDEST PUSH32 0x416D6F756E74206D757374206265203E20300000000000000000000000000000 PUSH1 0x0 DUP3 ADD MSTORE POP JUMP JUMPDEST PUSH1 0x0 PUSH2 0x1C6D PUSH1 0x12 DUP4 PUSH2 0x1564 JUMP JUMPDEST SWAP2 POP PUSH2 0x1C78 DUP3 PUSH2 0x1C37 JUMP JUMPDEST PUSH1 0x20 DUP3 ADD SWAP1 POP SWAP2 SWAP1 POP JUMP JUMPDEST PUSH1 0x0 PUSH1 0x20 DUP3 ADD SWAP1 POP DUP2 DUP2 SUB PUSH1 0x0 DUP4 ADD MSTORE PUSH2 0x1C9C DUP2 PUSH2 0x1C60 JUMP JUMPDEST SWAP1 POP SWAP2 SWAP1 POP JUMP JUMPDEST PUSH32 0x4E487B7100000000000000000000000000000000000000000000000000000000 PUSH1 0x0 MSTORE PUSH1 0x11 PUSH1 0x4 MSTORE PUSH1 0x24 PUSH1 0x0 REVERT JUMPDEST PUSH1 0x0 PUSH2 0x1CDD DUP3 PUSH2 0x13C3 JUMP JUMPDEST SWAP2 POP PUSH32 0xFFFFFFFFFFFFFFFFFFFFFFFFFFFFFFFFFFFFFFFFFFFFFFFFFFFFFFFFFFFFFFFF DUP3 SUB PUSH2 0x1D0F JUMPI PUSH2 0x1D0E PUSH2 0x1CA3 JUMP JUMPDEST JUMPDEST PUSH1 0x1 DUP3 ADD SWAP1 POP SWAP2 SWAP1 POP JUMP JUMPDEST PUSH32 0x4E487B7100000000000000000000000000000000000000000000000000000000 PUSH1 0x0 MSTORE PUSH1 0x41 PUSH1 0x4 MSTORE PUSH1 0x24 PUSH1 0x0 REVERT JUMPDEST PUSH1 0x0 DUP2 SWAP1 POP DUP2 PUSH1 0x0 MSTORE PUSH1 0x20 PUSH1 0x0 KECCAK256 SWAP1 POP SWAP2 SWAP1 POP JUMP JUMPDEST PUSH1 0x0 PUSH1 0x20 PUSH1 0x1F DUP4 ADD DIV SWAP1 POP SWAP2 SWAP1 POP JUMP JUMPDEST PUSH1 0x0 DUP3 DUP3 SHL SWAP1 POP SWAP3 SWAP2 POP POP JUMP JUMPDEST PUSH1 0x0 PUSH1 0x8 DUP4 MUL PUSH2 0x1DAB PUSH32 0xFFFFFFFFFFFFFFFFFFFFFFFFFFFFFFFFFFFFFFFFFFFFFFFFFFFFFFFFFFFFFFFF DUP3 PUSH2 0x1D6E JUMP JUMPDEST PUSH2 0x1DB5 DUP7 DUP4 PUSH2 0x1D6E JUMP JUMPDEST SWAP6 POP DUP1 NOT DUP5 AND SWAP4 POP DUP1 DUP7 AND DUP5 OR SWAP3 POP POP POP SWAP4 SWAP3 POP POP POP JUMP JUMPDEST PUSH1 0x0 DUP2 SWAP1 POP SWAP2 SWAP1 POP JUMP JUMPDEST PUSH1 0x0 PUSH2 0x1DF2 PUSH2 0x1DED PUSH2 0x1DE8 DUP5 PUSH2 0x13C3 JUMP JUMPDEST PUSH2 0x1DCD JUMP JUMPDEST PUSH2 0x13C3 JUMP JUMPDEST SWAP1 POP SWAP2 SWAP1 POP JUMP JUMPDEST PUSH1 0x0 DUP2 SWAP1 POP SWAP2 SWAP1 POP JUMP JUMPDEST PUSH2 0x1E0C DUP4 PUSH2 0x1DD7 JUMP JUMPDEST PUSH2 0x1E20 PUSH2 0x1E18 DUP3 PUSH2 0x1DF9 JUMP JUMPDEST DUP5 DUP5 SLOAD PUSH2 0x1D7B JUMP JUMPDEST DUP3 SSTORE POP POP POP POP JUMP JUMPDEST PUSH1 0x0 SWAP1 JUMP JUMPDEST PUSH2 0x1E35 PUSH2 0x1E28 JUMP JUMPDEST PUSH2 0x1E40 DUP2 DUP5 DUP5 PUSH2 0x1E03 JUMP JUMPDEST POP POP POP JUMP JUMPDEST JUMPDEST DUP2 DUP2 LT ISZERO PUSH2 0x1E64 JUMPI PUSH2 0x1E59 PUSH1 0x0 DUP3 PUSH2 0x1E2D JUMP JUMPDEST PUSH1 0x1 DUP2 ADD SWAP1 POP PUSH2 0x1E46 JUMP JUMPDEST POP POP JUMP JUMPDEST PUSH1 0x1F DUP3 GT ISZERO PUSH2 0x1EA9 JUMPI PUSH2 0x1E7A DUP2 PUSH2 0x1D49 JUMP JUMPDEST PUSH2 0x1E83 DUP5 PUSH2 0x1D5E JUMP JUMPDEST DUP2 ADD PUSH1 0x20 DUP6 LT ISZERO PUSH2 0x1E92 JUMPI DUP2 SWAP1 POP JUMPDEST PUSH2 0x1EA6 PUSH2 0x1E9E DUP6 PUSH2 0x1D5E JUMP JUMPDEST DUP4 ADD DUP3 PUSH2 0x1E45 JUMP JUMPDEST POP POP JUMPDEST POP POP POP JUMP JUMPDEST PUSH1 0x0 DUP3 DUP3 SHR SWAP1 POP SWAP3 SWAP2 POP POP JUMP JUMPDEST PUSH1 0x0 PUSH2 0x1ECC PUSH1 0x0 NOT DUP5 PUSH1 0x8 MUL PUSH2 0x1EAE JUMP JUMPDEST NOT DUP1 DUP4 AND SWAP2 POP POP SWAP3 SWAP2 POP POP JUMP JUMPDEST PUSH1 0x0 PUSH2 0x1EE5 DUP4 DUP4 PUSH2 0x1EBB JUMP JUMPDEST SWAP2 POP DUP3 PUSH1 0x2 MUL DUP3 OR SWAP1 POP SWAP3 SWAP2 POP POP JUMP JUMPDEST PUSH2 0x1EFE DUP3 PUSH2 0x1559 JUMP JUMPDEST PUSH8 0xFFFFFFFFFFFFFFFF DUP2 GT ISZERO PUSH2 0x1F17 JUMPI PUSH2 0x1F16 PUSH2 0x1D1A JUMP JUMPDEST JUMPDEST PUSH2 0x1F21 DUP3 SLOAD PUSH2 0x19EA JUMP JUMPDEST PUSH2 0x1F2C DUP3 DUP3 DUP6 PUSH2 0x1E68 JUMP JUMPDEST PUSH1 0x0 PUSH1 0x20 SWAP1 POP PUSH1 0x1F DUP4 GT PUSH1 0x1 DUP2 EQ PUSH2 0x1F5F JUMPI PUSH1 0x0 DUP5 ISZERO PUSH2 0x1F4D JUMPI DUP3 DUP8 ADD MLOAD SWAP1 POP JUMPDEST PUSH2 0x1F57 DUP6 DUP3 PUSH2 0x1ED9 JUMP JUMPDEST DUP7 SSTORE POP PUSH2 0x1FBF JUMP JUMPDEST PUSH1 0x1F NOT DUP5 AND PUSH2 0x1F6D DUP7 PUSH2 0x1D49 JUMP JUMPDEST PUSH1 0x0 JUMPDEST DUP3 DUP2 LT ISZERO PUSH2 0x1F95 JUMPI DUP5 DUP10 ADD MLOAD DUP3 SSTORE PUSH1 0x1 DUP3 ADD SWAP2 POP PUSH1 0x20 DUP6 ADD SWAP5 POP PUSH1 0x20 DUP2 ADD SWAP1 POP PUSH2 0x1F70 JUMP JUMPDEST DUP7 DUP4 LT ISZERO PUSH2 0x1FB2 JUMPI DUP5 DUP10 ADD MLOAD PUSH2 0x1FAE PUSH1 0x1F DUP10 AND DUP3 PUSH2 0x1EBB JUMP JUMPDEST DUP4 SSTORE POP JUMPDEST PUSH1 0x1 PUSH1 0x2 DUP9 MUL ADD DUP9 SSTORE POP POP POP JUMPDEST POP POP POP POP POP POP JUMP JUMPDEST PUSH1 0x0 PUSH1 0x40 DUP3 ADD SWAP1 POP PUSH2 0x1FDC PUSH1 0x0 DUP4 ADD DUP6 PUSH2 0x14C4 JUMP JUMPDEST PUSH2 0x1FE9 PUSH1 0x20 DUP4 ADD DUP5 PUSH2 0x14D3 JUMP JUMPDEST SWAP4 SWAP3 POP POP POP JUMP JUMPDEST PUSH32 0x4E6F74206A6F6220667265656C616E6365720000000000000000000000000000 PUSH1 0x0 DUP3 ADD MSTORE POP JUMP JUMPDEST PUSH1 0x0 PUSH2 0x2026 PUSH1 0x12 DUP4 PUSH2 0x1564 JUMP JUMPDEST SWAP2 POP PUSH2 0x2031 DUP3 PUSH2 0x1FF0 JUMP JUMPDEST PUSH1 0x20 DUP3 ADD SWAP1 POP SWAP2 SWAP1 POP JUMP JUMPDEST PUSH1 0x0 PUSH1 0x20 DUP3 ADD SWAP1 POP DUP2 DUP2 SUB PUSH1 0x0 DUP4 ADD MSTORE PUSH2 0x2055 DUP2 PUSH2 0x2019 JUMP JUMPDEST SWAP1 POP SWAP2 SWAP1 POP JUMP JUMPDEST PUSH1 0x0 DUP3 SWAP1 POP SWAP3 SWAP2 POP POP JUMP JUMPDEST PUSH2 0x2071 DUP4 DUP4 PUSH2 0x205C JUMP JUMPDEST PUSH8 0xFFFFFFFFFFFFFFFF DUP2 GT ISZERO PUSH2 0x208A JUMPI PUSH2 0x2089 PUSH2 0x1D1A JUMP JUMPDEST JUMPDEST PUSH2 0x2094 DUP3 SLOAD PUSH2 0x19EA JUMP JUMPDEST PUSH2 0x209F DUP3 DUP3 DUP6 PUSH2 0x1E68 JUMP JUMPDEST PUSH1 0x0 PUSH1 0x1F DUP4 GT PUSH1 0x1 DUP2 EQ PUSH2 0x20CE JUMPI PUSH1 0x0 DUP5 ISZERO PUSH2 0x20BC JUMPI DUP3 DUP8 ADD CALLDATALOAD SWAP1 POP JUMPDEST PUSH2 0x20C6 DUP6 DUP3 PUSH2 0x1ED9 JUMP JUMPDEST DUP7 SSTORE POP PUSH2 0x212E JUMP JUMPDEST PUSH1 0x1F NOT DUP5 AND PUSH2 0x20DC DUP7 PUSH2 0x1D49 JUMP JUMPDEST PUSH1 0x0 JUMPDEST DUP3 DUP2 LT ISZERO PUSH2 0x2104 JUMPI DUP5 DUP10 ADD CALLDATALOAD DUP3 SSTORE PUSH1 0x1 DUP3 ADD SWAP2 POP PUSH1 0x20 DUP6 ADD SWAP5 POP PUSH1 0x20 DUP2 ADD SWAP1 POP PUSH2 0x20DF JUMP JUMPDEST DUP7 DUP4 LT ISZERO PUSH2 0x2121 JUMPI DUP5 DUP10 ADD CALLDATALOAD PUSH2 0x211D PUSH1 0x1F DUP10 AND DUP3 PUSH2 0x1EBB JUMP JUMPDEST DUP4 SSTORE POP JUMPDEST PUSH1 0x1 PUSH1 0x2 DUP9 MUL ADD DUP9 SSTORE POP POP POP JUMPDEST POP POP POP POP POP POP POP JUMP JUMPDEST DUP3 DUP2 DUP4 CALLDATACOPY PUSH1 0x0 DUP4 DUP4 ADD MSTORE POP POP POP JUMP JUMPDEST PUSH1 0x0 PUSH2 0x2152 DUP4 DUP6 PUSH2 0x1564 JUMP JUMPDEST SWAP4 POP PUSH2 0x215F DUP4 DUP6 DUP5 PUSH2 0x2137 JUMP JUMPDEST PUSH2 0x2168 DUP4 PUSH2 0x159F JUMP JUMPDEST DUP5 ADD SWAP1 POP SWAP4 SWAP3 POP POP POP JUMP JUMPDEST PUSH1 0x0 PUSH1 0x20 DUP3 ADD SWAP1 POP DUP2 DUP2 SUB PUSH1 0x0 DUP4 ADD MSTORE PUSH2 0x218E DUP2 DUP5 DUP7 PUSH2 0x2146 JUMP JUMPDEST SWAP1 POP SWAP4 SWAP3 POP POP POP JUMP INVALID LOG2 PUSH5 0x6970667358 0x22 SLT KECCAK256 0x28 PUSH32 0x2659C0D50CD24ECAB6B4EA9034F5F840236449209FEF1A2CDBBAC7C3AE7E6473 PUSH16 0x6C634300081F00330000000000000000 "
				},
				"gasEstimates": {
					"creation": {
						"codeDepositCost": "1730600",
						"executionCost": "1820",
						"totalCost": "1732420"
					},
					"external": {
						"approveWork(uint256)": "infinite",
						"createJob(address,address,uint256)": "infinite",
						"fundJob(uint256)": "infinite",
						"getJob(uint256)": "infinite",
						"jobs(uint256)": "infinite",
						"nextJobId()": "2451",
						"raiseDispute(uint256)": "32607",
						"resolveDispute(uint256,address)": "infinite",
						"submitWork(uint256,string)": "infinite"
					}
				},
				"methodIdentifiers": {
					"approveWork(uint256)": "3d01e0fa",
					"createJob(address,address,uint256)": "bf0077ef",
					"fundJob(uint256)": "8d22b863",
					"getJob(uint256)": "bf22c457",
					"jobs(uint256)": "180aedf3",
					"nextJobId()": "b0c2aa5e",
					"raiseDispute(uint256)": "a5c1674e",
					"resolveDispute(uint256,address)": "0e33599d",
					"submitWork(uint256,string)": "da8accf9"
				}
			},
			"storageLayout": {
				"storage": [
					{
						"astId": 25,
						"contract": "TrustGigEscrow.sol:TrustGigEscrow",
						"label": "nextJobId",
						"offset": 0,
						"slot": "0",
						"type": "t_uint256"
					},
					{
						"astId": 30,
						"contract": "TrustGigEscrow.sol:TrustGigEscrow",
						"label": "jobs",
						"offset": 0,
						"slot": "1",
						"type": "t_mapping(t_uint256,t_struct(Job)23_storage)"
					}
				],
				"types": {
					"t_address": {
						"encoding": "inplace",
						"label": "address",
						"numberOfBytes": "20"
					},
					"t_enum(JobState)9": {
						"encoding": "inplace",
						"label": "enum TrustGigEscrow.JobState",
						"numberOfBytes": "1"
					},
					"t_mapping(t_uint256,t_struct(Job)23_storage)": {
						"encoding": "mapping",
						"key": "t_uint256",
						"label": "mapping(uint256 => struct TrustGigEscrow.Job)",
						"numberOfBytes": "32",
						"value": "t_struct(Job)23_storage"
					},
					"t_string_storage": {
						"encoding": "bytes",
						"label": "string",
						"numberOfBytes": "32"
					},
					"t_struct(Job)23_storage": {
						"encoding": "inplace",
						"label": "struct TrustGigEscrow.Job",
						"members": [
							{
								"astId": 11,
								"contract": "TrustGigEscrow.sol:TrustGigEscrow",
								"label": "client",
								"offset": 0,
								"slot": "0",
								"type": "t_address"
							},
							{
								"astId": 13,
								"contract": "TrustGigEscrow.sol:TrustGigEscrow",
								"label": "freelancer",
								"offset": 0,
								"slot": "1",
								"type": "t_address"
							},
							{
								"astId": 15,
								"contract": "TrustGigEscrow.sol:TrustGigEscrow",
								"label": "arbitrator",
								"offset": 0,
								"slot": "2",
								"type": "t_address"
							},
							{
								"astId": 17,
								"contract": "TrustGigEscrow.sol:TrustGigEscrow",
								"label": "amount",
								"offset": 0,
								"slot": "3",
								"type": "t_uint256"
							},
							{
								"astId": 20,
								"contract": "TrustGigEscrow.sol:TrustGigEscrow",
								"label": "state",
								"offset": 0,
								"slot": "4",
								"type": "t_enum(JobState)9"
							},
							{
								"astId": 22,
								"contract": "TrustGigEscrow.sol:TrustGigEscrow",
								"label": "workSubmission",
								"offset": 0,
								"slot": "5",
								"type": "t_string_storage"
							}
						],
						"numberOfBytes": "192"
					},
					"t_uint256": {
						"encoding": "inplace",
						"label": "uint256",
						"numberOfBytes": "32"
					}
				}
			},
			"userdoc": {
				"kind": "user",
				"methods": {},
				"notice": "Minimal prototype for decentralized labor market (client, freelancer, arbitrator)",
				"version": 1
			}
		}
	}
}